{
  "contractName": "NftMarket",
  "abi": [
    {
      "inputs": [
        {
          "internalType": "uint256",
          "name": "_salePrice",
          "type": "uint256"
        },
        {
          "internalType": "uint256",
          "name": "_saleComissionPercent",
          "type": "uint256"
        },
        {
          "internalType": "uint256",
          "name": "_discountTime",
          "type": "uint256"
        },
        {
          "internalType": "uint256",
          "name": "_discountRate",
          "type": "uint256"
        }
      ],
      "stateMutability": "nonpayable",
      "type": "constructor"
    },
    {
      "anonymous": false,
      "inputs": [
        {
          "indexed": true,
          "internalType": "uint256",
          "name": "itemID",
          "type": "uint256"
        },
        {
          "indexed": false,
          "internalType": "address",
          "name": "seller",
          "type": "address"
        },
        {
          "indexed": false,
          "internalType": "uint256",
          "name": "price",
          "type": "uint256"
        },
        {
          "indexed": true,
          "internalType": "address",
          "name": "tokenAddress",
          "type": "address"
        },
        {
          "indexed": true,
          "internalType": "uint256",
          "name": "tokenId",
          "type": "uint256"
        },
        {
          "indexed": false,
          "internalType": "uint256",
          "name": "listingTime",
          "type": "uint256"
        }
      ],
      "name": "itemListed",
      "type": "event"
    },
    {
      "anonymous": false,
      "inputs": [
        {
          "indexed": false,
          "internalType": "uint256",
          "name": "itemId",
          "type": "uint256"
        },
        {
          "indexed": true,
          "internalType": "address",
          "name": "tokenAdress",
          "type": "address"
        },
        {
          "indexed": false,
          "internalType": "uint256",
          "name": "tokenId",
          "type": "uint256"
        },
        {
          "indexed": false,
          "internalType": "uint256",
          "name": "price",
          "type": "uint256"
        },
        {
          "indexed": false,
          "internalType": "uint256",
          "name": "commission",
          "type": "uint256"
        },
        {
          "indexed": true,
          "internalType": "address",
          "name": "buyer",
          "type": "address"
        },
        {
          "indexed": true,
          "internalType": "address",
          "name": "seller",
          "type": "address"
        }
      ],
      "name": "itemSold",
      "type": "event"
    },
    {
      "anonymous": false,
      "inputs": [
        {
          "indexed": false,
          "internalType": "uint256",
          "name": "itemId",
          "type": "uint256"
        },
        {
          "indexed": true,
          "internalType": "address",
          "name": "seller",
          "type": "address"
        }
      ],
      "name": "listingCancelled",
      "type": "event"
    },
    {
      "inputs": [],
      "name": "discountRate",
      "outputs": [
        {
          "internalType": "uint256",
          "name": "",
          "type": "uint256"
        }
      ],
      "stateMutability": "view",
      "type": "function",
      "constant": true
    },
    {
      "inputs": [],
      "name": "discountTime",
      "outputs": [
        {
          "internalType": "uint256",
          "name": "",
          "type": "uint256"
        }
      ],
      "stateMutability": "view",
      "type": "function",
      "constant": true
    },
    {
      "inputs": [
        {
          "internalType": "uint256",
          "name": "",
          "type": "uint256"
        },
        {
          "internalType": "uint256",
          "name": "",
          "type": "uint256"
        }
      ],
      "name": "listOfOwners",
      "outputs": [
        {
          "internalType": "address",
          "name": "",
          "type": "address"
        }
      ],
      "stateMutability": "view",
      "type": "function",
      "constant": true
    },
    {
      "inputs": [
        {
          "internalType": "uint256",
          "name": "",
          "type": "uint256"
        }
      ],
      "name": "nftItems",
      "outputs": [
        {
          "internalType": "uint256",
          "name": "itemId",
          "type": "uint256"
        },
        {
          "internalType": "address payable",
          "name": "seller",
          "type": "address"
        },
        {
          "internalType": "uint256",
          "name": "tokenPrice",
          "type": "uint256"
        },
        {
          "internalType": "address",
          "name": "tokenAdress",
          "type": "address"
        },
        {
          "internalType": "uint256",
          "name": "tokenId",
          "type": "uint256"
        },
        {
          "internalType": "enum NftMarket.state",
          "name": "stateNow",
          "type": "uint8"
        },
        {
          "internalType": "uint256",
          "name": "listTime",
          "type": "uint256"
        }
      ],
      "stateMutability": "view",
      "type": "function",
      "constant": true
    },
    {
      "inputs": [],
      "name": "owner",
      "outputs": [
        {
          "internalType": "address",
          "name": "",
          "type": "address"
        }
      ],
      "stateMutability": "view",
      "type": "function",
      "constant": true
    },
    {
      "inputs": [],
      "name": "saleBasePrice",
      "outputs": [
        {
          "internalType": "uint256",
          "name": "",
          "type": "uint256"
        }
      ],
      "stateMutability": "view",
      "type": "function",
      "constant": true
    },
    {
      "inputs": [
        {
          "internalType": "contract IERC721",
          "name": "_tokenAddress",
          "type": "address"
        },
        {
          "internalType": "uint256",
          "name": "_tokenId",
          "type": "uint256"
        },
        {
          "internalType": "uint256",
          "name": "_price",
          "type": "uint256"
        }
      ],
      "name": "listItem",
      "outputs": [],
      "stateMutability": "nonpayable",
      "type": "function"
    },
    {
      "inputs": [
        {
          "internalType": "uint256",
          "name": "_itemId",
          "type": "uint256"
        }
      ],
      "name": "buyListedToken",
      "outputs": [],
      "stateMutability": "payable",
      "type": "function",
      "payable": true
    },
    {
      "inputs": [
        {
          "internalType": "uint256",
          "name": "_itemId",
          "type": "uint256"
        }
      ],
      "name": "cancelListing",
      "outputs": [],
      "stateMutability": "nonpayable",
      "type": "function"
    },
    {
      "inputs": [
        {
          "internalType": "uint256",
          "name": "_tokenId",
          "type": "uint256"
        }
      ],
      "name": "getListOfOwners",
      "outputs": [
        {
          "internalType": "address[]",
          "name": "owners",
          "type": "address[]"
        }
      ],
      "stateMutability": "view",
      "type": "function",
      "constant": true
    },
    {
      "inputs": [
        {
          "internalType": "uint256",
          "name": "_itemid",
          "type": "uint256"
        }
      ],
      "name": "getListedItem",
      "outputs": [
        {
          "components": [
            {
              "internalType": "uint256",
              "name": "itemId",
              "type": "uint256"
            },
            {
              "internalType": "address payable",
              "name": "seller",
              "type": "address"
            },
            {
              "internalType": "uint256",
              "name": "tokenPrice",
              "type": "uint256"
            },
            {
              "internalType": "address",
              "name": "tokenAdress",
              "type": "address"
            },
            {
              "internalType": "uint256",
              "name": "tokenId",
              "type": "uint256"
            },
            {
              "internalType": "enum NftMarket.state",
              "name": "stateNow",
              "type": "uint8"
            },
            {
              "internalType": "uint256",
              "name": "listTime",
              "type": "uint256"
            }
          ],
          "internalType": "struct NftMarket.nftItem",
          "name": "",
          "type": "tuple"
        }
      ],
      "stateMutability": "view",
      "type": "function",
      "constant": true
    },
    {
      "inputs": [
        {
          "internalType": "uint256",
          "name": "_tokenId",
          "type": "uint256"
        }
      ],
      "name": "getPrice",
      "outputs": [
        {
          "internalType": "uint256",
          "name": "",
          "type": "uint256"
        }
      ],
      "stateMutability": "view",
      "type": "function",
      "constant": true
    }
  ],
  "bytecode": "0x60806040523480156200001157600080fd5b5060405162002015380380620020158339818101604052810190620000379190620000e6565b600160008190555033600660006101000a81548173ffffffffffffffffffffffffffffffffffffffff021916908373ffffffffffffffffffffffffffffffffffffffff160217905550836004819055508260058190555081600781905550806008819055505050505062000158565b600080fd5b6000819050919050565b620000c081620000ab565b8114620000cc57600080fd5b50565b600081519050620000e081620000b5565b92915050565b60008060008060808587031215620001035762000102620000a6565b5b60006200011387828801620000cf565b94505060206200012687828801620000cf565b93505060406200013987828801620000cf565b92505060606200014c87828801620000cf565b91505092959194509250565b611ead80620001686000396000f3fe6080604052600436106100a75760003560e01c80638da5cb5b116100645780638da5cb5b146101c557806390b0e078146101f0578063a6c215a91461021b578063d90581c714610258578063e6c0e6d514610295578063e7572230146102c0576100a7565b806318fb3c1e146100ac578063305a67a8146100d757806362821396146101005780636624f111146101435780637655abc81461015f57806389bfd38f1461019c575b600080fd5b3480156100b857600080fd5b506100c16102fd565b6040516100ce9190611394565b60405180910390f35b3480156100e357600080fd5b506100fe60048036038101906100f991906113e0565b610303565b005b34801561010c57600080fd5b50610127600480360381019061012291906113e0565b610607565b60405161013a97969594939291906114e6565b60405180910390f35b61015d600480360381019061015891906113e0565b610696565b005b34801561016b57600080fd5b50610186600480360381019061018191906113e0565b610be1565b604051610193919061161f565b60405180910390f35b3480156101a857600080fd5b506101c360048036038101906101be9190611678565b610d1d565b005b3480156101d157600080fd5b506101da611006565b6040516101e791906116cb565b60405180910390f35b3480156101fc57600080fd5b5061020561102c565b6040516102129190611394565b60405180910390f35b34801561022757600080fd5b50610242600480360381019061023d91906113e0565b611032565b60405161024f9190611795565b60405180910390f35b34801561026457600080fd5b5061027f600480360381019061027a91906117b7565b6110d3565b60405161028c91906116cb565b60405180910390f35b3480156102a157600080fd5b506102aa611121565b6040516102b79190611394565b60405180910390f35b3480156102cc57600080fd5b506102e760048036038101906102e291906113e0565b611127565b6040516102f49190611394565b60405180910390f35b60045481565b6000600160008381526020019081526020016000206040518060e0016040529081600082015481526020016001820160009054906101000a900473ffffffffffffffffffffffffffffffffffffffff1673ffffffffffffffffffffffffffffffffffffffff1673ffffffffffffffffffffffffffffffffffffffff168152602001600282015481526020016003820160009054906101000a900473ffffffffffffffffffffffffffffffffffffffff1673ffffffffffffffffffffffffffffffffffffffff1673ffffffffffffffffffffffffffffffffffffffff168152602001600482015481526020016005820160009054906101000a900460ff1660028111156104125761041161146f565b5b60028111156104245761042361146f565b5b81526020016006820154815250509050806020015173ffffffffffffffffffffffffffffffffffffffff163373ffffffffffffffffffffffffffffffffffffffff16146104a6576040517f08c379a000000000000000000000000000000000000000000000000000000000815260040161049d90611854565b60405180910390fd5b600060028111156104ba576104b961146f565b5b8160a0015160028111156104d1576104d061146f565b5b14610511576040517f08c379a0000000000000000000000000000000000000000000000000000000008152600401610508906118e6565b60405180910390fd5b60028160a00190600281111561052a5761052961146f565b5b9081600281111561053e5761053d61146f565b5b81525050806060015173ffffffffffffffffffffffffffffffffffffffff166323b872dd3033856040518463ffffffff1660e01b815260040161058393929190611906565b600060405180830381600087803b15801561059d57600080fd5b505af11580156105b1573d6000803e3d6000fd5b505050503373ffffffffffffffffffffffffffffffffffffffff167f4f009047e8f9b3789d41ca27f1e131ec0d32fbb68a0c61412c323cb823b7bae2836040516105fb9190611394565b60405180910390a25050565b60016020528060005260406000206000915090508060000154908060010160009054906101000a900473ffffffffffffffffffffffffffffffffffffffff16908060020154908060030160009054906101000a900473ffffffffffffffffffffffffffffffffffffffff16908060040154908060050160009054906101000a900460ff16908060060154905087565b6002600054036106db576040517f08c379a00000000000000000000000000000000000000000000000000000000081526004016106d290611989565b60405180910390fd5b600260008190555060006001600083815260200190815260200160002090508060010160009054906101000a900473ffffffffffffffffffffffffffffffffffffffff1673ffffffffffffffffffffffffffffffffffffffff163373ffffffffffffffffffffffffffffffffffffffff160361078c576040517f08c379a0000000000000000000000000000000000000000000000000000000008152600401610783906119f5565b60405180910390fd5b600060028111156107a05761079f61146f565b5b8160050160009054906101000a900460ff1660028111156107c4576107c361146f565b5b14610804576040517f08c379a00000000000000000000000000000000000000000000000000000000081526004016107fb90611a61565b60405180910390fd5b8060020154341461084a576040517f08c379a000000000000000000000000000000000000000000000000000000000815260040161084190611acd565b60405180910390fd5b60018160050160006101000a81548160ff021916908360028111156108725761087161146f565b5b0217905550600080600080600080600060075488600601546108949190611b1c565b42116108c9576108a634600854611147565b80925081975050506108b8898261117e565b8094508197508295505050506108e0565b6108d3893461117e565b8094508197508295505050505b6108ec82600554611147565b80955081985050508273ffffffffffffffffffffffffffffffffffffffff166108fc869081150290604051600060405180830381858888f1935050505015801561093a573d6000803e3d6000fd5b503373ffffffffffffffffffffffffffffffffffffffff166108fc879081150290604051600060405180830381858888f19350505050158015610981573d6000803e3d6000fd5b508760010160009054906101000a900473ffffffffffffffffffffffffffffffffffffffff1673ffffffffffffffffffffffffffffffffffffffff166108fc859081150290604051600060405180830381858888f193505050501580156109ec573d6000803e3d6000fd5b508760030160009054906101000a900473ffffffffffffffffffffffffffffffffffffffff1673ffffffffffffffffffffffffffffffffffffffff166323b872dd30338b600401546040518463ffffffff1660e01b8152600401610a5293929190611906565b600060405180830381600087803b158015610a6c57600080fd5b505af1158015610a80573d6000803e3d6000fd5b505050506002600089600401548152602001908152602001600020339080600181540180825580915050600190039060005260206000200160009091909190916101000a81548173ffffffffffffffffffffffffffffffffffffffff021916908373ffffffffffffffffffffffffffffffffffffffff1602179055508760010160009054906101000a900473ffffffffffffffffffffffffffffffffffffffff1673ffffffffffffffffffffffffffffffffffffffff163373ffffffffffffffffffffffffffffffffffffffff168960030160009054906101000a900473ffffffffffffffffffffffffffffffffffffffff1673ffffffffffffffffffffffffffffffffffffffff167f6726f661e3503ef189fc5809f0939e661f50db8b89dc7e4b2834312c679faa428c8c600401548d600201548d604051610bc69493929190611b72565b60405180910390a45050505050505050600160008190555050565b610be9611300565b600160008381526020019081526020016000206040518060e0016040529081600082015481526020016001820160009054906101000a900473ffffffffffffffffffffffffffffffffffffffff1673ffffffffffffffffffffffffffffffffffffffff1673ffffffffffffffffffffffffffffffffffffffff168152602001600282015481526020016003820160009054906101000a900473ffffffffffffffffffffffffffffffffffffffff1673ffffffffffffffffffffffffffffffffffffffff1673ffffffffffffffffffffffffffffffffffffffff168152602001600482015481526020016005820160009054906101000a900460ff166002811115610cf657610cf561146f565b5b6002811115610d0857610d0761146f565b5b81526020016006820154815250509050919050565b600260005403610d62576040517f08c379a0000000000000000000000000000000000000000000000000000000008152600401610d5990611989565b60405180910390fd5b6002600081905550600454811015610daf576040517f08c379a0000000000000000000000000000000000000000000000000000000008152600401610da690611c29565b60405180910390fd5b610db9600361126a565b6000610dc56003611280565b90508373ffffffffffffffffffffffffffffffffffffffff166323b872dd3330866040518463ffffffff1660e01b8152600401610e0493929190611906565b600060405180830381600087803b158015610e1e57600080fd5b505af1158015610e32573d6000803e3d6000fd5b505050506040518060e001604052808281526020013373ffffffffffffffffffffffffffffffffffffffff1681526020018381526020018573ffffffffffffffffffffffffffffffffffffffff16815260200184815260200160006002811115610e9f57610e9e61146f565b5b815260200142815250600160008381526020019081526020016000206000820151816000015560208201518160010160006101000a81548173ffffffffffffffffffffffffffffffffffffffff021916908373ffffffffffffffffffffffffffffffffffffffff1602179055506040820151816002015560608201518160030160006101000a81548173ffffffffffffffffffffffffffffffffffffffff021916908373ffffffffffffffffffffffffffffffffffffffff1602179055506080820151816004015560a08201518160050160006101000a81548160ff02191690836002811115610f9257610f9161146f565b5b021790555060c08201518160060155905050828473ffffffffffffffffffffffffffffffffffffffff16827f58bb611d328df9add5b7af0e5760eefcffbaa08ef9716f60592677ffddd17083338642604051610ff093929190611ca8565b60405180910390a4506001600081905550505050565b600660009054906101000a900473ffffffffffffffffffffffffffffffffffffffff1681565b60075481565b6060600260008381526020019081526020016000208054806020026020016040519081016040528092919081815260200182805480156110c757602002820191906000526020600020905b8160009054906101000a900473ffffffffffffffffffffffffffffffffffffffff1673ffffffffffffffffffffffffffffffffffffffff168152602001906001019080831161107d575b50505050509050919050565b600260205281600052604060002081815481106110ef57600080fd5b906000526020600020016000915091509054906101000a900473ffffffffffffffffffffffffffffffffffffffff1681565b60085481565b600060016000838152602001908152602001600020600201549050919050565b6000806000611156858561128e565b9050600061116d82876112be90919063ffffffff16565b905081819350935050509250929050565b6000806000806001600087815260200190815260200160002090506000808260030160009054906101000a900473ffffffffffffffffffffffffffffffffffffffff1673ffffffffffffffffffffffffffffffffffffffff16632a55205a89896040518363ffffffff1660e01b81526004016111fb929190611cdf565b6040805180830381865afa158015611217573d6000803e3d6000fd5b505050506040513d601f19601f8201168201806040525081019061123b9190611d49565b91509150600061125482896112be90919063ffffffff16565b9050828282965096509650505050509250925092565b6001816000016000828254019250508190555050565b600081600001549050919050565b60006112b660646112a884866112d490919063ffffffff16565b6112ea90919063ffffffff16565b905092915050565b600081836112cc9190611d89565b905092915050565b600081836112e29190611dbd565b905092915050565b600081836112f89190611e46565b905092915050565b6040518060e0016040528060008152602001600073ffffffffffffffffffffffffffffffffffffffff16815260200160008152602001600073ffffffffffffffffffffffffffffffffffffffff168152602001600081526020016000600281111561136e5761136d61146f565b5b8152602001600081525090565b6000819050919050565b61138e8161137b565b82525050565b60006020820190506113a96000830184611385565b92915050565b600080fd5b6113bd8161137b565b81146113c857600080fd5b50565b6000813590506113da816113b4565b92915050565b6000602082840312156113f6576113f56113af565b5b6000611404848285016113cb565b91505092915050565b600073ffffffffffffffffffffffffffffffffffffffff82169050919050565b60006114388261140d565b9050919050565b6114488161142d565b82525050565b60006114598261140d565b9050919050565b6114698161144e565b82525050565b7f4e487b7100000000000000000000000000000000000000000000000000000000600052602160045260246000fd5b600381106114af576114ae61146f565b5b50565b60008190506114c08261149e565b919050565b60006114d0826114b2565b9050919050565b6114e0816114c5565b82525050565b600060e0820190506114fb600083018a611385565b611508602083018961143f565b6115156040830188611385565b6115226060830187611460565b61152f6080830186611385565b61153c60a08301856114d7565b61154960c0830184611385565b98975050505050505050565b61155e8161137b565b82525050565b61156d8161142d565b82525050565b61157c8161144e565b82525050565b61158b816114c5565b82525050565b60e0820160008201516115a76000850182611555565b5060208201516115ba6020850182611564565b5060408201516115cd6040850182611555565b5060608201516115e06060850182611573565b5060808201516115f36080850182611555565b5060a082015161160660a0850182611582565b5060c082015161161960c0850182611555565b50505050565b600060e0820190506116346000830184611591565b92915050565b60006116458261144e565b9050919050565b6116558161163a565b811461166057600080fd5b50565b6000813590506116728161164c565b92915050565b600080600060608486031215611691576116906113af565b5b600061169f86828701611663565b93505060206116b0868287016113cb565b92505060406116c1868287016113cb565b9150509250925092565b60006020820190506116e06000830184611460565b92915050565b600081519050919050565b600082825260208201905092915050565b6000819050602082019050919050565b600061171e8383611573565b60208301905092915050565b6000602082019050919050565b6000611742826116e6565b61174c81856116f1565b935061175783611702565b8060005b8381101561178857815161176f8882611712565b975061177a8361172a565b92505060018101905061175b565b5085935050505092915050565b600060208201905081810360008301526117af8184611737565b905092915050565b600080604083850312156117ce576117cd6113af565b5b60006117dc858286016113cb565b92505060206117ed858286016113cb565b9150509250929050565b600082825260208201905092915050565b7f6f6e6c792073656c6c65722063616e2063616e63656c206c697374696e670000600082015250565b600061183e601e836117f7565b915061184982611808565b602082019050919050565b6000602082019050818103600083015261186d81611831565b9050919050565b7f63757272656e742073746174652073686f756c6420626520617661696c61626c60008201527f6500000000000000000000000000000000000000000000000000000000000000602082015250565b60006118d06021836117f7565b91506118db82611874565b604082019050919050565b600060208201905081810360008301526118ff816118c3565b9050919050565b600060608201905061191b6000830186611460565b6119286020830185611460565b6119356040830184611385565b949350505050565b7f5265656e7472616e637947756172643a207265656e7472616e742063616c6c00600082015250565b6000611973601f836117f7565b915061197e8261193d565b602082019050919050565b600060208201905081810360008301526119a281611966565b9050919050565b7f73656c6c65722063616e206e6f74206275790000000000000000000000000000600082015250565b60006119df6012836117f7565b91506119ea826119a9565b602082019050919050565b60006020820190508181036000830152611a0e816119d2565b9050919050565b7f746f6b656e206e6f7420617661696c61626c6500000000000000000000000000600082015250565b6000611a4b6013836117f7565b9150611a5682611a15565b602082019050919050565b60006020820190508181036000830152611a7a81611a3e565b9050919050565b7f696e73756666696369656e207061796d656e7400000000000000000000000000600082015250565b6000611ab76013836117f7565b9150611ac282611a81565b602082019050919050565b60006020820190508181036000830152611ae681611aaa565b9050919050565b7f4e487b7100000000000000000000000000000000000000000000000000000000600052601160045260246000fd5b6000611b278261137b565b9150611b328361137b565b9250827fffffffffffffffffffffffffffffffffffffffffffffffffffffffffffffffff03821115611b6757611b66611aed565b5b828201905092915050565b6000608082019050611b876000830187611385565b611b946020830186611385565b611ba16040830185611385565b611bae6060830184611385565b95945050505050565b7f746f6b656e207072696365206c657373207468616e206d696e696d756d206c6960008201527f7374696e67207072696365000000000000000000000000000000000000000000602082015250565b6000611c13602b836117f7565b9150611c1e82611bb7565b604082019050919050565b60006020820190508181036000830152611c4281611c06565b9050919050565b6000819050919050565b6000611c6e611c69611c648461140d565b611c49565b61140d565b9050919050565b6000611c8082611c53565b9050919050565b6000611c9282611c75565b9050919050565b611ca281611c87565b82525050565b6000606082019050611cbd6000830186611c99565b611cca6020830185611385565b611cd76040830184611385565b949350505050565b6000604082019050611cf46000830185611385565b611d016020830184611385565b9392505050565b611d118161144e565b8114611d1c57600080fd5b50565b600081519050611d2e81611d08565b92915050565b600081519050611d43816113b4565b92915050565b60008060408385031215611d6057611d5f6113af565b5b6000611d6e85828601611d1f565b9250506020611d7f85828601611d34565b9150509250929050565b6000611d948261137b565b9150611d9f8361137b565b925082821015611db257611db1611aed565b5b828203905092915050565b6000611dc88261137b565b9150611dd38361137b565b9250817fffffffffffffffffffffffffffffffffffffffffffffffffffffffffffffffff0483118215151615611e0c57611e0b611aed565b5b828202905092915050565b7f4e487b7100000000000000000000000000000000000000000000000000000000600052601260045260246000fd5b6000611e518261137b565b9150611e5c8361137b565b925082611e6c57611e6b611e17565b5b82820490509291505056fea2646970667358221220da7d6097aa4ca2de2e0ed105a62115ed13e5d5f65e768832b149b824a84153af64736f6c634300080d0033",
  "immutableReferences": {},
  "source": "// SPDX-License-Identifier: MIT\npragma solidity >=0.4.22 <0.9.0;\n\n\nimport \"../node_modules/@openzeppelin/contracts/interfaces/IERC721.sol\";\nimport \"../node_modules/@openzeppelin/contracts/security/ReentrancyGuard.sol\";\nimport \"../node_modules/@openzeppelin/contracts/utils/math/SafeMath.sol\";\nimport \"../node_modules/@openzeppelin/contracts/utils/Counters.sol\";\n\nimport \"../node_modules/@openzeppelin/contracts/token/common/ERC2981.sol\";\n\n\ncontract NftMarket is ReentrancyGuard{\n    \n    using SafeMath for uint ;\n    using Counters for Counters.Counter;\n\n    enum state{\n        AVAILABLE,\n        SOLD,\n        CANCELLED\n    }\n\n    struct nftItem{\n        uint itemId;\n        address payable seller;\n        uint tokenPrice;\n        address tokenAdress;\n        uint tokenId;\n        state stateNow;\n        uint listTime;\n    }\n    mapping(uint => nftItem) public nftItems;\n    mapping (uint => address[])public listOfOwners;\n \n    Counters.Counter private idCounter;\n    uint public saleBasePrice;                 ///optional: can be removed\n    uint internal saleComissionPercent;\n    address public owner;\n    uint public discountTime;\n    uint public discountRate;    \n\n    constructor(uint _salePrice, uint _saleComissionPercent, uint _discountTime, uint _discountRate){\n\n        owner = msg.sender;\n        saleBasePrice = _salePrice;\n        saleComissionPercent= _saleComissionPercent;\n        discountTime = _discountTime;\n        discountRate = _discountRate;\n\n    }\n\n    event itemListed(\n        uint indexed itemID,\n        address seller,\n        uint price,\n        address indexed tokenAddress,\n        uint indexed tokenId,\n        uint listingTime\n     );\n     event itemSold(\n        uint itemId,\n        address indexed tokenAdress,\n        uint tokenId,\n        uint price,\n        uint commission,\n        address indexed buyer,\n        address indexed seller\n     );\n     event listingCancelled(\n         uint itemId,\n         address indexed seller\n     );\n\n    function listItem(IERC721 _tokenAddress, uint _tokenId, uint _price) external nonReentrant {\n\n        require(_price >= saleBasePrice, \"token price less than minimum listing price\");\n\n       ///@dev increased the counter to start id from 1\n        idCounter.increment();       \n        uint _itemID = idCounter.current();\n        \n        ///@dev transfered token to contract address\n        _tokenAddress.transferFrom(msg.sender, address(this), _tokenId);\n        \n        ///@dev added item details in mapping against ID\n        nftItems[_itemID] = nftItem(\n            _itemID,\n            payable(msg.sender),\n            _price,\n            address(_tokenAddress),\n            _tokenId,\n            state.AVAILABLE,\n            block.timestamp\n        ); \n\n    //event emitted for listing\n       emit itemListed(\n            _itemID,\n            payable(msg.sender),\n            _price,\n            address(_tokenAddress),\n            _tokenId,\n            block.timestamp\n            );\n    }\n\n    function buyListedToken(uint _itemId) external nonReentrant payable{\n        nftItem storage _nftItems = nftItems[_itemId];\n\n        require(msg.sender != _nftItems.seller , \"seller can not buy\");\n        require(_nftItems.stateNow == state.AVAILABLE, \"token not available\");\n        require(msg.value == _nftItems.tokenPrice, \"insufficien payment\");\n\n        ///@dev set current status of token to sold\n        _nftItems.stateNow = state.SOLD;\n\n        uint _marketCommission;\n        uint _discountAmount; \n        uint _royalty;\n        uint _netSaleAmount;\n        address _nftCreator;\n        uint _amountAfterRoyalty;\n        uint _amountAfterDiscount;\n\n        if(block.timestamp <= (_nftItems.listTime + discountTime)){        \n\n            ///@dev calculate discount amount on payment and netamount after deductiing discount\n            (_discountAmount, _amountAfterDiscount) = _getValues(msg.value, discountRate);\n\n            ///@dev calculate the royalty of creator and amount after deducting royalty;\n            (_nftCreator,_royalty, _amountAfterRoyalty) = _getRoyalty(_itemId, _amountAfterDiscount); \n        }\n        else{\n\n             ///@dev calculate the royalty of creator and amount after deducting royalty;\n            (_nftCreator,_royalty, _amountAfterRoyalty) = _getRoyalty(_itemId, msg.value);  \n        }\n\n        ///dev calculate commision amount and net sale amount\n        (_marketCommission, _netSaleAmount) = _getValues(_amountAfterRoyalty, saleComissionPercent);\n\n        ///@dev transfer royality to nft creator;\n        payable(_nftCreator).transfer(_royalty);\n\n        ///@dev transfer discount amount to buyer\n        payable(msg.sender).transfer(_discountAmount);\n\n        ///@dev transfer net sale amount after discount and commission to seller\n        _nftItems.seller.transfer(_netSaleAmount);\n\n\n        ///@dev token transfered to buyer account from contract address\n        IERC721(_nftItems.tokenAdress).transferFrom(address(this), msg.sender, _nftItems.tokenId);\n\n        ///@dev appending the array of buyers\n        listOfOwners[_nftItems.tokenId].push(msg.sender);\n\n       emit itemSold(\n            _itemId,\n            address(_nftItems.tokenAdress),\n            _nftItems.tokenId,\n             _nftItems.tokenPrice,\n            _marketCommission,\n            msg.sender,\n            _nftItems.seller\n            );\n    }\n\n    function cancelListing(uint _itemId) external{\n\n        nftItem memory _nftItem = nftItems[_itemId];\n\n        require(msg.sender ==_nftItem.seller, \"only seller can cancel listing\");\n        require(_nftItem.stateNow == state.AVAILABLE, \"current state should be available\");\n\n        _nftItem.stateNow = state.CANCELLED;\n\n        ///@dev transfer token back to seller from market account\n        IERC721(_nftItem.tokenAdress).transferFrom(address(this), msg.sender, _itemId);\n\n        emit listingCancelled(_itemId, msg.sender); \n    }\n    \n\n    function getListOfOwners(uint _tokenId) public view returns(address[] memory owners) {\n       \n        return  listOfOwners[_tokenId];\n    }\n\n    function getListedItem(uint _itemid) public view returns(nftItem memory){\n        return nftItems[_itemid];\n    }\n\n    function getPrice(uint _tokenId) public view returns (uint){\n        \n       return  nftItems[_tokenId].tokenPrice;\n    }\n\n    function _calculatePercent(uint _payment, uint _percent) internal pure returns(uint){\n        \n        return (_payment.mul(_percent)).div(100);\n        \n    }\n    function _getValues(uint _value, uint _setPercentage) internal pure returns(uint, uint ){\n       \n        uint _percentageAmount = _calculatePercent(_value, _setPercentage);\n        uint _amountAfterPercentage = (_value).sub(_percentageAmount);\n\n        return (_percentageAmount, _amountAfterPercentage);\n    }\n\n    function _getRoyalty(uint _itemId, uint _amount) internal view returns(address,uint ,uint){\n\n        nftItem storage _nftItems = nftItems[_itemId];\n\n        (address _nftCreator, uint _royalty) = ERC2981(_nftItems.tokenAdress).royaltyInfo(_itemId,_amount);\n        uint _amountAfterRoyalty = _amount.sub(_royalty);\n\n        return(_nftCreator,_royalty, _amountAfterRoyalty );\n    } \n   \n\n}",
  "sourcePath": "/media/umar/2EB40689B406542D/Blockchain/MarketPlace/src/contracts/NftMarket.sol",
  "compiler": {
    "name": "solc",
    "version": "0.8.13+commit.abaa5c0e.Emscripten.clang"
  },
  "schemaVersion": "3.4.7",
  "updatedAt": "2022-06-06T09:46:48.171Z",
  "networkType": "ethereum",
  "devdoc": {
    "kind": "dev",
    "methods": {},
    "version": 1
  },
  "userdoc": {
    "kind": "user",
    "methods": {},
    "version": 1
  }
}