{
  "contractName": "NftMarket",
  "abi": [
    {
      "inputs": [
        {
          "internalType": "uint256",
          "name": "_salePrice",
          "type": "uint256"
        },
        {
          "internalType": "uint256",
          "name": "_saleComissionPercent",
          "type": "uint256"
        },
        {
          "internalType": "uint256",
          "name": "_discountTime",
          "type": "uint256"
        },
        {
          "internalType": "uint256",
          "name": "_discountRate",
          "type": "uint256"
        }
      ],
      "stateMutability": "nonpayable",
      "type": "constructor"
    },
    {
      "anonymous": false,
      "inputs": [
        {
          "indexed": true,
          "internalType": "uint256",
          "name": "itemID",
          "type": "uint256"
        },
        {
          "indexed": false,
          "internalType": "address",
          "name": "seller",
          "type": "address"
        },
        {
          "indexed": false,
          "internalType": "uint256",
          "name": "price",
          "type": "uint256"
        },
        {
          "indexed": true,
          "internalType": "address",
          "name": "tokenAddress",
          "type": "address"
        },
        {
          "indexed": true,
          "internalType": "uint256",
          "name": "tokenId",
          "type": "uint256"
        },
        {
          "indexed": false,
          "internalType": "uint256",
          "name": "listingTime",
          "type": "uint256"
        }
      ],
      "name": "itemListed",
      "type": "event"
    },
    {
      "anonymous": false,
      "inputs": [
        {
          "indexed": false,
          "internalType": "uint256",
          "name": "itemId",
          "type": "uint256"
        },
        {
          "indexed": true,
          "internalType": "address",
          "name": "tokenAdress",
          "type": "address"
        },
        {
          "indexed": false,
          "internalType": "uint256",
          "name": "tokenId",
          "type": "uint256"
        },
        {
          "indexed": false,
          "internalType": "uint256",
          "name": "price",
          "type": "uint256"
        },
        {
          "indexed": false,
          "internalType": "uint256",
          "name": "commission",
          "type": "uint256"
        },
        {
          "indexed": true,
          "internalType": "address",
          "name": "buyer",
          "type": "address"
        },
        {
          "indexed": true,
          "internalType": "address",
          "name": "seller",
          "type": "address"
        }
      ],
      "name": "itemSold",
      "type": "event"
    },
    {
      "anonymous": false,
      "inputs": [
        {
          "indexed": false,
          "internalType": "uint256",
          "name": "itemId",
          "type": "uint256"
        },
        {
          "indexed": true,
          "internalType": "address",
          "name": "seller",
          "type": "address"
        }
      ],
      "name": "listingCancelled",
      "type": "event"
    },
    {
      "inputs": [],
      "name": "discountRate",
      "outputs": [
        {
          "internalType": "uint256",
          "name": "",
          "type": "uint256"
        }
      ],
      "stateMutability": "view",
      "type": "function",
      "constant": true
    },
    {
      "inputs": [],
      "name": "discountTime",
      "outputs": [
        {
          "internalType": "uint256",
          "name": "",
          "type": "uint256"
        }
      ],
      "stateMutability": "view",
      "type": "function",
      "constant": true
    },
    {
      "inputs": [
        {
          "internalType": "uint256",
          "name": "",
          "type": "uint256"
        }
      ],
      "name": "nftItems",
      "outputs": [
        {
          "internalType": "uint256",
          "name": "itemId",
          "type": "uint256"
        },
        {
          "internalType": "address payable",
          "name": "seller",
          "type": "address"
        },
        {
          "internalType": "uint256",
          "name": "tokenPrice",
          "type": "uint256"
        },
        {
          "internalType": "address",
          "name": "tokenAdress",
          "type": "address"
        },
        {
          "internalType": "uint256",
          "name": "tokenId",
          "type": "uint256"
        },
        {
          "internalType": "enum NftMarket.state",
          "name": "stateNow",
          "type": "uint8"
        },
        {
          "internalType": "uint256",
          "name": "listTime",
          "type": "uint256"
        }
      ],
      "stateMutability": "view",
      "type": "function",
      "constant": true
    },
    {
      "inputs": [],
      "name": "owner",
      "outputs": [
        {
          "internalType": "address",
          "name": "",
          "type": "address"
        }
      ],
      "stateMutability": "view",
      "type": "function",
      "constant": true
    },
    {
      "inputs": [],
      "name": "saleBasePrice",
      "outputs": [
        {
          "internalType": "uint256",
          "name": "",
          "type": "uint256"
        }
      ],
      "stateMutability": "view",
      "type": "function",
      "constant": true
    },
    {
      "inputs": [
        {
          "internalType": "contract IERC721",
          "name": "_tokenAddress",
          "type": "address"
        },
        {
          "internalType": "uint256",
          "name": "_tokenId",
          "type": "uint256"
        },
        {
          "internalType": "uint256",
          "name": "_price",
          "type": "uint256"
        }
      ],
      "name": "listItem",
      "outputs": [],
      "stateMutability": "nonpayable",
      "type": "function"
    },
    {
      "inputs": [
        {
          "internalType": "uint256",
          "name": "_itemId",
          "type": "uint256"
        }
      ],
      "name": "buyListedToken",
      "outputs": [],
      "stateMutability": "payable",
      "type": "function",
      "payable": true
    },
    {
      "inputs": [
        {
          "internalType": "uint256",
          "name": "_itemId",
          "type": "uint256"
        }
      ],
      "name": "cancelListing",
      "outputs": [],
      "stateMutability": "nonpayable",
      "type": "function"
    },
    {
      "inputs": [
        {
          "internalType": "uint256",
          "name": "_itemid",
          "type": "uint256"
        }
      ],
      "name": "getListedItem",
      "outputs": [
        {
          "components": [
            {
              "internalType": "uint256",
              "name": "itemId",
              "type": "uint256"
            },
            {
              "internalType": "address payable",
              "name": "seller",
              "type": "address"
            },
            {
              "internalType": "uint256",
              "name": "tokenPrice",
              "type": "uint256"
            },
            {
              "internalType": "address",
              "name": "tokenAdress",
              "type": "address"
            },
            {
              "internalType": "uint256",
              "name": "tokenId",
              "type": "uint256"
            },
            {
              "internalType": "enum NftMarket.state",
              "name": "stateNow",
              "type": "uint8"
            },
            {
              "internalType": "uint256",
              "name": "listTime",
              "type": "uint256"
            }
          ],
          "internalType": "struct NftMarket.nftItem",
          "name": "",
          "type": "tuple"
        }
      ],
      "stateMutability": "view",
      "type": "function",
      "constant": true
    },
    {
      "inputs": [
        {
          "internalType": "uint256",
          "name": "_tokenId",
          "type": "uint256"
        }
      ],
      "name": "getPrice",
      "outputs": [
        {
          "internalType": "uint256",
          "name": "",
          "type": "uint256"
        }
      ],
      "stateMutability": "view",
      "type": "function",
      "constant": true
    }
  ],
  "bytecode": "0x60806040523480156200001157600080fd5b5060405162001d1238038062001d128339818101604052810190620000379190620000e6565b600160008190555033600560006101000a81548173ffffffffffffffffffffffffffffffffffffffff021916908373ffffffffffffffffffffffffffffffffffffffff160217905550836003819055508260048190555081600681905550806007819055505050505062000158565b600080fd5b6000819050919050565b620000c081620000ab565b8114620000cc57600080fd5b50565b600081519050620000e081620000b5565b92915050565b60008060008060808587031215620001035762000102620000a6565b5b60006200011387828801620000cf565b94505060206200012687828801620000cf565b93505060406200013987828801620000cf565b92505060606200014c87828801620000cf565b91505092959194509250565b611baa80620001686000396000f3fe6080604052600436106100915760003560e01c806389bfd38f1161005957806389bfd38f146101865780638da5cb5b146101af57806390b0e078146101da578063e6c0e6d514610205578063e75722301461023057610091565b806318fb3c1e14610096578063305a67a8146100c157806362821396146100ea5780636624f1111461012d5780637655abc814610149575b600080fd5b3480156100a257600080fd5b506100ab61026d565b6040516100b891906111a2565b60405180910390f35b3480156100cd57600080fd5b506100e860048036038101906100e391906111ee565b610273565b005b3480156100f657600080fd5b50610111600480360381019061010c91906111ee565b610577565b60405161012497969594939291906112f4565b60405180910390f35b610147600480360381019061014291906111ee565b610606565b005b34801561015557600080fd5b50610170600480360381019061016b91906111ee565b610ad9565b60405161017d919061142d565b60405180910390f35b34801561019257600080fd5b506101ad60048036038101906101a89190611486565b610c15565b005b3480156101bb57600080fd5b506101c4610efe565b6040516101d191906114d9565b60405180910390f35b3480156101e657600080fd5b506101ef610f24565b6040516101fc91906111a2565b60405180910390f35b34801561021157600080fd5b5061021a610f2a565b60405161022791906111a2565b60405180910390f35b34801561023c57600080fd5b50610257600480360381019061025291906111ee565b610f30565b60405161026491906111a2565b60405180910390f35b60035481565b6000600160008381526020019081526020016000206040518060e0016040529081600082015481526020016001820160009054906101000a900473ffffffffffffffffffffffffffffffffffffffff1673ffffffffffffffffffffffffffffffffffffffff1673ffffffffffffffffffffffffffffffffffffffff168152602001600282015481526020016003820160009054906101000a900473ffffffffffffffffffffffffffffffffffffffff1673ffffffffffffffffffffffffffffffffffffffff1673ffffffffffffffffffffffffffffffffffffffff168152602001600482015481526020016005820160009054906101000a900460ff1660028111156103825761038161127d565b5b60028111156103945761039361127d565b5b81526020016006820154815250509050806020015173ffffffffffffffffffffffffffffffffffffffff163373ffffffffffffffffffffffffffffffffffffffff1614610416576040517f08c379a000000000000000000000000000000000000000000000000000000000815260040161040d90611551565b60405180910390fd5b6000600281111561042a5761042961127d565b5b8160a0015160028111156104415761044061127d565b5b14610481576040517f08c379a0000000000000000000000000000000000000000000000000000000008152600401610478906115e3565b60405180910390fd5b60028160a00190600281111561049a5761049961127d565b5b908160028111156104ae576104ad61127d565b5b81525050806060015173ffffffffffffffffffffffffffffffffffffffff166323b872dd3033856040518463ffffffff1660e01b81526004016104f393929190611603565b600060405180830381600087803b15801561050d57600080fd5b505af1158015610521573d6000803e3d6000fd5b505050503373ffffffffffffffffffffffffffffffffffffffff167f4f009047e8f9b3789d41ca27f1e131ec0d32fbb68a0c61412c323cb823b7bae28360405161056b91906111a2565b60405180910390a25050565b60016020528060005260406000206000915090508060000154908060010160009054906101000a900473ffffffffffffffffffffffffffffffffffffffff16908060020154908060030160009054906101000a900473ffffffffffffffffffffffffffffffffffffffff16908060040154908060050160009054906101000a900460ff16908060060154905087565b60026000540361064b576040517f08c379a000000000000000000000000000000000000000000000000000000000815260040161064290611686565b60405180910390fd5b600260008190555060006001600083815260200190815260200160002090508060010160009054906101000a900473ffffffffffffffffffffffffffffffffffffffff1673ffffffffffffffffffffffffffffffffffffffff163373ffffffffffffffffffffffffffffffffffffffff16036106fc576040517f08c379a00000000000000000000000000000000000000000000000000000000081526004016106f3906116f2565b60405180910390fd5b600060028111156107105761070f61127d565b5b8160050160009054906101000a900460ff1660028111156107345761073361127d565b5b14610774576040517f08c379a000000000000000000000000000000000000000000000000000000000815260040161076b9061175e565b60405180910390fd5b806002015434146107ba576040517f08c379a00000000000000000000000000000000000000000000000000000000081526004016107b1906117ca565b60405180910390fd5b600080600080600080600060065488600601546107d79190611819565b421161080c576107e934600754610f50565b80925081975050506107fb8982610f87565b809450819750829550505050610823565b6108168934610f87565b8094508197508295505050505b61082f82600454610f50565b80955081985050508273ffffffffffffffffffffffffffffffffffffffff166108fc869081150290604051600060405180830381858888f1935050505015801561087d573d6000803e3d6000fd5b503373ffffffffffffffffffffffffffffffffffffffff166108fc879081150290604051600060405180830381858888f193505050501580156108c4573d6000803e3d6000fd5b508760010160009054906101000a900473ffffffffffffffffffffffffffffffffffffffff1673ffffffffffffffffffffffffffffffffffffffff166108fc859081150290604051600060405180830381858888f1935050505015801561092f573d6000803e3d6000fd5b5060018860050160006101000a81548160ff021916908360028111156109585761095761127d565b5b02179055508760030160009054906101000a900473ffffffffffffffffffffffffffffffffffffffff1673ffffffffffffffffffffffffffffffffffffffff166323b872dd30338b600401546040518463ffffffff1660e01b81526004016109c293929190611603565b600060405180830381600087803b1580156109dc57600080fd5b505af11580156109f0573d6000803e3d6000fd5b505050508760010160009054906101000a900473ffffffffffffffffffffffffffffffffffffffff1673ffffffffffffffffffffffffffffffffffffffff163373ffffffffffffffffffffffffffffffffffffffff168960030160009054906101000a900473ffffffffffffffffffffffffffffffffffffffff1673ffffffffffffffffffffffffffffffffffffffff167f6726f661e3503ef189fc5809f0939e661f50db8b89dc7e4b2834312c679faa428c8c600401548d600201548d604051610abe949392919061186f565b60405180910390a45050505050505050600160008190555050565b610ae161110e565b600160008381526020019081526020016000206040518060e0016040529081600082015481526020016001820160009054906101000a900473ffffffffffffffffffffffffffffffffffffffff1673ffffffffffffffffffffffffffffffffffffffff1673ffffffffffffffffffffffffffffffffffffffff168152602001600282015481526020016003820160009054906101000a900473ffffffffffffffffffffffffffffffffffffffff1673ffffffffffffffffffffffffffffffffffffffff1673ffffffffffffffffffffffffffffffffffffffff168152602001600482015481526020016005820160009054906101000a900460ff166002811115610bee57610bed61127d565b5b6002811115610c0057610bff61127d565b5b81526020016006820154815250509050919050565b600260005403610c5a576040517f08c379a0000000000000000000000000000000000000000000000000000000008152600401610c5190611686565b60405180910390fd5b6002600081905550600354811015610ca7576040517f08c379a0000000000000000000000000000000000000000000000000000000008152600401610c9e90611926565b60405180910390fd5b610cb16002611073565b6000610cbd6002611089565b90508373ffffffffffffffffffffffffffffffffffffffff166323b872dd3330866040518463ffffffff1660e01b8152600401610cfc93929190611603565b600060405180830381600087803b158015610d1657600080fd5b505af1158015610d2a573d6000803e3d6000fd5b505050506040518060e001604052808281526020013373ffffffffffffffffffffffffffffffffffffffff1681526020018381526020018573ffffffffffffffffffffffffffffffffffffffff16815260200184815260200160006002811115610d9757610d9661127d565b5b815260200142815250600160008381526020019081526020016000206000820151816000015560208201518160010160006101000a81548173ffffffffffffffffffffffffffffffffffffffff021916908373ffffffffffffffffffffffffffffffffffffffff1602179055506040820151816002015560608201518160030160006101000a81548173ffffffffffffffffffffffffffffffffffffffff021916908373ffffffffffffffffffffffffffffffffffffffff1602179055506080820151816004015560a08201518160050160006101000a81548160ff02191690836002811115610e8a57610e8961127d565b5b021790555060c08201518160060155905050828473ffffffffffffffffffffffffffffffffffffffff16827f58bb611d328df9add5b7af0e5760eefcffbaa08ef9716f60592677ffddd17083338642604051610ee8939291906119a5565b60405180910390a4506001600081905550505050565b600560009054906101000a900473ffffffffffffffffffffffffffffffffffffffff1681565b60065481565b60075481565b600060016000838152602001908152602001600020600201549050919050565b6000806000610f5f8585611097565b90506000610f7682876110cc90919063ffffffff16565b905081819350935050509250929050565b6000806000806001600087815260200190815260200160002090506000808260030160009054906101000a900473ffffffffffffffffffffffffffffffffffffffff1673ffffffffffffffffffffffffffffffffffffffff16632a55205a89896040518363ffffffff1660e01b81526004016110049291906119dc565b6040805180830381865afa158015611020573d6000803e3d6000fd5b505050506040513d601f19601f820116820180604052508101906110449190611a46565b91509150600061105d82896110cc90919063ffffffff16565b9050828282965096509650505050509250925092565b6001816000016000828254019250508190555050565b600081600001549050919050565b6000806110c060646110b285876110e290919063ffffffff16565b6110f890919063ffffffff16565b90508091505092915050565b600081836110da9190611a86565b905092915050565b600081836110f09190611aba565b905092915050565b600081836111069190611b43565b905092915050565b6040518060e0016040528060008152602001600073ffffffffffffffffffffffffffffffffffffffff16815260200160008152602001600073ffffffffffffffffffffffffffffffffffffffff168152602001600081526020016000600281111561117c5761117b61127d565b5b8152602001600081525090565b6000819050919050565b61119c81611189565b82525050565b60006020820190506111b76000830184611193565b92915050565b600080fd5b6111cb81611189565b81146111d657600080fd5b50565b6000813590506111e8816111c2565b92915050565b600060208284031215611204576112036111bd565b5b6000611212848285016111d9565b91505092915050565b600073ffffffffffffffffffffffffffffffffffffffff82169050919050565b60006112468261121b565b9050919050565b6112568161123b565b82525050565b60006112678261121b565b9050919050565b6112778161125c565b82525050565b7f4e487b7100000000000000000000000000000000000000000000000000000000600052602160045260246000fd5b600381106112bd576112bc61127d565b5b50565b60008190506112ce826112ac565b919050565b60006112de826112c0565b9050919050565b6112ee816112d3565b82525050565b600060e082019050611309600083018a611193565b611316602083018961124d565b6113236040830188611193565b611330606083018761126e565b61133d6080830186611193565b61134a60a08301856112e5565b61135760c0830184611193565b98975050505050505050565b61136c81611189565b82525050565b61137b8161123b565b82525050565b61138a8161125c565b82525050565b611399816112d3565b82525050565b60e0820160008201516113b56000850182611363565b5060208201516113c86020850182611372565b5060408201516113db6040850182611363565b5060608201516113ee6060850182611381565b5060808201516114016080850182611363565b5060a082015161141460a0850182611390565b5060c082015161142760c0850182611363565b50505050565b600060e082019050611442600083018461139f565b92915050565b60006114538261125c565b9050919050565b61146381611448565b811461146e57600080fd5b50565b6000813590506114808161145a565b92915050565b60008060006060848603121561149f5761149e6111bd565b5b60006114ad86828701611471565b93505060206114be868287016111d9565b92505060406114cf868287016111d9565b9150509250925092565b60006020820190506114ee600083018461126e565b92915050565b600082825260208201905092915050565b7f6f6e6c792073656c6c65722063616e2063616e63656c206c697374696e670000600082015250565b600061153b601e836114f4565b915061154682611505565b602082019050919050565b6000602082019050818103600083015261156a8161152e565b9050919050565b7f63757272656e742073746174652073686f756c6420626520617661696c61626c60008201527f6500000000000000000000000000000000000000000000000000000000000000602082015250565b60006115cd6021836114f4565b91506115d882611571565b604082019050919050565b600060208201905081810360008301526115fc816115c0565b9050919050565b6000606082019050611618600083018661126e565b611625602083018561126e565b6116326040830184611193565b949350505050565b7f5265656e7472616e637947756172643a207265656e7472616e742063616c6c00600082015250565b6000611670601f836114f4565b915061167b8261163a565b602082019050919050565b6000602082019050818103600083015261169f81611663565b9050919050565b7f73656c6c65722063616e206e6f74206275790000000000000000000000000000600082015250565b60006116dc6012836114f4565b91506116e7826116a6565b602082019050919050565b6000602082019050818103600083015261170b816116cf565b9050919050565b7f746f6b656e206e6f7420617661696c61626c6500000000000000000000000000600082015250565b60006117486013836114f4565b915061175382611712565b602082019050919050565b600060208201905081810360008301526117778161173b565b9050919050565b7f696e73756666696369656e207061796d656e7400000000000000000000000000600082015250565b60006117b46013836114f4565b91506117bf8261177e565b602082019050919050565b600060208201905081810360008301526117e3816117a7565b9050919050565b7f4e487b7100000000000000000000000000000000000000000000000000000000600052601160045260246000fd5b600061182482611189565b915061182f83611189565b9250827fffffffffffffffffffffffffffffffffffffffffffffffffffffffffffffffff03821115611864576118636117ea565b5b828201905092915050565b60006080820190506118846000830187611193565b6118916020830186611193565b61189e6040830185611193565b6118ab6060830184611193565b95945050505050565b7f746f6b656e207072696365206c657373207468616e206d696e696d756d206c6960008201527f7374696e67207072696365000000000000000000000000000000000000000000602082015250565b6000611910602b836114f4565b915061191b826118b4565b604082019050919050565b6000602082019050818103600083015261193f81611903565b9050919050565b6000819050919050565b600061196b6119666119618461121b565b611946565b61121b565b9050919050565b600061197d82611950565b9050919050565b600061198f82611972565b9050919050565b61199f81611984565b82525050565b60006060820190506119ba6000830186611996565b6119c76020830185611193565b6119d46040830184611193565b949350505050565b60006040820190506119f16000830185611193565b6119fe6020830184611193565b9392505050565b611a0e8161125c565b8114611a1957600080fd5b50565b600081519050611a2b81611a05565b92915050565b600081519050611a40816111c2565b92915050565b60008060408385031215611a5d57611a5c6111bd565b5b6000611a6b85828601611a1c565b9250506020611a7c85828601611a31565b9150509250929050565b6000611a9182611189565b9150611a9c83611189565b925082821015611aaf57611aae6117ea565b5b828203905092915050565b6000611ac582611189565b9150611ad083611189565b9250817fffffffffffffffffffffffffffffffffffffffffffffffffffffffffffffffff0483118215151615611b0957611b086117ea565b5b828202905092915050565b7f4e487b7100000000000000000000000000000000000000000000000000000000600052601260045260246000fd5b6000611b4e82611189565b9150611b5983611189565b925082611b6957611b68611b14565b5b82820490509291505056fea26469706673582212201e7ba34a4054dc0582f571735a0cbed2f397db56fe8f0f1320cafb02fbd5f27864736f6c634300080d0033",
  "immutableReferences": {},
  "source": "// SPDX-License-Identifier: MIT\npragma solidity >=0.4.22 <0.9.0;\n\n\nimport \"../node_modules/@openzeppelin/contracts/interfaces/IERC721.sol\";\nimport \"../node_modules/@openzeppelin/contracts/security/ReentrancyGuard.sol\";\nimport \"../node_modules/@openzeppelin/contracts/utils/math/SafeMath.sol\";\nimport \"../node_modules/@openzeppelin/contracts/utils/Counters.sol\";\n\nimport \"../node_modules/@openzeppelin/contracts/token/common/ERC2981.sol\";\n\n\ncontract NftMarket is ReentrancyGuard{\n    \n    using SafeMath for uint ;\n    using Counters for Counters.Counter;\n\n    enum state{\n        avaialbale,\n        sold,\n        cancelled\n    }\n\n    struct nftItem{\n        uint itemId;\n        address payable seller;\n        uint tokenPrice;\n        address tokenAdress;\n        uint tokenId;\n        state stateNow;\n        uint listTime;\n    }\n    mapping(uint => nftItem) public nftItems;\n\n    Counters.Counter private idCounter;\n    uint public saleBasePrice;                 ///optional: can be removed\n    uint internal saleComissionPercent;\n    address public owner;\n    uint public discountTime;\n    uint public discountRate;    \n\n    constructor(uint _salePrice, uint _saleComissionPercent, uint _discountTime, uint _discountRate){\n\n        owner = msg.sender;\n        saleBasePrice = _salePrice;\n        saleComissionPercent= _saleComissionPercent;\n        discountTime = _discountTime;\n        discountRate = _discountRate;\n\n    }\n\n    event itemListed(\n        uint indexed itemID,\n        address seller,\n        uint price,\n        address indexed tokenAddress,\n        uint indexed tokenId,\n        uint listingTime\n     );\n     event itemSold(\n        uint itemId,\n        address indexed tokenAdress,\n        uint tokenId,\n        uint price,\n        uint commission,\n        address indexed buyer,\n        address indexed seller\n     );\n     event listingCancelled(\n         uint itemId,\n         address indexed seller\n     );\n\n    function listItem(IERC721 _tokenAddress, uint _tokenId, uint _price) external nonReentrant {\n\n        require(_price >= saleBasePrice, \"token price less than minimum listing price\");\n\n       ///@dev increased the counter to start id from 1\n        idCounter.increment();       \n        uint _itemID = idCounter.current();\n        \n        ///@dev transfered token to contract address\n        _tokenAddress.transferFrom(msg.sender, address(this), _tokenId);\n        \n        ///@dev added item details in mapping against ID\n        nftItems[_itemID] = nftItem(\n            _itemID,\n            payable(msg.sender),\n            _price,\n            address(_tokenAddress),\n            _tokenId,\n            state.avaialbale,\n            block.timestamp\n        ); \n\n    //event emitted for listing\n       emit itemListed(\n            _itemID,\n            payable(msg.sender),\n            _price,\n            address(_tokenAddress),\n            _tokenId,\n            block.timestamp\n            );\n    }\n\n    function buyListedToken(uint _itemId) external nonReentrant payable{\n        nftItem storage _nftItems = nftItems[_itemId];\n\n        require(msg.sender != _nftItems.seller , \"seller can not buy\");\n        require(_nftItems.stateNow == state.avaialbale, \"token not available\");\n        require(msg.value == _nftItems.tokenPrice, \"insufficien payment\");\n\n        uint _marketCommission;\n        uint _discountAmount; \n        uint _royalty;\n        uint _netSaleAmount;\n        address _nftCreator;\n        uint _amountAfterRoyalty;\n        uint _amountAfterDiscount;\n\n        if(block.timestamp <= (_nftItems.listTime + discountTime)){        \n\n            ///@dev calculate discount amount on payment and netamount after deductiing discount\n            (_discountAmount, _amountAfterDiscount) = _getValues(msg.value, discountRate);\n\n            ///@dev calculate the royalty of creator and amount after deducting royalty;\n            (_nftCreator,_royalty, _amountAfterRoyalty) = _getRoyalty(_itemId, _amountAfterDiscount); \n        }\n        else{\n\n             ///@dev calculate the royalty of creator and amount after deducting royalty;\n            (_nftCreator,_royalty, _amountAfterRoyalty) = _getRoyalty(_itemId, msg.value);  \n        }\n\n        ///dev calculate commision amount and net sale amount\n        (_marketCommission, _netSaleAmount) = _getValues(_amountAfterRoyalty, saleComissionPercent);\n\n        ///@dev transfer royality to nft creator;\n        payable(_nftCreator).transfer(_royalty);\n\n        ///@dev transfer discount amount to buyer\n        payable(msg.sender).transfer(_discountAmount);\n\n        ///@dev transfer net sale amount after discount and commission to seller\n        _nftItems.seller.transfer(_netSaleAmount);\n\n        ///@dev set current status of token to sold\n        _nftItems.stateNow = state.sold;\n\n        ///@dev token transfered to buyer account from contract address\n        IERC721(_nftItems.tokenAdress).transferFrom(address(this), msg.sender, _nftItems.tokenId);\n\n       emit itemSold(\n            _itemId,\n            address(_nftItems.tokenAdress),\n            _nftItems.tokenId,\n             _nftItems.tokenPrice,\n            _marketCommission,\n            msg.sender,\n            _nftItems.seller\n            );\n    }\n\n    function cancelListing(uint _itemId) external{\n\n        nftItem memory _nftItem = nftItems[_itemId];\n\n        require(msg.sender ==_nftItem.seller, \"only seller can cancel listing\");\n        require(_nftItem.stateNow == state.avaialbale, \"current state should be available\");\n\n        _nftItem.stateNow = state.cancelled;\n\n        ///@dev transfer token back to seller from market account\n        IERC721(_nftItem.tokenAdress).transferFrom(address(this), msg.sender, _itemId);\n\n        emit listingCancelled(_itemId, msg.sender); \n    }\n    \n\n    function getListedItem(uint _itemid) public view returns(nftItem memory){\n        return nftItems[_itemid];\n    }\n\n    function getPrice(uint _tokenId) public view returns (uint){\n        \n       return  nftItems[_tokenId].tokenPrice;\n    }\n\n    function _calculatePercent(uint _payment, uint _percent) internal pure returns(uint){\n        \n        uint _percentageAmount = (_payment.mul(_percent)).div(100);\n        return _percentageAmount;\n        \n    }\n    function _getValues(uint _value, uint _setPercentage) internal pure returns(uint, uint ){\n       \n        uint _percentageAmount = _calculatePercent(_value, _setPercentage);\n        uint _amountAfterPercentage = (_value).sub(_percentageAmount);\n\n        return (_percentageAmount, _amountAfterPercentage);\n    }\n\n    function _getRoyalty(uint _itemId, uint _amount) internal view returns(address,uint ,uint){\n\n        nftItem storage _nftItems = nftItems[_itemId];\n\n        (address _nftCreator, uint _royalty) = ERC2981(_nftItems.tokenAdress).royaltyInfo(_itemId,_amount);\n        uint _amountAfterRoyalty = _amount.sub(_royalty);\n\n        return(_nftCreator,_royalty, _amountAfterRoyalty );\n    } \n   \n\n}",
  "sourcePath": "/media/umar/2EB40689B406542D/Blockchain/MarketPlace/src/contracts/NftMarket.sol",
  "compiler": {
    "name": "solc",
    "version": "0.8.13+commit.abaa5c0e.Emscripten.clang"
  },
  "schemaVersion": "3.4.7",
  "updatedAt": "2022-06-03T05:18:26.732Z",
  "networkType": "ethereum",
  "devdoc": {
    "kind": "dev",
    "methods": {},
    "version": 1
  },
  "userdoc": {
    "kind": "user",
    "methods": {},
    "version": 1
  }
}