{
  "contractName": "royaltyToken721",
  "abi": [
    {
      "inputs": [
        {
          "internalType": "uint256",
          "name": "_maxSupply",
          "type": "uint256"
        },
        {
          "internalType": "string",
          "name": "_URI",
          "type": "string"
        },
        {
          "internalType": "uint256",
          "name": "_tokenPrice",
          "type": "uint256"
        },
        {
          "internalType": "uint96",
          "name": "_royaltyRate",
          "type": "uint96"
        }
      ],
      "stateMutability": "nonpayable",
      "type": "constructor"
    },
    {
      "anonymous": false,
      "inputs": [
        {
          "indexed": true,
          "internalType": "address",
          "name": "owner",
          "type": "address"
        },
        {
          "indexed": true,
          "internalType": "address",
          "name": "approved",
          "type": "address"
        },
        {
          "indexed": true,
          "internalType": "uint256",
          "name": "tokenId",
          "type": "uint256"
        }
      ],
      "name": "Approval",
      "type": "event"
    },
    {
      "anonymous": false,
      "inputs": [
        {
          "indexed": true,
          "internalType": "address",
          "name": "owner",
          "type": "address"
        },
        {
          "indexed": true,
          "internalType": "address",
          "name": "operator",
          "type": "address"
        },
        {
          "indexed": false,
          "internalType": "bool",
          "name": "approved",
          "type": "bool"
        }
      ],
      "name": "ApprovalForAll",
      "type": "event"
    },
    {
      "anonymous": false,
      "inputs": [
        {
          "indexed": true,
          "internalType": "address",
          "name": "previousOwner",
          "type": "address"
        },
        {
          "indexed": true,
          "internalType": "address",
          "name": "newOwner",
          "type": "address"
        }
      ],
      "name": "OwnershipTransferred",
      "type": "event"
    },
    {
      "anonymous": false,
      "inputs": [
        {
          "indexed": true,
          "internalType": "address",
          "name": "from",
          "type": "address"
        },
        {
          "indexed": true,
          "internalType": "address",
          "name": "to",
          "type": "address"
        },
        {
          "indexed": true,
          "internalType": "uint256",
          "name": "tokenId",
          "type": "uint256"
        }
      ],
      "name": "Transfer",
      "type": "event"
    },
    {
      "inputs": [
        {
          "internalType": "address",
          "name": "to",
          "type": "address"
        },
        {
          "internalType": "uint256",
          "name": "tokenId",
          "type": "uint256"
        }
      ],
      "name": "approve",
      "outputs": [],
      "stateMutability": "nonpayable",
      "type": "function"
    },
    {
      "inputs": [
        {
          "internalType": "address",
          "name": "owner",
          "type": "address"
        }
      ],
      "name": "balanceOf",
      "outputs": [
        {
          "internalType": "uint256",
          "name": "",
          "type": "uint256"
        }
      ],
      "stateMutability": "view",
      "type": "function",
      "constant": true
    },
    {
      "inputs": [
        {
          "internalType": "uint256",
          "name": "tokenId",
          "type": "uint256"
        }
      ],
      "name": "getApproved",
      "outputs": [
        {
          "internalType": "address",
          "name": "",
          "type": "address"
        }
      ],
      "stateMutability": "view",
      "type": "function",
      "constant": true
    },
    {
      "inputs": [
        {
          "internalType": "address",
          "name": "owner",
          "type": "address"
        },
        {
          "internalType": "address",
          "name": "operator",
          "type": "address"
        }
      ],
      "name": "isApprovedForAll",
      "outputs": [
        {
          "internalType": "bool",
          "name": "",
          "type": "bool"
        }
      ],
      "stateMutability": "view",
      "type": "function",
      "constant": true
    },
    {
      "inputs": [],
      "name": "maxSupply",
      "outputs": [
        {
          "internalType": "uint256",
          "name": "",
          "type": "uint256"
        }
      ],
      "stateMutability": "view",
      "type": "function",
      "constant": true
    },
    {
      "inputs": [],
      "name": "name",
      "outputs": [
        {
          "internalType": "string",
          "name": "",
          "type": "string"
        }
      ],
      "stateMutability": "view",
      "type": "function",
      "constant": true
    },
    {
      "inputs": [],
      "name": "owner",
      "outputs": [
        {
          "internalType": "address",
          "name": "",
          "type": "address"
        }
      ],
      "stateMutability": "view",
      "type": "function",
      "constant": true
    },
    {
      "inputs": [
        {
          "internalType": "uint256",
          "name": "tokenId",
          "type": "uint256"
        }
      ],
      "name": "ownerOf",
      "outputs": [
        {
          "internalType": "address",
          "name": "",
          "type": "address"
        }
      ],
      "stateMutability": "view",
      "type": "function",
      "constant": true
    },
    {
      "inputs": [],
      "name": "renounceOwnership",
      "outputs": [],
      "stateMutability": "nonpayable",
      "type": "function"
    },
    {
      "inputs": [
        {
          "internalType": "uint256",
          "name": "_tokenId",
          "type": "uint256"
        },
        {
          "internalType": "uint256",
          "name": "_salePrice",
          "type": "uint256"
        }
      ],
      "name": "royaltyInfo",
      "outputs": [
        {
          "internalType": "address",
          "name": "",
          "type": "address"
        },
        {
          "internalType": "uint256",
          "name": "",
          "type": "uint256"
        }
      ],
      "stateMutability": "view",
      "type": "function",
      "constant": true
    },
    {
      "inputs": [
        {
          "internalType": "address",
          "name": "from",
          "type": "address"
        },
        {
          "internalType": "address",
          "name": "to",
          "type": "address"
        },
        {
          "internalType": "uint256",
          "name": "tokenId",
          "type": "uint256"
        }
      ],
      "name": "safeTransferFrom",
      "outputs": [],
      "stateMutability": "nonpayable",
      "type": "function"
    },
    {
      "inputs": [
        {
          "internalType": "address",
          "name": "from",
          "type": "address"
        },
        {
          "internalType": "address",
          "name": "to",
          "type": "address"
        },
        {
          "internalType": "uint256",
          "name": "tokenId",
          "type": "uint256"
        },
        {
          "internalType": "bytes",
          "name": "_data",
          "type": "bytes"
        }
      ],
      "name": "safeTransferFrom",
      "outputs": [],
      "stateMutability": "nonpayable",
      "type": "function"
    },
    {
      "inputs": [
        {
          "internalType": "address",
          "name": "operator",
          "type": "address"
        },
        {
          "internalType": "bool",
          "name": "approved",
          "type": "bool"
        }
      ],
      "name": "setApprovalForAll",
      "outputs": [],
      "stateMutability": "nonpayable",
      "type": "function"
    },
    {
      "inputs": [],
      "name": "symbol",
      "outputs": [
        {
          "internalType": "string",
          "name": "",
          "type": "string"
        }
      ],
      "stateMutability": "view",
      "type": "function",
      "constant": true
    },
    {
      "inputs": [
        {
          "internalType": "uint256",
          "name": "tokenId",
          "type": "uint256"
        }
      ],
      "name": "tokenURI",
      "outputs": [
        {
          "internalType": "string",
          "name": "",
          "type": "string"
        }
      ],
      "stateMutability": "view",
      "type": "function",
      "constant": true
    },
    {
      "inputs": [
        {
          "internalType": "address",
          "name": "from",
          "type": "address"
        },
        {
          "internalType": "address",
          "name": "to",
          "type": "address"
        },
        {
          "internalType": "uint256",
          "name": "tokenId",
          "type": "uint256"
        }
      ],
      "name": "transferFrom",
      "outputs": [],
      "stateMutability": "nonpayable",
      "type": "function"
    },
    {
      "inputs": [
        {
          "internalType": "address",
          "name": "newOwner",
          "type": "address"
        }
      ],
      "name": "transferOwnership",
      "outputs": [],
      "stateMutability": "nonpayable",
      "type": "function"
    },
    {
      "inputs": [],
      "name": "mintToken",
      "outputs": [],
      "stateMutability": "payable",
      "type": "function",
      "payable": true
    },
    {
      "inputs": [
        {
          "internalType": "uint256",
          "name": "tokenId",
          "type": "uint256"
        },
        {
          "internalType": "address",
          "name": "royaltyReceiver",
          "type": "address"
        },
        {
          "internalType": "uint96",
          "name": "royaltyPercentage",
          "type": "uint96"
        }
      ],
      "name": "setTokenRoyalty",
      "outputs": [],
      "stateMutability": "nonpayable",
      "type": "function"
    },
    {
      "inputs": [
        {
          "internalType": "bytes4",
          "name": "interfaceId",
          "type": "bytes4"
        }
      ],
      "name": "supportsInterface",
      "outputs": [
        {
          "internalType": "bool",
          "name": "",
          "type": "bool"
        }
      ],
      "stateMutability": "view",
      "type": "function",
      "constant": true
    }
  ],
  "bytecode": "0x60806040523480156200001157600080fd5b50604051620041c6380380620041c68339818101604052810190620000379190620005a3565b6040518060400160405280601081526020017f726f79616c697479546f6b656e373231000000000000000000000000000000008152506040518060400160405280600481526020017f52543231000000000000000000000000000000000000000000000000000000008152508160009080519060200190620000bb929190620002d2565b508060019080519060200190620000d4929190620002d2565b505050620000f7620000eb620001da60201b60201c565b620001e260201b60201c565b600073ffffffffffffffffffffffffffffffffffffffff166200011f620002a860201b60201c565b73ffffffffffffffffffffffffffffffffffffffff160362000178576040517f08c379a00000000000000000000000000000000000000000000000000000000081526004016200016f9062000695565b60405180910390fd5b83600b8190555082600c908051906020019062000197929190620002d2565b5081600d8190555080600e60006101000a8154816bffffffffffffffffffffffff02191690836bffffffffffffffffffffffff160217905550505050506200071b565b600033905090565b6000600960009054906101000a900473ffffffffffffffffffffffffffffffffffffffff16905081600960006101000a81548173ffffffffffffffffffffffffffffffffffffffff021916908373ffffffffffffffffffffffffffffffffffffffff1602179055508173ffffffffffffffffffffffffffffffffffffffff168173ffffffffffffffffffffffffffffffffffffffff167f8be0079c531659141344cd1fd0a4f28419497f9722a3daafe3b4186f6b6457e060405160405180910390a35050565b6000600960009054906101000a900473ffffffffffffffffffffffffffffffffffffffff16905090565b828054620002e090620006e6565b90600052602060002090601f01602090048101928262000304576000855562000350565b82601f106200031f57805160ff191683800117855562000350565b8280016001018555821562000350579182015b828111156200034f57825182559160200191906001019062000332565b5b5090506200035f919062000363565b5090565b5b808211156200037e57600081600090555060010162000364565b5090565b6000604051905090565b600080fd5b600080fd5b6000819050919050565b620003ab8162000396565b8114620003b757600080fd5b50565b600081519050620003cb81620003a0565b92915050565b600080fd5b600080fd5b6000601f19601f8301169050919050565b7f4e487b7100000000000000000000000000000000000000000000000000000000600052604160045260246000fd5b6200042682620003db565b810181811067ffffffffffffffff82111715620004485762000447620003ec565b5b80604052505050565b60006200045d62000382565b90506200046b82826200041b565b919050565b600067ffffffffffffffff8211156200048e576200048d620003ec565b5b6200049982620003db565b9050602081019050919050565b60005b83811015620004c6578082015181840152602081019050620004a9565b83811115620004d6576000848401525b50505050565b6000620004f3620004ed8462000470565b62000451565b905082815260208101848484011115620005125762000511620003d6565b5b6200051f848285620004a6565b509392505050565b600082601f8301126200053f576200053e620003d1565b5b815162000551848260208601620004dc565b91505092915050565b60006bffffffffffffffffffffffff82169050919050565b6200057d816200055a565b81146200058957600080fd5b50565b6000815190506200059d8162000572565b92915050565b60008060008060808587031215620005c057620005bf6200038c565b5b6000620005d087828801620003ba565b945050602085015167ffffffffffffffff811115620005f457620005f362000391565b5b620006028782880162000527565b93505060406200061587828801620003ba565b925050606062000628878288016200058c565b91505092959194509250565b600082825260208201905092915050565b7f6f776e65722063616e6e6f742062652061646472657373283029000000000000600082015250565b60006200067d601a8362000634565b91506200068a8262000645565b602082019050919050565b60006020820190508181036000830152620006b0816200066e565b9050919050565b7f4e487b7100000000000000000000000000000000000000000000000000000000600052602260045260246000fd5b60006002820490506001821680620006ff57607f821691505b602082108103620007155762000714620006b7565b5b50919050565b613a9b806200072b6000396000f3fe60806040526004361061011f5760003560e01c806370a08231116100a0578063b88d4fde11610064578063b88d4fde146103c5578063c87b56dd146103ee578063d5abeb011461042b578063e985e9c514610456578063f2fde38b146104935761011f565b806370a08231146102f2578063715018a61461032f5780638da5cb5b1461034657806395d89b4114610371578063a22cb4651461039c5761011f565b806323b872dd116100e757806323b872dd146101fc5780632a55205a1461022557806342842e0e146102635780635944c7531461028c5780636352211e146102b55761011f565b806301ffc9a71461012457806306fdde0314610161578063081812fc1461018c578063095ea7b3146101c95780632004ffd9146101f2575b600080fd5b34801561013057600080fd5b5061014b600480360381019061014691906123f6565b6104bc565b604051610158919061243e565b60405180910390f35b34801561016d57600080fd5b506101766104ce565b60405161018391906124f2565b60405180910390f35b34801561019857600080fd5b506101b360048036038101906101ae919061254a565b610560565b6040516101c091906125b8565b60405180910390f35b3480156101d557600080fd5b506101f060048036038101906101eb91906125ff565b6105e5565b005b6101fa6106fc565b005b34801561020857600080fd5b50610223600480360381019061021e919061263f565b610922565b005b34801561023157600080fd5b5061024c60048036038101906102479190612692565b610982565b60405161025a9291906126e1565b60405180910390f35b34801561026f57600080fd5b5061028a6004803603810190610285919061263f565b610b6c565b005b34801561029857600080fd5b506102b360048036038101906102ae919061274e565b610b8c565b005b3480156102c157600080fd5b506102dc60048036038101906102d7919061254a565b610c18565b6040516102e991906125b8565b60405180910390f35b3480156102fe57600080fd5b50610319600480360381019061031491906127a1565b610cc9565b60405161032691906127ce565b60405180910390f35b34801561033b57600080fd5b50610344610d80565b005b34801561035257600080fd5b5061035b610e08565b60405161036891906125b8565b60405180910390f35b34801561037d57600080fd5b50610386610e32565b60405161039391906124f2565b60405180910390f35b3480156103a857600080fd5b506103c360048036038101906103be9190612815565b610ec4565b005b3480156103d157600080fd5b506103ec60048036038101906103e7919061298a565b610eda565b005b3480156103fa57600080fd5b506104156004803603810190610410919061254a565b610f3c565b60405161042291906124f2565b60405180910390f35b34801561043757600080fd5b5061044061108d565b60405161044d91906127ce565b60405180910390f35b34801561046257600080fd5b5061047d60048036038101906104789190612a0d565b611093565b60405161048a919061243e565b60405180910390f35b34801561049f57600080fd5b506104ba60048036038101906104b591906127a1565b611127565b005b60006104c78261121e565b9050919050565b6060600080546104dd90612a7c565b80601f016020809104026020016040519081016040528092919081815260200182805461050990612a7c565b80156105565780601f1061052b57610100808354040283529160200191610556565b820191906000526020600020905b81548152906001019060200180831161053957829003601f168201915b5050505050905090565b600061056b82611298565b6105aa576040517f08c379a00000000000000000000000000000000000000000000000000000000081526004016105a190612b1f565b60405180910390fd5b6004600083815260200190815260200160002060009054906101000a900473ffffffffffffffffffffffffffffffffffffffff169050919050565b60006105f082610c18565b90508073ffffffffffffffffffffffffffffffffffffffff168373ffffffffffffffffffffffffffffffffffffffff1603610660576040517f08c379a000000000000000000000000000000000000000000000000000000000815260040161065790612bb1565b60405180910390fd5b8073ffffffffffffffffffffffffffffffffffffffff1661067f611304565b73ffffffffffffffffffffffffffffffffffffffff1614806106ae57506106ad816106a8611304565b611093565b5b6106ed576040517f08c379a00000000000000000000000000000000000000000000000000000000081526004016106e490612c43565b60405180910390fd5b6106f7838361130c565b505050565b600073ffffffffffffffffffffffffffffffffffffffff163373ffffffffffffffffffffffffffffffffffffffff160361076b576040517f08c379a000000000000000000000000000000000000000000000000000000000815260040161076290612caf565b60405180910390fd5b600d5434146107af576040517f08c379a00000000000000000000000000000000000000000000000000000000081526004016107a690612d1b565b60405180910390fd5b6107b9600a6113c5565b60006107c5600a6113db565b90506107d081611298565b15610810576040517f08c379a000000000000000000000000000000000000000000000000000000000815260040161080790612d87565b60405180910390fd5b600b54811115610855576040517f08c379a000000000000000000000000000000000000000000000000000000000815260040161084c90612df3565b60405180910390fd5b61085f33826113e9565b6108f381600c805461087090612a7c565b80601f016020809104026020016040519081016040528092919081815260200182805461089c90612a7c565b80156108e95780601f106108be576101008083540402835291602001916108e9565b820191906000526020600020905b8154815290600101906020018083116108cc57829003601f168201915b50505050506115c2565b61091f816108ff610e08565b600e60009054906101000a90046bffffffffffffffffffffffff16611636565b50565b61093361092d611304565b826117dd565b610972576040517f08c379a000000000000000000000000000000000000000000000000000000000815260040161096990612e85565b60405180910390fd5b61097d8383836118bb565b505050565b6000806000600860008681526020019081526020016000206040518060400160405290816000820160009054906101000a900473ffffffffffffffffffffffffffffffffffffffff1673ffffffffffffffffffffffffffffffffffffffff1673ffffffffffffffffffffffffffffffffffffffff1681526020016000820160149054906101000a90046bffffffffffffffffffffffff166bffffffffffffffffffffffff166bffffffffffffffffffffffff16815250509050600073ffffffffffffffffffffffffffffffffffffffff16816000015173ffffffffffffffffffffffffffffffffffffffff1603610b175760076040518060400160405290816000820160009054906101000a900473ffffffffffffffffffffffffffffffffffffffff1673ffffffffffffffffffffffffffffffffffffffff1673ffffffffffffffffffffffffffffffffffffffff1681526020016000820160149054906101000a90046bffffffffffffffffffffffff166bffffffffffffffffffffffff166bffffffffffffffffffffffff168152505090505b6000610b21611b21565b6bffffffffffffffffffffffff1682602001516bffffffffffffffffffffffff1686610b4d9190612ed4565b610b579190612f5d565b90508160000151819350935050509250929050565b610b8783838360405180602001604052806000815250610eda565b505050565b610b94611304565b73ffffffffffffffffffffffffffffffffffffffff16610bb2610e08565b73ffffffffffffffffffffffffffffffffffffffff1614610c08576040517f08c379a0000000000000000000000000000000000000000000000000000000008152600401610bff90612fda565b60405180910390fd5b610c13838383611636565b505050565b6000806002600084815260200190815260200160002060009054906101000a900473ffffffffffffffffffffffffffffffffffffffff169050600073ffffffffffffffffffffffffffffffffffffffff168173ffffffffffffffffffffffffffffffffffffffff1603610cc0576040517f08c379a0000000000000000000000000000000000000000000000000000000008152600401610cb79061306c565b60405180910390fd5b80915050919050565b60008073ffffffffffffffffffffffffffffffffffffffff168273ffffffffffffffffffffffffffffffffffffffff1603610d39576040517f08c379a0000000000000000000000000000000000000000000000000000000008152600401610d30906130fe565b60405180910390fd5b600360008373ffffffffffffffffffffffffffffffffffffffff1673ffffffffffffffffffffffffffffffffffffffff168152602001908152602001600020549050919050565b610d88611304565b73ffffffffffffffffffffffffffffffffffffffff16610da6610e08565b73ffffffffffffffffffffffffffffffffffffffff1614610dfc576040517f08c379a0000000000000000000000000000000000000000000000000000000008152600401610df390612fda565b60405180910390fd5b610e066000611b2b565b565b6000600960009054906101000a900473ffffffffffffffffffffffffffffffffffffffff16905090565b606060018054610e4190612a7c565b80601f0160208091040260200160405190810160405280929190818152602001828054610e6d90612a7c565b8015610eba5780601f10610e8f57610100808354040283529160200191610eba565b820191906000526020600020905b815481529060010190602001808311610e9d57829003601f168201915b5050505050905090565b610ed6610ecf611304565b8383611bf1565b5050565b610eeb610ee5611304565b836117dd565b610f2a576040517f08c379a0000000000000000000000000000000000000000000000000000000008152600401610f2190612e85565b60405180910390fd5b610f3684848484611d5d565b50505050565b6060610f4782611298565b610f86576040517f08c379a0000000000000000000000000000000000000000000000000000000008152600401610f7d90613190565b60405180910390fd5b6000600660008481526020019081526020016000208054610fa690612a7c565b80601f0160208091040260200160405190810160405280929190818152602001828054610fd290612a7c565b801561101f5780601f10610ff45761010080835404028352916020019161101f565b820191906000526020600020905b81548152906001019060200180831161100257829003601f168201915b505050505090506000611030611db9565b90506000815103611045578192505050611088565b60008251111561107a5780826040516020016110629291906131ec565b60405160208183030381529060405292505050611088565b61108384611dd0565b925050505b919050565b600b5481565b6000600560008473ffffffffffffffffffffffffffffffffffffffff1673ffffffffffffffffffffffffffffffffffffffff16815260200190815260200160002060008373ffffffffffffffffffffffffffffffffffffffff1673ffffffffffffffffffffffffffffffffffffffff16815260200190815260200160002060009054906101000a900460ff16905092915050565b61112f611304565b73ffffffffffffffffffffffffffffffffffffffff1661114d610e08565b73ffffffffffffffffffffffffffffffffffffffff16146111a3576040517f08c379a000000000000000000000000000000000000000000000000000000000815260040161119a90612fda565b60405180910390fd5b600073ffffffffffffffffffffffffffffffffffffffff168173ffffffffffffffffffffffffffffffffffffffff1603611212576040517f08c379a000000000000000000000000000000000000000000000000000000000815260040161120990613282565b60405180910390fd5b61121b81611b2b565b50565b60007f2a55205a000000000000000000000000000000000000000000000000000000007bffffffffffffffffffffffffffffffffffffffffffffffffffffffff1916827bffffffffffffffffffffffffffffffffffffffffffffffffffffffff19161480611291575061129082611e77565b5b9050919050565b60008073ffffffffffffffffffffffffffffffffffffffff166002600084815260200190815260200160002060009054906101000a900473ffffffffffffffffffffffffffffffffffffffff1673ffffffffffffffffffffffffffffffffffffffff1614159050919050565b600033905090565b816004600083815260200190815260200160002060006101000a81548173ffffffffffffffffffffffffffffffffffffffff021916908373ffffffffffffffffffffffffffffffffffffffff160217905550808273ffffffffffffffffffffffffffffffffffffffff1661137f83610c18565b73ffffffffffffffffffffffffffffffffffffffff167f8c5be1e5ebec7d5bd14f71427d1e84f3dd0314c0f7b2291e5b200ac8c7c3b92560405160405180910390a45050565b6001816000016000828254019250508190555050565b600081600001549050919050565b600073ffffffffffffffffffffffffffffffffffffffff168273ffffffffffffffffffffffffffffffffffffffff1603611458576040517f08c379a000000000000000000000000000000000000000000000000000000000815260040161144f906132ee565b60405180910390fd5b61146181611298565b156114a1576040517f08c379a00000000000000000000000000000000000000000000000000000000081526004016114989061335a565b60405180910390fd5b6114ad60008383611f59565b6001600360008473ffffffffffffffffffffffffffffffffffffffff1673ffffffffffffffffffffffffffffffffffffffff16815260200190815260200160002060008282546114fd919061337a565b92505081905550816002600083815260200190815260200160002060006101000a81548173ffffffffffffffffffffffffffffffffffffffff021916908373ffffffffffffffffffffffffffffffffffffffff160217905550808273ffffffffffffffffffffffffffffffffffffffff16600073ffffffffffffffffffffffffffffffffffffffff167fddf252ad1be2c89b69c2b068fc378daa952ba7f163c4a11628f55a4df523b3ef60405160405180910390a46115be60008383611f69565b5050565b6115cb82611298565b61160a576040517f08c379a000000000000000000000000000000000000000000000000000000000815260040161160190613442565b60405180910390fd5b806006600084815260200190815260200160002090805190602001906116319291906122e7565b505050565b61163e611b21565b6bffffffffffffffffffffffff16816bffffffffffffffffffffffff16111561169c576040517f08c379a0000000000000000000000000000000000000000000000000000000008152600401611693906134d4565b60405180910390fd5b600073ffffffffffffffffffffffffffffffffffffffff168273ffffffffffffffffffffffffffffffffffffffff160361170b576040517f08c379a000000000000000000000000000000000000000000000000000000000815260040161170290613540565b60405180910390fd5b60405180604001604052808373ffffffffffffffffffffffffffffffffffffffff168152602001826bffffffffffffffffffffffff168152506008600085815260200190815260200160002060008201518160000160006101000a81548173ffffffffffffffffffffffffffffffffffffffff021916908373ffffffffffffffffffffffffffffffffffffffff16021790555060208201518160000160146101000a8154816bffffffffffffffffffffffff02191690836bffffffffffffffffffffffff160217905550905050505050565b60006117e882611298565b611827576040517f08c379a000000000000000000000000000000000000000000000000000000000815260040161181e906135d2565b60405180910390fd5b600061183283610c18565b90508073ffffffffffffffffffffffffffffffffffffffff168473ffffffffffffffffffffffffffffffffffffffff16148061187457506118738185611093565b5b806118b257508373ffffffffffffffffffffffffffffffffffffffff1661189a84610560565b73ffffffffffffffffffffffffffffffffffffffff16145b91505092915050565b8273ffffffffffffffffffffffffffffffffffffffff166118db82610c18565b73ffffffffffffffffffffffffffffffffffffffff1614611931576040517f08c379a000000000000000000000000000000000000000000000000000000000815260040161192890613664565b60405180910390fd5b600073ffffffffffffffffffffffffffffffffffffffff168273ffffffffffffffffffffffffffffffffffffffff16036119a0576040517f08c379a0000000000000000000000000000000000000000000000000000000008152600401611997906136f6565b60405180910390fd5b6119ab838383611f59565b6119b660008261130c565b6001600360008573ffffffffffffffffffffffffffffffffffffffff1673ffffffffffffffffffffffffffffffffffffffff1681526020019081526020016000206000828254611a069190613716565b925050819055506001600360008473ffffffffffffffffffffffffffffffffffffffff1673ffffffffffffffffffffffffffffffffffffffff1681526020019081526020016000206000828254611a5d919061337a565b92505081905550816002600083815260200190815260200160002060006101000a81548173ffffffffffffffffffffffffffffffffffffffff021916908373ffffffffffffffffffffffffffffffffffffffff160217905550808273ffffffffffffffffffffffffffffffffffffffff168473ffffffffffffffffffffffffffffffffffffffff167fddf252ad1be2c89b69c2b068fc378daa952ba7f163c4a11628f55a4df523b3ef60405160405180910390a4611b1c838383611f69565b505050565b6000612710905090565b6000600960009054906101000a900473ffffffffffffffffffffffffffffffffffffffff16905081600960006101000a81548173ffffffffffffffffffffffffffffffffffffffff021916908373ffffffffffffffffffffffffffffffffffffffff1602179055508173ffffffffffffffffffffffffffffffffffffffff168173ffffffffffffffffffffffffffffffffffffffff167f8be0079c531659141344cd1fd0a4f28419497f9722a3daafe3b4186f6b6457e060405160405180910390a35050565b8173ffffffffffffffffffffffffffffffffffffffff168373ffffffffffffffffffffffffffffffffffffffff1603611c5f576040517f08c379a0000000000000000000000000000000000000000000000000000000008152600401611c5690613796565b60405180910390fd5b80600560008573ffffffffffffffffffffffffffffffffffffffff1673ffffffffffffffffffffffffffffffffffffffff16815260200190815260200160002060008473ffffffffffffffffffffffffffffffffffffffff1673ffffffffffffffffffffffffffffffffffffffff16815260200190815260200160002060006101000a81548160ff0219169083151502179055508173ffffffffffffffffffffffffffffffffffffffff168373ffffffffffffffffffffffffffffffffffffffff167f17307eab39ab6107e8899845ad3d59bd9653f200f220920489ca2b5937696c3183604051611d50919061243e565b60405180910390a3505050565b611d688484846118bb565b611d7484848484611f6e565b611db3576040517f08c379a0000000000000000000000000000000000000000000000000000000008152600401611daa90613828565b60405180910390fd5b50505050565b606060405180602001604052806000815250905090565b6060611ddb82611298565b611e1a576040517f08c379a0000000000000000000000000000000000000000000000000000000008152600401611e11906138ba565b60405180910390fd5b6000611e24611db9565b90506000815111611e445760405180602001604052806000815250611e6f565b80611e4e846120f5565b604051602001611e5f9291906131ec565b6040516020818303038152906040525b915050919050565b60007f80ac58cd000000000000000000000000000000000000000000000000000000007bffffffffffffffffffffffffffffffffffffffffffffffffffffffff1916827bffffffffffffffffffffffffffffffffffffffffffffffffffffffff19161480611f4257507f5b5e139f000000000000000000000000000000000000000000000000000000007bffffffffffffffffffffffffffffffffffffffffffffffffffffffff1916827bffffffffffffffffffffffffffffffffffffffffffffffffffffffff1916145b80611f525750611f5182612255565b5b9050919050565b611f648383836122bf565b505050565b505050565b6000611f8f8473ffffffffffffffffffffffffffffffffffffffff166122c4565b156120e8578373ffffffffffffffffffffffffffffffffffffffff1663150b7a02611fb8611304565b8786866040518563ffffffff1660e01b8152600401611fda949392919061392f565b6020604051808303816000875af192505050801561201657506040513d601f19601f820116820180604052508101906120139190613990565b60015b612098573d8060008114612046576040519150601f19603f3d011682016040523d82523d6000602084013e61204b565b606091505b506000815103612090576040517f08c379a000000000000000000000000000000000000000000000000000000000815260040161208790613828565b60405180910390fd5b805181602001fd5b63150b7a0260e01b7bffffffffffffffffffffffffffffffffffffffffffffffffffffffff1916817bffffffffffffffffffffffffffffffffffffffffffffffffffffffff1916149150506120ed565b600190505b949350505050565b60606000820361213c576040518060400160405280600181526020017f30000000000000000000000000000000000000000000000000000000000000008152509050612250565b600082905060005b6000821461216e578080612157906139bd565b915050600a826121679190612f5d565b9150612144565b60008167ffffffffffffffff81111561218a5761218961285f565b5b6040519080825280601f01601f1916602001820160405280156121bc5781602001600182028036833780820191505090505b5090505b60008514612249576001826121d59190613716565b9150600a856121e49190613a05565b60306121f0919061337a565b60f81b81838151811061220657612205613a36565b5b60200101907effffffffffffffffffffffffffffffffffffffffffffffffffffffffffffff1916908160001a905350600a856122429190612f5d565b94506121c0565b8093505050505b919050565b60007f01ffc9a7000000000000000000000000000000000000000000000000000000007bffffffffffffffffffffffffffffffffffffffffffffffffffffffff1916827bffffffffffffffffffffffffffffffffffffffffffffffffffffffff1916149050919050565b505050565b6000808273ffffffffffffffffffffffffffffffffffffffff163b119050919050565b8280546122f390612a7c565b90600052602060002090601f016020900481019282612315576000855561235c565b82601f1061232e57805160ff191683800117855561235c565b8280016001018555821561235c579182015b8281111561235b578251825591602001919060010190612340565b5b509050612369919061236d565b5090565b5b8082111561238657600081600090555060010161236e565b5090565b6000604051905090565b600080fd5b600080fd5b60007fffffffff0000000000000000000000000000000000000000000000000000000082169050919050565b6123d38161239e565b81146123de57600080fd5b50565b6000813590506123f0816123ca565b92915050565b60006020828403121561240c5761240b612394565b5b600061241a848285016123e1565b91505092915050565b60008115159050919050565b61243881612423565b82525050565b6000602082019050612453600083018461242f565b92915050565b600081519050919050565b600082825260208201905092915050565b60005b83811015612493578082015181840152602081019050612478565b838111156124a2576000848401525b50505050565b6000601f19601f8301169050919050565b60006124c482612459565b6124ce8185612464565b93506124de818560208601612475565b6124e7816124a8565b840191505092915050565b6000602082019050818103600083015261250c81846124b9565b905092915050565b6000819050919050565b61252781612514565b811461253257600080fd5b50565b6000813590506125448161251e565b92915050565b6000602082840312156125605761255f612394565b5b600061256e84828501612535565b91505092915050565b600073ffffffffffffffffffffffffffffffffffffffff82169050919050565b60006125a282612577565b9050919050565b6125b281612597565b82525050565b60006020820190506125cd60008301846125a9565b92915050565b6125dc81612597565b81146125e757600080fd5b50565b6000813590506125f9816125d3565b92915050565b6000806040838503121561261657612615612394565b5b6000612624858286016125ea565b925050602061263585828601612535565b9150509250929050565b60008060006060848603121561265857612657612394565b5b6000612666868287016125ea565b9350506020612677868287016125ea565b925050604061268886828701612535565b9150509250925092565b600080604083850312156126a9576126a8612394565b5b60006126b785828601612535565b92505060206126c885828601612535565b9150509250929050565b6126db81612514565b82525050565b60006040820190506126f660008301856125a9565b61270360208301846126d2565b9392505050565b60006bffffffffffffffffffffffff82169050919050565b61272b8161270a565b811461273657600080fd5b50565b60008135905061274881612722565b92915050565b60008060006060848603121561276757612766612394565b5b600061277586828701612535565b9350506020612786868287016125ea565b925050604061279786828701612739565b9150509250925092565b6000602082840312156127b7576127b6612394565b5b60006127c5848285016125ea565b91505092915050565b60006020820190506127e360008301846126d2565b92915050565b6127f281612423565b81146127fd57600080fd5b50565b60008135905061280f816127e9565b92915050565b6000806040838503121561282c5761282b612394565b5b600061283a858286016125ea565b925050602061284b85828601612800565b9150509250929050565b600080fd5b600080fd5b7f4e487b7100000000000000000000000000000000000000000000000000000000600052604160045260246000fd5b612897826124a8565b810181811067ffffffffffffffff821117156128b6576128b561285f565b5b80604052505050565b60006128c961238a565b90506128d5828261288e565b919050565b600067ffffffffffffffff8211156128f5576128f461285f565b5b6128fe826124a8565b9050602081019050919050565b82818337600083830152505050565b600061292d612928846128da565b6128bf565b9050828152602081018484840111156129495761294861285a565b5b61295484828561290b565b509392505050565b600082601f83011261297157612970612855565b5b813561298184826020860161291a565b91505092915050565b600080600080608085870312156129a4576129a3612394565b5b60006129b2878288016125ea565b94505060206129c3878288016125ea565b93505060406129d487828801612535565b925050606085013567ffffffffffffffff8111156129f5576129f4612399565b5b612a018782880161295c565b91505092959194509250565b60008060408385031215612a2457612a23612394565b5b6000612a32858286016125ea565b9250506020612a43858286016125ea565b9150509250929050565b7f4e487b7100000000000000000000000000000000000000000000000000000000600052602260045260246000fd5b60006002820490506001821680612a9457607f821691505b602082108103612aa757612aa6612a4d565b5b50919050565b7f4552433732313a20617070726f76656420717565727920666f72206e6f6e657860008201527f697374656e7420746f6b656e0000000000000000000000000000000000000000602082015250565b6000612b09602c83612464565b9150612b1482612aad565b604082019050919050565b60006020820190508181036000830152612b3881612afc565b9050919050565b7f4552433732313a20617070726f76616c20746f2063757272656e74206f776e6560008201527f7200000000000000000000000000000000000000000000000000000000000000602082015250565b6000612b9b602183612464565b9150612ba682612b3f565b604082019050919050565b60006020820190508181036000830152612bca81612b8e565b9050919050565b7f4552433732313a20617070726f76652063616c6c6572206973206e6f74206f7760008201527f6e6572206e6f7220617070726f76656420666f7220616c6c0000000000000000602082015250565b6000612c2d603883612464565b9150612c3882612bd1565b604082019050919050565b60006020820190508181036000830152612c5c81612c20565b9050919050565b7f496e76616c696420616464726573732830290000000000000000000000000000600082015250565b6000612c99601283612464565b9150612ca482612c63565b602082019050919050565b60006020820190508181036000830152612cc881612c8c565b9050919050565b7f7061796d656e74206e6f7420657175616c20746f20746f6b656e207072696365600082015250565b6000612d05602083612464565b9150612d1082612ccf565b602082019050919050565b60006020820190508181036000830152612d3481612cf8565b9050919050565b7f546f6b656e20616c7265616479206d696e746564000000000000000000000000600082015250565b6000612d71601483612464565b9150612d7c82612d3b565b602082019050919050565b60006020820190508181036000830152612da081612d64565b9050919050565b7f6d6178696d756d20537570706c79206c696d6974207265616368656400000000600082015250565b6000612ddd601c83612464565b9150612de882612da7565b602082019050919050565b60006020820190508181036000830152612e0c81612dd0565b9050919050565b7f4552433732313a207472616e736665722063616c6c6572206973206e6f74206f60008201527f776e6572206e6f7220617070726f766564000000000000000000000000000000602082015250565b6000612e6f603183612464565b9150612e7a82612e13565b604082019050919050565b60006020820190508181036000830152612e9e81612e62565b9050919050565b7f4e487b7100000000000000000000000000000000000000000000000000000000600052601160045260246000fd5b6000612edf82612514565b9150612eea83612514565b9250817fffffffffffffffffffffffffffffffffffffffffffffffffffffffffffffffff0483118215151615612f2357612f22612ea5565b5b828202905092915050565b7f4e487b7100000000000000000000000000000000000000000000000000000000600052601260045260246000fd5b6000612f6882612514565b9150612f7383612514565b925082612f8357612f82612f2e565b5b828204905092915050565b7f4f776e61626c653a2063616c6c6572206973206e6f7420746865206f776e6572600082015250565b6000612fc4602083612464565b9150612fcf82612f8e565b602082019050919050565b60006020820190508181036000830152612ff381612fb7565b9050919050565b7f4552433732313a206f776e657220717565727920666f72206e6f6e657869737460008201527f656e7420746f6b656e0000000000000000000000000000000000000000000000602082015250565b6000613056602983612464565b915061306182612ffa565b604082019050919050565b6000602082019050818103600083015261308581613049565b9050919050565b7f4552433732313a2062616c616e636520717565727920666f7220746865207a6560008201527f726f206164647265737300000000000000000000000000000000000000000000602082015250565b60006130e8602a83612464565b91506130f38261308c565b604082019050919050565b60006020820190508181036000830152613117816130db565b9050919050565b7f45524337323155524953746f726167653a2055524920717565727920666f722060008201527f6e6f6e6578697374656e7420746f6b656e000000000000000000000000000000602082015250565b600061317a603183612464565b91506131858261311e565b604082019050919050565b600060208201905081810360008301526131a98161316d565b9050919050565b600081905092915050565b60006131c682612459565b6131d081856131b0565b93506131e0818560208601612475565b80840191505092915050565b60006131f882856131bb565b915061320482846131bb565b91508190509392505050565b7f4f776e61626c653a206e6577206f776e657220697320746865207a65726f206160008201527f6464726573730000000000000000000000000000000000000000000000000000602082015250565b600061326c602683612464565b915061327782613210565b604082019050919050565b6000602082019050818103600083015261329b8161325f565b9050919050565b7f4552433732313a206d696e7420746f20746865207a65726f2061646472657373600082015250565b60006132d8602083612464565b91506132e3826132a2565b602082019050919050565b60006020820190508181036000830152613307816132cb565b9050919050565b7f4552433732313a20746f6b656e20616c7265616479206d696e74656400000000600082015250565b6000613344601c83612464565b915061334f8261330e565b602082019050919050565b6000602082019050818103600083015261337381613337565b9050919050565b600061338582612514565b915061339083612514565b9250827fffffffffffffffffffffffffffffffffffffffffffffffffffffffffffffffff038211156133c5576133c4612ea5565b5b828201905092915050565b7f45524337323155524953746f726167653a2055524920736574206f66206e6f6e60008201527f6578697374656e7420746f6b656e000000000000000000000000000000000000602082015250565b600061342c602e83612464565b9150613437826133d0565b604082019050919050565b6000602082019050818103600083015261345b8161341f565b9050919050565b7f455243323938313a20726f79616c7479206665652077696c6c2065786365656460008201527f2073616c65507269636500000000000000000000000000000000000000000000602082015250565b60006134be602a83612464565b91506134c982613462565b604082019050919050565b600060208201905081810360008301526134ed816134b1565b9050919050565b7f455243323938313a20496e76616c696420706172616d65746572730000000000600082015250565b600061352a601b83612464565b9150613535826134f4565b602082019050919050565b600060208201905081810360008301526135598161351d565b9050919050565b7f4552433732313a206f70657261746f7220717565727920666f72206e6f6e657860008201527f697374656e7420746f6b656e0000000000000000000000000000000000000000602082015250565b60006135bc602c83612464565b91506135c782613560565b604082019050919050565b600060208201905081810360008301526135eb816135af565b9050919050565b7f4552433732313a207472616e736665722066726f6d20696e636f72726563742060008201527f6f776e6572000000000000000000000000000000000000000000000000000000602082015250565b600061364e602583612464565b9150613659826135f2565b604082019050919050565b6000602082019050818103600083015261367d81613641565b9050919050565b7f4552433732313a207472616e7366657220746f20746865207a65726f2061646460008201527f7265737300000000000000000000000000000000000000000000000000000000602082015250565b60006136e0602483612464565b91506136eb82613684565b604082019050919050565b6000602082019050818103600083015261370f816136d3565b9050919050565b600061372182612514565b915061372c83612514565b92508282101561373f5761373e612ea5565b5b828203905092915050565b7f4552433732313a20617070726f766520746f2063616c6c657200000000000000600082015250565b6000613780601983612464565b915061378b8261374a565b602082019050919050565b600060208201905081810360008301526137af81613773565b9050919050565b7f4552433732313a207472616e7366657220746f206e6f6e20455243373231526560008201527f63656976657220696d706c656d656e7465720000000000000000000000000000602082015250565b6000613812603283612464565b915061381d826137b6565b604082019050919050565b6000602082019050818103600083015261384181613805565b9050919050565b7f4552433732314d657461646174613a2055524920717565727920666f72206e6f60008201527f6e6578697374656e7420746f6b656e0000000000000000000000000000000000602082015250565b60006138a4602f83612464565b91506138af82613848565b604082019050919050565b600060208201905081810360008301526138d381613897565b9050919050565b600081519050919050565b600082825260208201905092915050565b6000613901826138da565b61390b81856138e5565b935061391b818560208601612475565b613924816124a8565b840191505092915050565b600060808201905061394460008301876125a9565b61395160208301866125a9565b61395e60408301856126d2565b818103606083015261397081846138f6565b905095945050505050565b60008151905061398a816123ca565b92915050565b6000602082840312156139a6576139a5612394565b5b60006139b48482850161397b565b91505092915050565b60006139c882612514565b91507fffffffffffffffffffffffffffffffffffffffffffffffffffffffffffffffff82036139fa576139f9612ea5565b5b600182019050919050565b6000613a1082612514565b9150613a1b83612514565b925082613a2b57613a2a612f2e565b5b828206905092915050565b7f4e487b7100000000000000000000000000000000000000000000000000000000600052603260045260246000fdfea2646970667358221220661f1558dae379a776bac326e6965050c14bd36366bcfb433df59c85dff0f65664736f6c634300080d0033",
  "immutableReferences": {},
  "source": "// SPDX-License-Identifier: MIT\npragma solidity >=0.4.22 <0.9.0;\n\n\nimport \"../node_modules/@openzeppelin/contracts/token/ERC721/extensions/ERC721URIStorage.sol\";\nimport \"../node_modules/@openzeppelin/contracts/token/common/ERC2981.sol\";\nimport \"../node_modules/@openzeppelin/contracts/utils/Counters.sol\";\nimport \"../node_modules/@openzeppelin/contracts/utils/math/SafeMath.sol\";\nimport \"../node_modules/@openzeppelin/contracts/access/Ownable.sol\";\n\n\ncontract royaltyToken721 is ERC721URIStorage,ERC2981, Ownable {\n    using SafeMath for uint ;\n    using Counters for Counters.Counter;\n\n    Counters.Counter private tokenIdCounter;\n\n    uint public maxSupply;\n    string private URI;\n    uint tokenPrice;\n    uint96 royaltyRate;\n\n    constructor(uint _maxSupply, string memory _URI, uint _tokenPrice, uint96 _royaltyRate) ERC721(\"royalityToken721\", \"RT21\"){\n\n        require(owner() != address(0), \"owner cannot be address(0)\" );\n        maxSupply = _maxSupply;\n        URI = _URI;\n        tokenPrice = _tokenPrice;\n        royaltyRate = _royaltyRate;\n    }\n\n    function mintToken() external payable{\n        \n        require(msg.sender != address(0), \"Invalid address(0)\");    // canot mint to address 0\n        require(msg.value == tokenPrice, \"payment not equal to token price\");\n        \n        tokenIdCounter.increment();         //token id start from 1\n        uint tokenId = tokenIdCounter.current();  \n\n        require(!_exists(tokenId), \"Token already minted\");    //check if token already minted \n        require(tokenId <= maxSupply, \"maximum Supply limit reached\");  //maximum total supply cannot exceed the max-Supply limit\n\n        _mint(msg.sender, tokenId);          //mint token to given address\n\n        ///@dev setting up tokn uri\n        _setTokenURI(tokenId, URI);\n\n        ///@dev setting up royalty for creator\n         _setTokenRoyalty(tokenId, owner(), royaltyRate);\n    }\n\n    function setTokenRoyalty(uint tokenId,address royaltyReceiver, uint96 royaltyPercentage) external onlyOwner{\n         \n         _setTokenRoyalty(tokenId, royaltyReceiver, royaltyPercentage);\n        \n    }\n\n    \n   \n\n\n\n    /// manually override parent contract function due to name clash \n    function _beforeTokenTransfer(\n        address from, \n        address to, \n        uint256 tokenId) internal override(ERC721){\n        super._beforeTokenTransfer(from, to , tokenId);\n    }\n\n    function supportsInterface(bytes4 interfaceId) public view override (ERC721,ERC2981)returns (bool){\n       return super.supportsInterface(interfaceId);\n    }\n\n\n\n}",
  "sourcePath": "/media/umar/2EB40689B406542D/Blockchain/MarketPlace/src/contracts/royaltyToken721.sol",
  "compiler": {
    "name": "solc",
    "version": "0.8.13+commit.abaa5c0e.Emscripten.clang"
  },
  "schemaVersion": "3.4.7",
  "updatedAt": "2022-06-01T11:38:20.727Z",
  "networkType": "ethereum",
  "devdoc": {
    "kind": "dev",
    "methods": {
      "approve(address,uint256)": {
        "details": "See {IERC721-approve}."
      },
      "balanceOf(address)": {
        "details": "See {IERC721-balanceOf}."
      },
      "getApproved(uint256)": {
        "details": "See {IERC721-getApproved}."
      },
      "isApprovedForAll(address,address)": {
        "details": "See {IERC721-isApprovedForAll}."
      },
      "name()": {
        "details": "See {IERC721Metadata-name}."
      },
      "owner()": {
        "details": "Returns the address of the current owner."
      },
      "ownerOf(uint256)": {
        "details": "See {IERC721-ownerOf}."
      },
      "renounceOwnership()": {
        "details": "Leaves the contract without owner. It will not be possible to call `onlyOwner` functions anymore. Can only be called by the current owner. NOTE: Renouncing ownership will leave the contract without an owner, thereby removing any functionality that is only available to the owner."
      },
      "royaltyInfo(uint256,uint256)": {
        "details": "Returns how much royalty is owed and to whom, based on a sale price that may be denominated in any unit of exchange. The royalty amount is denominated and should be paid in that same unit of exchange."
      },
      "safeTransferFrom(address,address,uint256)": {
        "details": "See {IERC721-safeTransferFrom}."
      },
      "safeTransferFrom(address,address,uint256,bytes)": {
        "details": "See {IERC721-safeTransferFrom}."
      },
      "setApprovalForAll(address,bool)": {
        "details": "See {IERC721-setApprovalForAll}."
      },
      "symbol()": {
        "details": "See {IERC721Metadata-symbol}."
      },
      "tokenURI(uint256)": {
        "details": "See {IERC721Metadata-tokenURI}."
      },
      "transferFrom(address,address,uint256)": {
        "details": "See {IERC721-transferFrom}."
      },
      "transferOwnership(address)": {
        "details": "Transfers ownership of the contract to a new account (`newOwner`). Can only be called by the current owner."
      }
    },
    "version": 1
  },
  "userdoc": {
    "kind": "user",
    "methods": {},
    "version": 1
  }
}