{
  "contractName": "RoyaltyToken721",
  "abi": [
    {
      "inputs": [
        {
          "internalType": "uint256",
          "name": "_maxSupply",
          "type": "uint256"
        },
        {
          "internalType": "string",
          "name": "_URI",
          "type": "string"
        },
        {
          "internalType": "uint256",
          "name": "_tokenPrice",
          "type": "uint256"
        },
        {
          "internalType": "uint96",
          "name": "_royaltyRate",
          "type": "uint96"
        }
      ],
      "stateMutability": "nonpayable",
      "type": "constructor"
    },
    {
      "anonymous": false,
      "inputs": [
        {
          "indexed": true,
          "internalType": "address",
          "name": "owner",
          "type": "address"
        },
        {
          "indexed": true,
          "internalType": "address",
          "name": "approved",
          "type": "address"
        },
        {
          "indexed": true,
          "internalType": "uint256",
          "name": "tokenId",
          "type": "uint256"
        }
      ],
      "name": "Approval",
      "type": "event"
    },
    {
      "anonymous": false,
      "inputs": [
        {
          "indexed": true,
          "internalType": "address",
          "name": "owner",
          "type": "address"
        },
        {
          "indexed": true,
          "internalType": "address",
          "name": "operator",
          "type": "address"
        },
        {
          "indexed": false,
          "internalType": "bool",
          "name": "approved",
          "type": "bool"
        }
      ],
      "name": "ApprovalForAll",
      "type": "event"
    },
    {
      "anonymous": false,
      "inputs": [
        {
          "indexed": true,
          "internalType": "address",
          "name": "previousOwner",
          "type": "address"
        },
        {
          "indexed": true,
          "internalType": "address",
          "name": "newOwner",
          "type": "address"
        }
      ],
      "name": "OwnershipTransferred",
      "type": "event"
    },
    {
      "anonymous": false,
      "inputs": [
        {
          "indexed": true,
          "internalType": "address",
          "name": "from",
          "type": "address"
        },
        {
          "indexed": true,
          "internalType": "address",
          "name": "to",
          "type": "address"
        },
        {
          "indexed": true,
          "internalType": "uint256",
          "name": "tokenId",
          "type": "uint256"
        }
      ],
      "name": "Transfer",
      "type": "event"
    },
    {
      "inputs": [
        {
          "internalType": "address",
          "name": "to",
          "type": "address"
        },
        {
          "internalType": "uint256",
          "name": "tokenId",
          "type": "uint256"
        }
      ],
      "name": "approve",
      "outputs": [],
      "stateMutability": "nonpayable",
      "type": "function"
    },
    {
      "inputs": [
        {
          "internalType": "address",
          "name": "owner",
          "type": "address"
        }
      ],
      "name": "balanceOf",
      "outputs": [
        {
          "internalType": "uint256",
          "name": "",
          "type": "uint256"
        }
      ],
      "stateMutability": "view",
      "type": "function",
      "constant": true
    },
    {
      "inputs": [
        {
          "internalType": "uint256",
          "name": "tokenId",
          "type": "uint256"
        }
      ],
      "name": "getApproved",
      "outputs": [
        {
          "internalType": "address",
          "name": "",
          "type": "address"
        }
      ],
      "stateMutability": "view",
      "type": "function",
      "constant": true
    },
    {
      "inputs": [
        {
          "internalType": "address",
          "name": "owner",
          "type": "address"
        },
        {
          "internalType": "address",
          "name": "operator",
          "type": "address"
        }
      ],
      "name": "isApprovedForAll",
      "outputs": [
        {
          "internalType": "bool",
          "name": "",
          "type": "bool"
        }
      ],
      "stateMutability": "view",
      "type": "function",
      "constant": true
    },
    {
      "inputs": [],
      "name": "maxSupply",
      "outputs": [
        {
          "internalType": "uint256",
          "name": "",
          "type": "uint256"
        }
      ],
      "stateMutability": "view",
      "type": "function",
      "constant": true
    },
    {
      "inputs": [],
      "name": "name",
      "outputs": [
        {
          "internalType": "string",
          "name": "",
          "type": "string"
        }
      ],
      "stateMutability": "view",
      "type": "function",
      "constant": true
    },
    {
      "inputs": [],
      "name": "owner",
      "outputs": [
        {
          "internalType": "address",
          "name": "",
          "type": "address"
        }
      ],
      "stateMutability": "view",
      "type": "function",
      "constant": true
    },
    {
      "inputs": [
        {
          "internalType": "uint256",
          "name": "tokenId",
          "type": "uint256"
        }
      ],
      "name": "ownerOf",
      "outputs": [
        {
          "internalType": "address",
          "name": "",
          "type": "address"
        }
      ],
      "stateMutability": "view",
      "type": "function",
      "constant": true
    },
    {
      "inputs": [],
      "name": "renounceOwnership",
      "outputs": [],
      "stateMutability": "nonpayable",
      "type": "function"
    },
    {
      "inputs": [
        {
          "internalType": "uint256",
          "name": "_tokenId",
          "type": "uint256"
        },
        {
          "internalType": "uint256",
          "name": "_salePrice",
          "type": "uint256"
        }
      ],
      "name": "royaltyInfo",
      "outputs": [
        {
          "internalType": "address",
          "name": "",
          "type": "address"
        },
        {
          "internalType": "uint256",
          "name": "",
          "type": "uint256"
        }
      ],
      "stateMutability": "view",
      "type": "function",
      "constant": true
    },
    {
      "inputs": [
        {
          "internalType": "address",
          "name": "from",
          "type": "address"
        },
        {
          "internalType": "address",
          "name": "to",
          "type": "address"
        },
        {
          "internalType": "uint256",
          "name": "tokenId",
          "type": "uint256"
        }
      ],
      "name": "safeTransferFrom",
      "outputs": [],
      "stateMutability": "nonpayable",
      "type": "function"
    },
    {
      "inputs": [
        {
          "internalType": "address",
          "name": "from",
          "type": "address"
        },
        {
          "internalType": "address",
          "name": "to",
          "type": "address"
        },
        {
          "internalType": "uint256",
          "name": "tokenId",
          "type": "uint256"
        },
        {
          "internalType": "bytes",
          "name": "_data",
          "type": "bytes"
        }
      ],
      "name": "safeTransferFrom",
      "outputs": [],
      "stateMutability": "nonpayable",
      "type": "function"
    },
    {
      "inputs": [
        {
          "internalType": "address",
          "name": "operator",
          "type": "address"
        },
        {
          "internalType": "bool",
          "name": "approved",
          "type": "bool"
        }
      ],
      "name": "setApprovalForAll",
      "outputs": [],
      "stateMutability": "nonpayable",
      "type": "function"
    },
    {
      "inputs": [],
      "name": "symbol",
      "outputs": [
        {
          "internalType": "string",
          "name": "",
          "type": "string"
        }
      ],
      "stateMutability": "view",
      "type": "function",
      "constant": true
    },
    {
      "inputs": [],
      "name": "tokenPrice",
      "outputs": [
        {
          "internalType": "uint256",
          "name": "",
          "type": "uint256"
        }
      ],
      "stateMutability": "view",
      "type": "function",
      "constant": true
    },
    {
      "inputs": [
        {
          "internalType": "address",
          "name": "from",
          "type": "address"
        },
        {
          "internalType": "address",
          "name": "to",
          "type": "address"
        },
        {
          "internalType": "uint256",
          "name": "tokenId",
          "type": "uint256"
        }
      ],
      "name": "transferFrom",
      "outputs": [],
      "stateMutability": "nonpayable",
      "type": "function"
    },
    {
      "inputs": [
        {
          "internalType": "address",
          "name": "newOwner",
          "type": "address"
        }
      ],
      "name": "transferOwnership",
      "outputs": [],
      "stateMutability": "nonpayable",
      "type": "function"
    },
    {
      "inputs": [],
      "name": "mintToken",
      "outputs": [],
      "stateMutability": "payable",
      "type": "function",
      "payable": true
    },
    {
      "inputs": [
        {
          "internalType": "uint256",
          "name": "tokenId",
          "type": "uint256"
        }
      ],
      "name": "tokenURI",
      "outputs": [
        {
          "internalType": "string",
          "name": "",
          "type": "string"
        }
      ],
      "stateMutability": "view",
      "type": "function",
      "constant": true
    },
    {
      "inputs": [
        {
          "internalType": "bytes4",
          "name": "interfaceId",
          "type": "bytes4"
        }
      ],
      "name": "supportsInterface",
      "outputs": [
        {
          "internalType": "bool",
          "name": "",
          "type": "bool"
        }
      ],
      "stateMutability": "view",
      "type": "function",
      "constant": true
    }
  ],
  "bytecode": "0x60806040523480156200001157600080fd5b5060405162003db438038062003db48339818101604052810190620000379190620005a3565b6040518060400160405280601081526020017f526f79616c697479546f6b656e373231000000000000000000000000000000008152506040518060400160405280600781526020017f526f79616c3231000000000000000000000000000000000000000000000000008152508160009080519060200190620000bb929190620002d2565b508060019080519060200190620000d4929190620002d2565b505050620000f7620000eb620001da60201b60201c565b620001e260201b60201c565b600073ffffffffffffffffffffffffffffffffffffffff166200011f620002a860201b60201c565b73ffffffffffffffffffffffffffffffffffffffff160362000178576040517f08c379a00000000000000000000000000000000000000000000000000000000081526004016200016f9062000695565b60405180910390fd5b83600b8190555082600c908051906020019062000197929190620002d2565b5081600d8190555080600e60006101000a8154816bffffffffffffffffffffffff02191690836bffffffffffffffffffffffff160217905550505050506200071b565b600033905090565b6000600960009054906101000a900473ffffffffffffffffffffffffffffffffffffffff16905081600960006101000a81548173ffffffffffffffffffffffffffffffffffffffff021916908373ffffffffffffffffffffffffffffffffffffffff1602179055508173ffffffffffffffffffffffffffffffffffffffff168173ffffffffffffffffffffffffffffffffffffffff167f8be0079c531659141344cd1fd0a4f28419497f9722a3daafe3b4186f6b6457e060405160405180910390a35050565b6000600960009054906101000a900473ffffffffffffffffffffffffffffffffffffffff16905090565b828054620002e090620006e6565b90600052602060002090601f01602090048101928262000304576000855562000350565b82601f106200031f57805160ff191683800117855562000350565b8280016001018555821562000350579182015b828111156200034f57825182559160200191906001019062000332565b5b5090506200035f919062000363565b5090565b5b808211156200037e57600081600090555060010162000364565b5090565b6000604051905090565b600080fd5b600080fd5b6000819050919050565b620003ab8162000396565b8114620003b757600080fd5b50565b600081519050620003cb81620003a0565b92915050565b600080fd5b600080fd5b6000601f19601f8301169050919050565b7f4e487b7100000000000000000000000000000000000000000000000000000000600052604160045260246000fd5b6200042682620003db565b810181811067ffffffffffffffff82111715620004485762000447620003ec565b5b80604052505050565b60006200045d62000382565b90506200046b82826200041b565b919050565b600067ffffffffffffffff8211156200048e576200048d620003ec565b5b6200049982620003db565b9050602081019050919050565b60005b83811015620004c6578082015181840152602081019050620004a9565b83811115620004d6576000848401525b50505050565b6000620004f3620004ed8462000470565b62000451565b905082815260208101848484011115620005125762000511620003d6565b5b6200051f848285620004a6565b509392505050565b600082601f8301126200053f576200053e620003d1565b5b815162000551848260208601620004dc565b91505092915050565b60006bffffffffffffffffffffffff82169050919050565b6200057d816200055a565b81146200058957600080fd5b50565b6000815190506200059d8162000572565b92915050565b60008060008060808587031215620005c057620005bf6200038c565b5b6000620005d087828801620003ba565b945050602085015167ffffffffffffffff811115620005f457620005f362000391565b5b620006028782880162000527565b93505060406200061587828801620003ba565b925050606062000628878288016200058c565b91505092959194509250565b600082825260208201905092915050565b7f6f776e65722063616e6e6f742062652061646472657373283029000000000000600082015250565b60006200067d601a8362000634565b91506200068a8262000645565b602082019050919050565b60006020820190508181036000830152620006b0816200066e565b9050919050565b7f4e487b7100000000000000000000000000000000000000000000000000000000600052602260045260246000fd5b60006002820490506001821680620006ff57607f821691505b602082108103620007155762000714620006b7565b5b50919050565b613689806200072b6000396000f3fe60806040526004361061011f5760003560e01c8063715018a6116100a0578063b88d4fde11610064578063b88d4fde146103c7578063c87b56dd146103f0578063d5abeb011461042d578063e985e9c514610458578063f2fde38b146104955761011f565b8063715018a6146103065780637ff9b5961461031d5780638da5cb5b1461034857806395d89b4114610373578063a22cb4651461039e5761011f565b806323b872dd116100e757806323b872dd146101fc5780632a55205a1461022557806342842e0e146102635780636352211e1461028c57806370a08231146102c95761011f565b806301ffc9a71461012457806306fdde0314610161578063081812fc1461018c578063095ea7b3146101c95780632004ffd9146101f2575b600080fd5b34801561013057600080fd5b5061014b600480360381019061014691906120f1565b6104be565b6040516101589190612139565b60405180910390f35b34801561016d57600080fd5b506101766104d0565b60405161018391906121ed565b60405180910390f35b34801561019857600080fd5b506101b360048036038101906101ae9190612245565b610562565b6040516101c091906122b3565b60405180910390f35b3480156101d557600080fd5b506101f060048036038101906101eb91906122fa565b6105e7565b005b6101fa6106fe565b005b34801561020857600080fd5b50610223600480360381019061021e919061233a565b610890565b005b34801561023157600080fd5b5061024c6004803603810190610247919061238d565b6108f0565b60405161025a9291906123dc565b60405180910390f35b34801561026f57600080fd5b5061028a6004803603810190610285919061233a565b610ada565b005b34801561029857600080fd5b506102b360048036038101906102ae9190612245565b610afa565b6040516102c091906122b3565b60405180910390f35b3480156102d557600080fd5b506102f060048036038101906102eb9190612405565b610bab565b6040516102fd9190612432565b60405180910390f35b34801561031257600080fd5b5061031b610c62565b005b34801561032957600080fd5b50610332610cea565b60405161033f9190612432565b60405180910390f35b34801561035457600080fd5b5061035d610cf0565b60405161036a91906122b3565b60405180910390f35b34801561037f57600080fd5b50610388610d1a565b60405161039591906121ed565b60405180910390f35b3480156103aa57600080fd5b506103c560048036038101906103c09190612479565b610dac565b005b3480156103d357600080fd5b506103ee60048036038101906103e991906125ee565b610dc2565b005b3480156103fc57600080fd5b5061041760048036038101906104129190612245565b610e24565b60405161042491906121ed565b60405180910390f35b34801561043957600080fd5b50610442610ecb565b60405161044f9190612432565b60405180910390f35b34801561046457600080fd5b5061047f600480360381019061047a9190612671565b610ed1565b60405161048c9190612139565b60405180910390f35b3480156104a157600080fd5b506104bc60048036038101906104b79190612405565b610f65565b005b60006104c98261105c565b9050919050565b6060600080546104df906126e0565b80601f016020809104026020016040519081016040528092919081815260200182805461050b906126e0565b80156105585780601f1061052d57610100808354040283529160200191610558565b820191906000526020600020905b81548152906001019060200180831161053b57829003601f168201915b5050505050905090565b600061056d826110d6565b6105ac576040517f08c379a00000000000000000000000000000000000000000000000000000000081526004016105a390612783565b60405180910390fd5b6004600083815260200190815260200160002060009054906101000a900473ffffffffffffffffffffffffffffffffffffffff169050919050565b60006105f282610afa565b90508073ffffffffffffffffffffffffffffffffffffffff168373ffffffffffffffffffffffffffffffffffffffff1603610662576040517f08c379a000000000000000000000000000000000000000000000000000000000815260040161065990612815565b60405180910390fd5b8073ffffffffffffffffffffffffffffffffffffffff16610681611142565b73ffffffffffffffffffffffffffffffffffffffff1614806106b057506106af816106aa611142565b610ed1565b5b6106ef576040517f08c379a00000000000000000000000000000000000000000000000000000000081526004016106e6906128a7565b60405180910390fd5b6106f9838361114a565b505050565b600073ffffffffffffffffffffffffffffffffffffffff163373ffffffffffffffffffffffffffffffffffffffff160361076d576040517f08c379a000000000000000000000000000000000000000000000000000000000815260040161076490612913565b60405180910390fd5b600d5434146107b1576040517f08c379a00000000000000000000000000000000000000000000000000000000081526004016107a89061297f565b60405180910390fd5b6107bb600a611203565b60006107c7600a611219565b90506107d2816110d6565b15610812576040517f08c379a0000000000000000000000000000000000000000000000000000000008152600401610809906129eb565b60405180910390fd5b600b54811115610857576040517f08c379a000000000000000000000000000000000000000000000000000000000815260040161084e90612a57565b60405180910390fd5b6108613382611227565b61088d8161086d610cf0565b600e60009054906101000a90046bffffffffffffffffffffffff16611400565b50565b6108a161089b611142565b826115a7565b6108e0576040517f08c379a00000000000000000000000000000000000000000000000000000000081526004016108d790612ae9565b60405180910390fd5b6108eb838383611685565b505050565b6000806000600860008681526020019081526020016000206040518060400160405290816000820160009054906101000a900473ffffffffffffffffffffffffffffffffffffffff1673ffffffffffffffffffffffffffffffffffffffff1673ffffffffffffffffffffffffffffffffffffffff1681526020016000820160149054906101000a90046bffffffffffffffffffffffff166bffffffffffffffffffffffff166bffffffffffffffffffffffff16815250509050600073ffffffffffffffffffffffffffffffffffffffff16816000015173ffffffffffffffffffffffffffffffffffffffff1603610a855760076040518060400160405290816000820160009054906101000a900473ffffffffffffffffffffffffffffffffffffffff1673ffffffffffffffffffffffffffffffffffffffff1673ffffffffffffffffffffffffffffffffffffffff1681526020016000820160149054906101000a90046bffffffffffffffffffffffff166bffffffffffffffffffffffff166bffffffffffffffffffffffff168152505090505b6000610a8f6118eb565b6bffffffffffffffffffffffff1682602001516bffffffffffffffffffffffff1686610abb9190612b38565b610ac59190612bc1565b90508160000151819350935050509250929050565b610af583838360405180602001604052806000815250610dc2565b505050565b6000806002600084815260200190815260200160002060009054906101000a900473ffffffffffffffffffffffffffffffffffffffff169050600073ffffffffffffffffffffffffffffffffffffffff168173ffffffffffffffffffffffffffffffffffffffff1603610ba2576040517f08c379a0000000000000000000000000000000000000000000000000000000008152600401610b9990612c64565b60405180910390fd5b80915050919050565b60008073ffffffffffffffffffffffffffffffffffffffff168273ffffffffffffffffffffffffffffffffffffffff1603610c1b576040517f08c379a0000000000000000000000000000000000000000000000000000000008152600401610c1290612cf6565b60405180910390fd5b600360008373ffffffffffffffffffffffffffffffffffffffff1673ffffffffffffffffffffffffffffffffffffffff168152602001908152602001600020549050919050565b610c6a611142565b73ffffffffffffffffffffffffffffffffffffffff16610c88610cf0565b73ffffffffffffffffffffffffffffffffffffffff1614610cde576040517f08c379a0000000000000000000000000000000000000000000000000000000008152600401610cd590612d62565b60405180910390fd5b610ce860006118f5565b565b600d5481565b6000600960009054906101000a900473ffffffffffffffffffffffffffffffffffffffff16905090565b606060018054610d29906126e0565b80601f0160208091040260200160405190810160405280929190818152602001828054610d55906126e0565b8015610da25780601f10610d7757610100808354040283529160200191610da2565b820191906000526020600020905b815481529060010190602001808311610d8557829003601f168201915b5050505050905090565b610dbe610db7611142565b83836119bb565b5050565b610dd3610dcd611142565b836115a7565b610e12576040517f08c379a0000000000000000000000000000000000000000000000000000000008152600401610e0990612ae9565b60405180910390fd5b610e1e84848484611b27565b50505050565b6060610e2f826110d6565b610e6e576040517f08c379a0000000000000000000000000000000000000000000000000000000008152600401610e6590612df4565b60405180910390fd5b6000610e78611b83565b90506000815111610e985760405180602001604052806000815250610ec3565b80610ea284611c15565b604051602001610eb3929190612ee8565b6040516020818303038152906040525b915050919050565b600b5481565b6000600560008473ffffffffffffffffffffffffffffffffffffffff1673ffffffffffffffffffffffffffffffffffffffff16815260200190815260200160002060008373ffffffffffffffffffffffffffffffffffffffff1673ffffffffffffffffffffffffffffffffffffffff16815260200190815260200160002060009054906101000a900460ff16905092915050565b610f6d611142565b73ffffffffffffffffffffffffffffffffffffffff16610f8b610cf0565b73ffffffffffffffffffffffffffffffffffffffff1614610fe1576040517f08c379a0000000000000000000000000000000000000000000000000000000008152600401610fd890612d62565b60405180910390fd5b600073ffffffffffffffffffffffffffffffffffffffff168173ffffffffffffffffffffffffffffffffffffffff1603611050576040517f08c379a000000000000000000000000000000000000000000000000000000000815260040161104790612f94565b60405180910390fd5b611059816118f5565b50565b60007f2a55205a000000000000000000000000000000000000000000000000000000007bffffffffffffffffffffffffffffffffffffffffffffffffffffffff1916827bffffffffffffffffffffffffffffffffffffffffffffffffffffffff191614806110cf57506110ce82611d75565b5b9050919050565b60008073ffffffffffffffffffffffffffffffffffffffff166002600084815260200190815260200160002060009054906101000a900473ffffffffffffffffffffffffffffffffffffffff1673ffffffffffffffffffffffffffffffffffffffff1614159050919050565b600033905090565b816004600083815260200190815260200160002060006101000a81548173ffffffffffffffffffffffffffffffffffffffff021916908373ffffffffffffffffffffffffffffffffffffffff160217905550808273ffffffffffffffffffffffffffffffffffffffff166111bd83610afa565b73ffffffffffffffffffffffffffffffffffffffff167f8c5be1e5ebec7d5bd14f71427d1e84f3dd0314c0f7b2291e5b200ac8c7c3b92560405160405180910390a45050565b6001816000016000828254019250508190555050565b600081600001549050919050565b600073ffffffffffffffffffffffffffffffffffffffff168273ffffffffffffffffffffffffffffffffffffffff1603611296576040517f08c379a000000000000000000000000000000000000000000000000000000000815260040161128d90613000565b60405180910390fd5b61129f816110d6565b156112df576040517f08c379a00000000000000000000000000000000000000000000000000000000081526004016112d69061306c565b60405180910390fd5b6112eb60008383611e57565b6001600360008473ffffffffffffffffffffffffffffffffffffffff1673ffffffffffffffffffffffffffffffffffffffff168152602001908152602001600020600082825461133b919061308c565b92505081905550816002600083815260200190815260200160002060006101000a81548173ffffffffffffffffffffffffffffffffffffffff021916908373ffffffffffffffffffffffffffffffffffffffff160217905550808273ffffffffffffffffffffffffffffffffffffffff16600073ffffffffffffffffffffffffffffffffffffffff167fddf252ad1be2c89b69c2b068fc378daa952ba7f163c4a11628f55a4df523b3ef60405160405180910390a46113fc60008383611e67565b5050565b6114086118eb565b6bffffffffffffffffffffffff16816bffffffffffffffffffffffff161115611466576040517f08c379a000000000000000000000000000000000000000000000000000000000815260040161145d90613154565b60405180910390fd5b600073ffffffffffffffffffffffffffffffffffffffff168273ffffffffffffffffffffffffffffffffffffffff16036114d5576040517f08c379a00000000000000000000000000000000000000000000000000000000081526004016114cc906131c0565b60405180910390fd5b60405180604001604052808373ffffffffffffffffffffffffffffffffffffffff168152602001826bffffffffffffffffffffffff168152506008600085815260200190815260200160002060008201518160000160006101000a81548173ffffffffffffffffffffffffffffffffffffffff021916908373ffffffffffffffffffffffffffffffffffffffff16021790555060208201518160000160146101000a8154816bffffffffffffffffffffffff02191690836bffffffffffffffffffffffff160217905550905050505050565b60006115b2826110d6565b6115f1576040517f08c379a00000000000000000000000000000000000000000000000000000000081526004016115e890613252565b60405180910390fd5b60006115fc83610afa565b90508073ffffffffffffffffffffffffffffffffffffffff168473ffffffffffffffffffffffffffffffffffffffff16148061163e575061163d8185610ed1565b5b8061167c57508373ffffffffffffffffffffffffffffffffffffffff1661166484610562565b73ffffffffffffffffffffffffffffffffffffffff16145b91505092915050565b8273ffffffffffffffffffffffffffffffffffffffff166116a582610afa565b73ffffffffffffffffffffffffffffffffffffffff16146116fb576040517f08c379a00000000000000000000000000000000000000000000000000000000081526004016116f2906132e4565b60405180910390fd5b600073ffffffffffffffffffffffffffffffffffffffff168273ffffffffffffffffffffffffffffffffffffffff160361176a576040517f08c379a000000000000000000000000000000000000000000000000000000000815260040161176190613376565b60405180910390fd5b611775838383611e57565b61178060008261114a565b6001600360008573ffffffffffffffffffffffffffffffffffffffff1673ffffffffffffffffffffffffffffffffffffffff16815260200190815260200160002060008282546117d09190613396565b925050819055506001600360008473ffffffffffffffffffffffffffffffffffffffff1673ffffffffffffffffffffffffffffffffffffffff1681526020019081526020016000206000828254611827919061308c565b92505081905550816002600083815260200190815260200160002060006101000a81548173ffffffffffffffffffffffffffffffffffffffff021916908373ffffffffffffffffffffffffffffffffffffffff160217905550808273ffffffffffffffffffffffffffffffffffffffff168473ffffffffffffffffffffffffffffffffffffffff167fddf252ad1be2c89b69c2b068fc378daa952ba7f163c4a11628f55a4df523b3ef60405160405180910390a46118e6838383611e67565b505050565b6000612710905090565b6000600960009054906101000a900473ffffffffffffffffffffffffffffffffffffffff16905081600960006101000a81548173ffffffffffffffffffffffffffffffffffffffff021916908373ffffffffffffffffffffffffffffffffffffffff1602179055508173ffffffffffffffffffffffffffffffffffffffff168173ffffffffffffffffffffffffffffffffffffffff167f8be0079c531659141344cd1fd0a4f28419497f9722a3daafe3b4186f6b6457e060405160405180910390a35050565b8173ffffffffffffffffffffffffffffffffffffffff168373ffffffffffffffffffffffffffffffffffffffff1603611a29576040517f08c379a0000000000000000000000000000000000000000000000000000000008152600401611a2090613416565b60405180910390fd5b80600560008573ffffffffffffffffffffffffffffffffffffffff1673ffffffffffffffffffffffffffffffffffffffff16815260200190815260200160002060008473ffffffffffffffffffffffffffffffffffffffff1673ffffffffffffffffffffffffffffffffffffffff16815260200190815260200160002060006101000a81548160ff0219169083151502179055508173ffffffffffffffffffffffffffffffffffffffff168373ffffffffffffffffffffffffffffffffffffffff167f17307eab39ab6107e8899845ad3d59bd9653f200f220920489ca2b5937696c3183604051611b1a9190612139565b60405180910390a3505050565b611b32848484611685565b611b3e84848484611e6c565b611b7d576040517f08c379a0000000000000000000000000000000000000000000000000000000008152600401611b74906134a8565b60405180910390fd5b50505050565b6060600c8054611b92906126e0565b80601f0160208091040260200160405190810160405280929190818152602001828054611bbe906126e0565b8015611c0b5780601f10611be057610100808354040283529160200191611c0b565b820191906000526020600020905b815481529060010190602001808311611bee57829003601f168201915b5050505050905090565b606060008203611c5c576040518060400160405280600181526020017f30000000000000000000000000000000000000000000000000000000000000008152509050611d70565b600082905060005b60008214611c8e578080611c77906134c8565b915050600a82611c879190612bc1565b9150611c64565b60008167ffffffffffffffff811115611caa57611ca96124c3565b5b6040519080825280601f01601f191660200182016040528015611cdc5781602001600182028036833780820191505090505b5090505b60008514611d6957600182611cf59190613396565b9150600a85611d049190613510565b6030611d10919061308c565b60f81b818381518110611d2657611d25613541565b5b60200101907effffffffffffffffffffffffffffffffffffffffffffffffffffffffffffff1916908160001a905350600a85611d629190612bc1565b9450611ce0565b8093505050505b919050565b60007f80ac58cd000000000000000000000000000000000000000000000000000000007bffffffffffffffffffffffffffffffffffffffffffffffffffffffff1916827bffffffffffffffffffffffffffffffffffffffffffffffffffffffff19161480611e4057507f5b5e139f000000000000000000000000000000000000000000000000000000007bffffffffffffffffffffffffffffffffffffffffffffffffffffffff1916827bffffffffffffffffffffffffffffffffffffffffffffffffffffffff1916145b80611e505750611e4f82611ff3565b5b9050919050565b611e6283838361205d565b505050565b505050565b6000611e8d8473ffffffffffffffffffffffffffffffffffffffff16612062565b15611fe6578373ffffffffffffffffffffffffffffffffffffffff1663150b7a02611eb6611142565b8786866040518563ffffffff1660e01b8152600401611ed894939291906135c5565b6020604051808303816000875af1925050508015611f1457506040513d601f19601f82011682018060405250810190611f119190613626565b60015b611f96573d8060008114611f44576040519150601f19603f3d011682016040523d82523d6000602084013e611f49565b606091505b506000815103611f8e576040517f08c379a0000000000000000000000000000000000000000000000000000000008152600401611f85906134a8565b60405180910390fd5b805181602001fd5b63150b7a0260e01b7bffffffffffffffffffffffffffffffffffffffffffffffffffffffff1916817bffffffffffffffffffffffffffffffffffffffffffffffffffffffff191614915050611feb565b600190505b949350505050565b60007f01ffc9a7000000000000000000000000000000000000000000000000000000007bffffffffffffffffffffffffffffffffffffffffffffffffffffffff1916827bffffffffffffffffffffffffffffffffffffffffffffffffffffffff1916149050919050565b505050565b6000808273ffffffffffffffffffffffffffffffffffffffff163b119050919050565b6000604051905090565b600080fd5b600080fd5b60007fffffffff0000000000000000000000000000000000000000000000000000000082169050919050565b6120ce81612099565b81146120d957600080fd5b50565b6000813590506120eb816120c5565b92915050565b6000602082840312156121075761210661208f565b5b6000612115848285016120dc565b91505092915050565b60008115159050919050565b6121338161211e565b82525050565b600060208201905061214e600083018461212a565b92915050565b600081519050919050565b600082825260208201905092915050565b60005b8381101561218e578082015181840152602081019050612173565b8381111561219d576000848401525b50505050565b6000601f19601f8301169050919050565b60006121bf82612154565b6121c9818561215f565b93506121d9818560208601612170565b6121e2816121a3565b840191505092915050565b6000602082019050818103600083015261220781846121b4565b905092915050565b6000819050919050565b6122228161220f565b811461222d57600080fd5b50565b60008135905061223f81612219565b92915050565b60006020828403121561225b5761225a61208f565b5b600061226984828501612230565b91505092915050565b600073ffffffffffffffffffffffffffffffffffffffff82169050919050565b600061229d82612272565b9050919050565b6122ad81612292565b82525050565b60006020820190506122c860008301846122a4565b92915050565b6122d781612292565b81146122e257600080fd5b50565b6000813590506122f4816122ce565b92915050565b600080604083850312156123115761231061208f565b5b600061231f858286016122e5565b925050602061233085828601612230565b9150509250929050565b6000806000606084860312156123535761235261208f565b5b6000612361868287016122e5565b9350506020612372868287016122e5565b925050604061238386828701612230565b9150509250925092565b600080604083850312156123a4576123a361208f565b5b60006123b285828601612230565b92505060206123c385828601612230565b9150509250929050565b6123d68161220f565b82525050565b60006040820190506123f160008301856122a4565b6123fe60208301846123cd565b9392505050565b60006020828403121561241b5761241a61208f565b5b6000612429848285016122e5565b91505092915050565b600060208201905061244760008301846123cd565b92915050565b6124568161211e565b811461246157600080fd5b50565b6000813590506124738161244d565b92915050565b600080604083850312156124905761248f61208f565b5b600061249e858286016122e5565b92505060206124af85828601612464565b9150509250929050565b600080fd5b600080fd5b7f4e487b7100000000000000000000000000000000000000000000000000000000600052604160045260246000fd5b6124fb826121a3565b810181811067ffffffffffffffff8211171561251a576125196124c3565b5b80604052505050565b600061252d612085565b905061253982826124f2565b919050565b600067ffffffffffffffff821115612559576125586124c3565b5b612562826121a3565b9050602081019050919050565b82818337600083830152505050565b600061259161258c8461253e565b612523565b9050828152602081018484840111156125ad576125ac6124be565b5b6125b884828561256f565b509392505050565b600082601f8301126125d5576125d46124b9565b5b81356125e584826020860161257e565b91505092915050565b600080600080608085870312156126085761260761208f565b5b6000612616878288016122e5565b9450506020612627878288016122e5565b935050604061263887828801612230565b925050606085013567ffffffffffffffff81111561265957612658612094565b5b612665878288016125c0565b91505092959194509250565b600080604083850312156126885761268761208f565b5b6000612696858286016122e5565b92505060206126a7858286016122e5565b9150509250929050565b7f4e487b7100000000000000000000000000000000000000000000000000000000600052602260045260246000fd5b600060028204905060018216806126f857607f821691505b60208210810361270b5761270a6126b1565b5b50919050565b7f4552433732313a20617070726f76656420717565727920666f72206e6f6e657860008201527f697374656e7420746f6b656e0000000000000000000000000000000000000000602082015250565b600061276d602c8361215f565b915061277882612711565b604082019050919050565b6000602082019050818103600083015261279c81612760565b9050919050565b7f4552433732313a20617070726f76616c20746f2063757272656e74206f776e6560008201527f7200000000000000000000000000000000000000000000000000000000000000602082015250565b60006127ff60218361215f565b915061280a826127a3565b604082019050919050565b6000602082019050818103600083015261282e816127f2565b9050919050565b7f4552433732313a20617070726f76652063616c6c6572206973206e6f74206f7760008201527f6e6572206e6f7220617070726f76656420666f7220616c6c0000000000000000602082015250565b600061289160388361215f565b915061289c82612835565b604082019050919050565b600060208201905081810360008301526128c081612884565b9050919050565b7f496e76616c696420616464726573732830290000000000000000000000000000600082015250565b60006128fd60128361215f565b9150612908826128c7565b602082019050919050565b6000602082019050818103600083015261292c816128f0565b9050919050565b7f7061796d656e74206e6f7420657175616c20746f20746f6b656e207072696365600082015250565b600061296960208361215f565b915061297482612933565b602082019050919050565b600060208201905081810360008301526129988161295c565b9050919050565b7f546f6b656e20616c7265616479206d696e746564000000000000000000000000600082015250565b60006129d560148361215f565b91506129e08261299f565b602082019050919050565b60006020820190508181036000830152612a04816129c8565b9050919050565b7f6d6178696d756d20537570706c79206c696d6974207265616368656400000000600082015250565b6000612a41601c8361215f565b9150612a4c82612a0b565b602082019050919050565b60006020820190508181036000830152612a7081612a34565b9050919050565b7f4552433732313a207472616e736665722063616c6c6572206973206e6f74206f60008201527f776e6572206e6f7220617070726f766564000000000000000000000000000000602082015250565b6000612ad360318361215f565b9150612ade82612a77565b604082019050919050565b60006020820190508181036000830152612b0281612ac6565b9050919050565b7f4e487b7100000000000000000000000000000000000000000000000000000000600052601160045260246000fd5b6000612b438261220f565b9150612b4e8361220f565b9250817fffffffffffffffffffffffffffffffffffffffffffffffffffffffffffffffff0483118215151615612b8757612b86612b09565b5b828202905092915050565b7f4e487b7100000000000000000000000000000000000000000000000000000000600052601260045260246000fd5b6000612bcc8261220f565b9150612bd78361220f565b925082612be757612be6612b92565b5b828204905092915050565b7f4552433732313a206f776e657220717565727920666f72206e6f6e657869737460008201527f656e7420746f6b656e0000000000000000000000000000000000000000000000602082015250565b6000612c4e60298361215f565b9150612c5982612bf2565b604082019050919050565b60006020820190508181036000830152612c7d81612c41565b9050919050565b7f4552433732313a2062616c616e636520717565727920666f7220746865207a6560008201527f726f206164647265737300000000000000000000000000000000000000000000602082015250565b6000612ce0602a8361215f565b9150612ceb82612c84565b604082019050919050565b60006020820190508181036000830152612d0f81612cd3565b9050919050565b7f4f776e61626c653a2063616c6c6572206973206e6f7420746865206f776e6572600082015250565b6000612d4c60208361215f565b9150612d5782612d16565b602082019050919050565b60006020820190508181036000830152612d7b81612d3f565b9050919050565b7f4552433732314d657461646174613a2055524920717565727920666f72206e6f60008201527f6e6578697374656e7420746f6b656e0000000000000000000000000000000000602082015250565b6000612dde602f8361215f565b9150612de982612d82565b604082019050919050565b60006020820190508181036000830152612e0d81612dd1565b9050919050565b600081905092915050565b6000612e2a82612154565b612e348185612e14565b9350612e44818560208601612170565b80840191505092915050565b7f6172740000000000000000000000000000000000000000000000000000000000600082015250565b6000612e86600383612e14565b9150612e9182612e50565b600382019050919050565b7f2e6a736f6e000000000000000000000000000000000000000000000000000000600082015250565b6000612ed2600583612e14565b9150612edd82612e9c565b600582019050919050565b6000612ef48285612e1f565b9150612eff82612e79565b9150612f0b8284612e1f565b9150612f1682612ec5565b91508190509392505050565b7f4f776e61626c653a206e6577206f776e657220697320746865207a65726f206160008201527f6464726573730000000000000000000000000000000000000000000000000000602082015250565b6000612f7e60268361215f565b9150612f8982612f22565b604082019050919050565b60006020820190508181036000830152612fad81612f71565b9050919050565b7f4552433732313a206d696e7420746f20746865207a65726f2061646472657373600082015250565b6000612fea60208361215f565b9150612ff582612fb4565b602082019050919050565b6000602082019050818103600083015261301981612fdd565b9050919050565b7f4552433732313a20746f6b656e20616c7265616479206d696e74656400000000600082015250565b6000613056601c8361215f565b915061306182613020565b602082019050919050565b6000602082019050818103600083015261308581613049565b9050919050565b60006130978261220f565b91506130a28361220f565b9250827fffffffffffffffffffffffffffffffffffffffffffffffffffffffffffffffff038211156130d7576130d6612b09565b5b828201905092915050565b7f455243323938313a20726f79616c7479206665652077696c6c2065786365656460008201527f2073616c65507269636500000000000000000000000000000000000000000000602082015250565b600061313e602a8361215f565b9150613149826130e2565b604082019050919050565b6000602082019050818103600083015261316d81613131565b9050919050565b7f455243323938313a20496e76616c696420706172616d65746572730000000000600082015250565b60006131aa601b8361215f565b91506131b582613174565b602082019050919050565b600060208201905081810360008301526131d98161319d565b9050919050565b7f4552433732313a206f70657261746f7220717565727920666f72206e6f6e657860008201527f697374656e7420746f6b656e0000000000000000000000000000000000000000602082015250565b600061323c602c8361215f565b9150613247826131e0565b604082019050919050565b6000602082019050818103600083015261326b8161322f565b9050919050565b7f4552433732313a207472616e736665722066726f6d20696e636f72726563742060008201527f6f776e6572000000000000000000000000000000000000000000000000000000602082015250565b60006132ce60258361215f565b91506132d982613272565b604082019050919050565b600060208201905081810360008301526132fd816132c1565b9050919050565b7f4552433732313a207472616e7366657220746f20746865207a65726f2061646460008201527f7265737300000000000000000000000000000000000000000000000000000000602082015250565b600061336060248361215f565b915061336b82613304565b604082019050919050565b6000602082019050818103600083015261338f81613353565b9050919050565b60006133a18261220f565b91506133ac8361220f565b9250828210156133bf576133be612b09565b5b828203905092915050565b7f4552433732313a20617070726f766520746f2063616c6c657200000000000000600082015250565b600061340060198361215f565b915061340b826133ca565b602082019050919050565b6000602082019050818103600083015261342f816133f3565b9050919050565b7f4552433732313a207472616e7366657220746f206e6f6e20455243373231526560008201527f63656976657220696d706c656d656e7465720000000000000000000000000000602082015250565b600061349260328361215f565b915061349d82613436565b604082019050919050565b600060208201905081810360008301526134c181613485565b9050919050565b60006134d38261220f565b91507fffffffffffffffffffffffffffffffffffffffffffffffffffffffffffffffff820361350557613504612b09565b5b600182019050919050565b600061351b8261220f565b91506135268361220f565b92508261353657613535612b92565b5b828206905092915050565b7f4e487b7100000000000000000000000000000000000000000000000000000000600052603260045260246000fd5b600081519050919050565b600082825260208201905092915050565b600061359782613570565b6135a1818561357b565b93506135b1818560208601612170565b6135ba816121a3565b840191505092915050565b60006080820190506135da60008301876122a4565b6135e760208301866122a4565b6135f460408301856123cd565b8181036060830152613606818461358c565b905095945050505050565b600081519050613620816120c5565b92915050565b60006020828403121561363c5761363b61208f565b5b600061364a84828501613611565b9150509291505056fea26469706673582212208c2495ac5e49dc5a4279e8d71e1a0c0482212c9ff812e9e05dde2b846f28799e64736f6c634300080d0033",
  "immutableReferences": {},
  "source": "// SPDX-License-Identifier: MIT\npragma solidity >=0.4.22 <0.9.0;\n\n\nimport \"../node_modules/@openzeppelin/contracts/token/ERC721/extensions/ERC721URIStorage.sol\";\nimport \"../node_modules/@openzeppelin/contracts/token/common/ERC2981.sol\";\nimport \"../node_modules/@openzeppelin/contracts/utils/Counters.sol\";\nimport \"../node_modules/@openzeppelin/contracts/utils/Strings.sol\";\nimport \"../node_modules/@openzeppelin/contracts/utils/math/SafeMath.sol\";\nimport \"../node_modules/@openzeppelin/contracts/access/Ownable.sol\";\n\n\ncontract RoyaltyToken721 is ERC721URIStorage,ERC2981, Ownable {\n    using SafeMath for uint ;\n    using Strings for uint256;\n\n    using Counters for Counters.Counter;\n\n    Counters.Counter private tokenIdCounter;\n\n    uint public maxSupply;\n    string internal URI;\n    uint public tokenPrice;\n    uint96 internal royaltyRate;\n\n    constructor(uint _maxSupply, string memory _URI, uint _tokenPrice, uint96 _royaltyRate) ERC721(\"RoyalityToken721\", \"Royal21\"){\n\n        require(owner() != address(0), \"owner cannot be address(0)\" );\n        maxSupply = _maxSupply;\n        URI = _URI;\n        tokenPrice = _tokenPrice;\n        royaltyRate= _royaltyRate;\n    }\n\n     ////@note;\n    function mintToken() external payable{\n        \n        require(msg.sender != address(0), \"Invalid address(0)\");    // canot mint to address 0\n        require(msg.value == tokenPrice, \"payment not equal to token price\");\n        \n        tokenIdCounter.increment();         //token id start from 1\n        uint tokenId = tokenIdCounter.current();  \n\n        require(!_exists(tokenId), \"Token already minted\");    //check if token already minted \n        require(tokenId <= maxSupply, \"maximum Supply limit reached\");  //maximum total supply cannot exceed the max-Supply limit\n\n        _mint(msg.sender, tokenId);          //mint token to given address\n\n        ///@dev setting up tokn uri\n        // _setTokenURI(tokenId, URI);\n\n        ///@dev setting up royalty for creator\n\n         _setTokenRoyalty(tokenId, owner(), royaltyRate);\n    }\n\n\n    function _baseURI() internal view override returns (string memory) {\n            return URI;\n        }\n\n     function tokenURI(uint256 tokenId) public view override returns (string memory) {\n        require(_exists(tokenId), \"ERC721Metadata: URI query for nonexistent token\");\n\n        string memory baseURI = _baseURI();\n        return bytes(baseURI).length > 0 ? string(abi.encodePacked(baseURI, \"art\",tokenId.toString(),\".json\")) : \"\";\n    \n     }\n\n    /// manually override parent contract function due to name clash \n    function _beforeTokenTransfer(\n        address from, \n        address to, \n        uint256 tokenId) internal override(ERC721){\n        super._beforeTokenTransfer(from, to , tokenId);\n    }\n\n    function supportsInterface(bytes4 interfaceId) public view override (ERC721,ERC2981)returns (bool){\n       return super.supportsInterface(interfaceId);\n    }\n\n\n\n}",
  "sourcePath": "/media/umar/2EB40689B406542D/Blockchain/MarketPlace/src/contracts/RoyaltyToken721.sol",
  "compiler": {
    "name": "solc",
    "version": "0.8.13+commit.abaa5c0e.Emscripten.clang"
  },
  "schemaVersion": "3.4.7",
  "updatedAt": "2022-06-06T09:46:48.124Z",
  "networkType": "ethereum",
  "devdoc": {
    "kind": "dev",
    "methods": {
      "approve(address,uint256)": {
        "details": "See {IERC721-approve}."
      },
      "balanceOf(address)": {
        "details": "See {IERC721-balanceOf}."
      },
      "getApproved(uint256)": {
        "details": "See {IERC721-getApproved}."
      },
      "isApprovedForAll(address,address)": {
        "details": "See {IERC721-isApprovedForAll}."
      },
      "name()": {
        "details": "See {IERC721Metadata-name}."
      },
      "owner()": {
        "details": "Returns the address of the current owner."
      },
      "ownerOf(uint256)": {
        "details": "See {IERC721-ownerOf}."
      },
      "renounceOwnership()": {
        "details": "Leaves the contract without owner. It will not be possible to call `onlyOwner` functions anymore. Can only be called by the current owner. NOTE: Renouncing ownership will leave the contract without an owner, thereby removing any functionality that is only available to the owner."
      },
      "royaltyInfo(uint256,uint256)": {
        "details": "Returns how much royalty is owed and to whom, based on a sale price that may be denominated in any unit of exchange. The royalty amount is denominated and should be paid in that same unit of exchange."
      },
      "safeTransferFrom(address,address,uint256)": {
        "details": "See {IERC721-safeTransferFrom}."
      },
      "safeTransferFrom(address,address,uint256,bytes)": {
        "details": "See {IERC721-safeTransferFrom}."
      },
      "setApprovalForAll(address,bool)": {
        "details": "See {IERC721-setApprovalForAll}."
      },
      "symbol()": {
        "details": "See {IERC721Metadata-symbol}."
      },
      "tokenURI(uint256)": {
        "details": "See {IERC721Metadata-tokenURI}."
      },
      "transferFrom(address,address,uint256)": {
        "details": "See {IERC721-transferFrom}."
      },
      "transferOwnership(address)": {
        "details": "Transfers ownership of the contract to a new account (`newOwner`). Can only be called by the current owner."
      }
    },
    "version": 1
  },
  "userdoc": {
    "kind": "user",
    "methods": {},
    "version": 1
  }
}