{
  "contractName": "RoyaltyToken721",
  "abi": [
    {
      "inputs": [
        {
          "internalType": "uint256",
          "name": "_maxSupply",
          "type": "uint256"
        },
        {
          "internalType": "string",
          "name": "_URI",
          "type": "string"
        },
        {
          "internalType": "uint256",
          "name": "_tokenPrice",
          "type": "uint256"
        },
        {
          "internalType": "uint96",
          "name": "_royaltyRate",
          "type": "uint96"
        }
      ],
      "stateMutability": "nonpayable",
      "type": "constructor"
    },
    {
      "anonymous": false,
      "inputs": [
        {
          "indexed": true,
          "internalType": "address",
          "name": "owner",
          "type": "address"
        },
        {
          "indexed": true,
          "internalType": "address",
          "name": "approved",
          "type": "address"
        },
        {
          "indexed": true,
          "internalType": "uint256",
          "name": "tokenId",
          "type": "uint256"
        }
      ],
      "name": "Approval",
      "type": "event"
    },
    {
      "anonymous": false,
      "inputs": [
        {
          "indexed": true,
          "internalType": "address",
          "name": "owner",
          "type": "address"
        },
        {
          "indexed": true,
          "internalType": "address",
          "name": "operator",
          "type": "address"
        },
        {
          "indexed": false,
          "internalType": "bool",
          "name": "approved",
          "type": "bool"
        }
      ],
      "name": "ApprovalForAll",
      "type": "event"
    },
    {
      "anonymous": false,
      "inputs": [
        {
          "indexed": true,
          "internalType": "address",
          "name": "previousOwner",
          "type": "address"
        },
        {
          "indexed": true,
          "internalType": "address",
          "name": "newOwner",
          "type": "address"
        }
      ],
      "name": "OwnershipTransferred",
      "type": "event"
    },
    {
      "anonymous": false,
      "inputs": [
        {
          "indexed": true,
          "internalType": "address",
          "name": "from",
          "type": "address"
        },
        {
          "indexed": true,
          "internalType": "address",
          "name": "to",
          "type": "address"
        },
        {
          "indexed": true,
          "internalType": "uint256",
          "name": "tokenId",
          "type": "uint256"
        }
      ],
      "name": "Transfer",
      "type": "event"
    },
    {
      "inputs": [
        {
          "internalType": "address",
          "name": "to",
          "type": "address"
        },
        {
          "internalType": "uint256",
          "name": "tokenId",
          "type": "uint256"
        }
      ],
      "name": "approve",
      "outputs": [],
      "stateMutability": "nonpayable",
      "type": "function"
    },
    {
      "inputs": [
        {
          "internalType": "address",
          "name": "owner",
          "type": "address"
        }
      ],
      "name": "balanceOf",
      "outputs": [
        {
          "internalType": "uint256",
          "name": "",
          "type": "uint256"
        }
      ],
      "stateMutability": "view",
      "type": "function",
      "constant": true
    },
    {
      "inputs": [
        {
          "internalType": "uint256",
          "name": "tokenId",
          "type": "uint256"
        }
      ],
      "name": "getApproved",
      "outputs": [
        {
          "internalType": "address",
          "name": "",
          "type": "address"
        }
      ],
      "stateMutability": "view",
      "type": "function",
      "constant": true
    },
    {
      "inputs": [
        {
          "internalType": "address",
          "name": "owner",
          "type": "address"
        },
        {
          "internalType": "address",
          "name": "operator",
          "type": "address"
        }
      ],
      "name": "isApprovedForAll",
      "outputs": [
        {
          "internalType": "bool",
          "name": "",
          "type": "bool"
        }
      ],
      "stateMutability": "view",
      "type": "function",
      "constant": true
    },
    {
      "inputs": [],
      "name": "maxSupply",
      "outputs": [
        {
          "internalType": "uint256",
          "name": "",
          "type": "uint256"
        }
      ],
      "stateMutability": "view",
      "type": "function",
      "constant": true
    },
    {
      "inputs": [],
      "name": "name",
      "outputs": [
        {
          "internalType": "string",
          "name": "",
          "type": "string"
        }
      ],
      "stateMutability": "view",
      "type": "function",
      "constant": true
    },
    {
      "inputs": [],
      "name": "owner",
      "outputs": [
        {
          "internalType": "address",
          "name": "",
          "type": "address"
        }
      ],
      "stateMutability": "view",
      "type": "function",
      "constant": true
    },
    {
      "inputs": [
        {
          "internalType": "uint256",
          "name": "tokenId",
          "type": "uint256"
        }
      ],
      "name": "ownerOf",
      "outputs": [
        {
          "internalType": "address",
          "name": "",
          "type": "address"
        }
      ],
      "stateMutability": "view",
      "type": "function",
      "constant": true
    },
    {
      "inputs": [],
      "name": "renounceOwnership",
      "outputs": [],
      "stateMutability": "nonpayable",
      "type": "function"
    },
    {
      "inputs": [
        {
          "internalType": "uint256",
          "name": "_tokenId",
          "type": "uint256"
        },
        {
          "internalType": "uint256",
          "name": "_salePrice",
          "type": "uint256"
        }
      ],
      "name": "royaltyInfo",
      "outputs": [
        {
          "internalType": "address",
          "name": "",
          "type": "address"
        },
        {
          "internalType": "uint256",
          "name": "",
          "type": "uint256"
        }
      ],
      "stateMutability": "view",
      "type": "function",
      "constant": true
    },
    {
      "inputs": [
        {
          "internalType": "address",
          "name": "from",
          "type": "address"
        },
        {
          "internalType": "address",
          "name": "to",
          "type": "address"
        },
        {
          "internalType": "uint256",
          "name": "tokenId",
          "type": "uint256"
        }
      ],
      "name": "safeTransferFrom",
      "outputs": [],
      "stateMutability": "nonpayable",
      "type": "function"
    },
    {
      "inputs": [
        {
          "internalType": "address",
          "name": "from",
          "type": "address"
        },
        {
          "internalType": "address",
          "name": "to",
          "type": "address"
        },
        {
          "internalType": "uint256",
          "name": "tokenId",
          "type": "uint256"
        },
        {
          "internalType": "bytes",
          "name": "_data",
          "type": "bytes"
        }
      ],
      "name": "safeTransferFrom",
      "outputs": [],
      "stateMutability": "nonpayable",
      "type": "function"
    },
    {
      "inputs": [
        {
          "internalType": "address",
          "name": "operator",
          "type": "address"
        },
        {
          "internalType": "bool",
          "name": "approved",
          "type": "bool"
        }
      ],
      "name": "setApprovalForAll",
      "outputs": [],
      "stateMutability": "nonpayable",
      "type": "function"
    },
    {
      "inputs": [],
      "name": "symbol",
      "outputs": [
        {
          "internalType": "string",
          "name": "",
          "type": "string"
        }
      ],
      "stateMutability": "view",
      "type": "function",
      "constant": true
    },
    {
      "inputs": [],
      "name": "tokenPrice",
      "outputs": [
        {
          "internalType": "uint256",
          "name": "",
          "type": "uint256"
        }
      ],
      "stateMutability": "view",
      "type": "function",
      "constant": true
    },
    {
      "inputs": [
        {
          "internalType": "uint256",
          "name": "tokenId",
          "type": "uint256"
        }
      ],
      "name": "tokenURI",
      "outputs": [
        {
          "internalType": "string",
          "name": "",
          "type": "string"
        }
      ],
      "stateMutability": "view",
      "type": "function",
      "constant": true
    },
    {
      "inputs": [
        {
          "internalType": "address",
          "name": "from",
          "type": "address"
        },
        {
          "internalType": "address",
          "name": "to",
          "type": "address"
        },
        {
          "internalType": "uint256",
          "name": "tokenId",
          "type": "uint256"
        }
      ],
      "name": "transferFrom",
      "outputs": [],
      "stateMutability": "nonpayable",
      "type": "function"
    },
    {
      "inputs": [
        {
          "internalType": "address",
          "name": "newOwner",
          "type": "address"
        }
      ],
      "name": "transferOwnership",
      "outputs": [],
      "stateMutability": "nonpayable",
      "type": "function"
    },
    {
      "inputs": [],
      "name": "mintToken",
      "outputs": [],
      "stateMutability": "payable",
      "type": "function",
      "payable": true
    },
    {
      "inputs": [
        {
          "internalType": "bytes4",
          "name": "interfaceId",
          "type": "bytes4"
        }
      ],
      "name": "supportsInterface",
      "outputs": [
        {
          "internalType": "bool",
          "name": "",
          "type": "bool"
        }
      ],
      "stateMutability": "view",
      "type": "function",
      "constant": true
    }
  ],
  "bytecode": "0x60806040523480156200001157600080fd5b50604051620040ab380380620040ab8339818101604052810190620000379190620005a3565b6040518060400160405280601081526020017f526f79616c697479546f6b656e373231000000000000000000000000000000008152506040518060400160405280600781526020017f526f79616c3231000000000000000000000000000000000000000000000000008152508160009080519060200190620000bb929190620002d2565b508060019080519060200190620000d4929190620002d2565b505050620000f7620000eb620001da60201b60201c565b620001e260201b60201c565b600073ffffffffffffffffffffffffffffffffffffffff166200011f620002a860201b60201c565b73ffffffffffffffffffffffffffffffffffffffff160362000178576040517f08c379a00000000000000000000000000000000000000000000000000000000081526004016200016f9062000695565b60405180910390fd5b83600b8190555082600c908051906020019062000197929190620002d2565b5081600d8190555080600e60006101000a8154816bffffffffffffffffffffffff02191690836bffffffffffffffffffffffff160217905550505050506200071b565b600033905090565b6000600960009054906101000a900473ffffffffffffffffffffffffffffffffffffffff16905081600960006101000a81548173ffffffffffffffffffffffffffffffffffffffff021916908373ffffffffffffffffffffffffffffffffffffffff1602179055508173ffffffffffffffffffffffffffffffffffffffff168173ffffffffffffffffffffffffffffffffffffffff167f8be0079c531659141344cd1fd0a4f28419497f9722a3daafe3b4186f6b6457e060405160405180910390a35050565b6000600960009054906101000a900473ffffffffffffffffffffffffffffffffffffffff16905090565b828054620002e090620006e6565b90600052602060002090601f01602090048101928262000304576000855562000350565b82601f106200031f57805160ff191683800117855562000350565b8280016001018555821562000350579182015b828111156200034f57825182559160200191906001019062000332565b5b5090506200035f919062000363565b5090565b5b808211156200037e57600081600090555060010162000364565b5090565b6000604051905090565b600080fd5b600080fd5b6000819050919050565b620003ab8162000396565b8114620003b757600080fd5b50565b600081519050620003cb81620003a0565b92915050565b600080fd5b600080fd5b6000601f19601f8301169050919050565b7f4e487b7100000000000000000000000000000000000000000000000000000000600052604160045260246000fd5b6200042682620003db565b810181811067ffffffffffffffff82111715620004485762000447620003ec565b5b80604052505050565b60006200045d62000382565b90506200046b82826200041b565b919050565b600067ffffffffffffffff8211156200048e576200048d620003ec565b5b6200049982620003db565b9050602081019050919050565b60005b83811015620004c6578082015181840152602081019050620004a9565b83811115620004d6576000848401525b50505050565b6000620004f3620004ed8462000470565b62000451565b905082815260208101848484011115620005125762000511620003d6565b5b6200051f848285620004a6565b509392505050565b600082601f8301126200053f576200053e620003d1565b5b815162000551848260208601620004dc565b91505092915050565b60006bffffffffffffffffffffffff82169050919050565b6200057d816200055a565b81146200058957600080fd5b50565b6000815190506200059d8162000572565b92915050565b60008060008060808587031215620005c057620005bf6200038c565b5b6000620005d087828801620003ba565b945050602085015167ffffffffffffffff811115620005f457620005f362000391565b5b620006028782880162000527565b93505060406200061587828801620003ba565b925050606062000628878288016200058c565b91505092959194509250565b600082825260208201905092915050565b7f6f776e65722063616e6e6f742062652061646472657373283029000000000000600082015250565b60006200067d601a8362000634565b91506200068a8262000645565b602082019050919050565b60006020820190508181036000830152620006b0816200066e565b9050919050565b7f4e487b7100000000000000000000000000000000000000000000000000000000600052602260045260246000fd5b60006002820490506001821680620006ff57607f821691505b602082108103620007155762000714620006b7565b5b50919050565b613980806200072b6000396000f3fe60806040526004361061011f5760003560e01c8063715018a6116100a0578063b88d4fde11610064578063b88d4fde146103c7578063c87b56dd146103f0578063d5abeb011461042d578063e985e9c514610458578063f2fde38b146104955761011f565b8063715018a6146103065780637ff9b5961461031d5780638da5cb5b1461034857806395d89b4114610373578063a22cb4651461039e5761011f565b806323b872dd116100e757806323b872dd146101fc5780632a55205a1461022557806342842e0e146102635780636352211e1461028c57806370a08231146102c95761011f565b806301ffc9a71461012457806306fdde0314610161578063081812fc1461018c578063095ea7b3146101c95780632004ffd9146101f2575b600080fd5b34801561013057600080fd5b5061014b60048036038101906101469190612372565b6104be565b60405161015891906123ba565b60405180910390f35b34801561016d57600080fd5b506101766104d0565b604051610183919061246e565b60405180910390f35b34801561019857600080fd5b506101b360048036038101906101ae91906124c6565b610562565b6040516101c09190612534565b60405180910390f35b3480156101d557600080fd5b506101f060048036038101906101eb919061257b565b6105e7565b005b6101fa6106fe565b005b34801561020857600080fd5b50610223600480360381019061021e91906125bb565b610924565b005b34801561023157600080fd5b5061024c6004803603810190610247919061260e565b610984565b60405161025a92919061265d565b60405180910390f35b34801561026f57600080fd5b5061028a600480360381019061028591906125bb565b610b6e565b005b34801561029857600080fd5b506102b360048036038101906102ae91906124c6565b610b8e565b6040516102c09190612534565b60405180910390f35b3480156102d557600080fd5b506102f060048036038101906102eb9190612686565b610c3f565b6040516102fd91906126b3565b60405180910390f35b34801561031257600080fd5b5061031b610cf6565b005b34801561032957600080fd5b50610332610d7e565b60405161033f91906126b3565b60405180910390f35b34801561035457600080fd5b5061035d610d84565b60405161036a9190612534565b60405180910390f35b34801561037f57600080fd5b50610388610dae565b604051610395919061246e565b60405180910390f35b3480156103aa57600080fd5b506103c560048036038101906103c091906126fa565b610e40565b005b3480156103d357600080fd5b506103ee60048036038101906103e9919061286f565b610e56565b005b3480156103fc57600080fd5b50610417600480360381019061041291906124c6565b610eb8565b604051610424919061246e565b60405180910390f35b34801561043957600080fd5b50610442611009565b60405161044f91906126b3565b60405180910390f35b34801561046457600080fd5b5061047f600480360381019061047a91906128f2565b61100f565b60405161048c91906123ba565b60405180910390f35b3480156104a157600080fd5b506104bc60048036038101906104b79190612686565b6110a3565b005b60006104c98261119a565b9050919050565b6060600080546104df90612961565b80601f016020809104026020016040519081016040528092919081815260200182805461050b90612961565b80156105585780601f1061052d57610100808354040283529160200191610558565b820191906000526020600020905b81548152906001019060200180831161053b57829003601f168201915b5050505050905090565b600061056d82611214565b6105ac576040517f08c379a00000000000000000000000000000000000000000000000000000000081526004016105a390612a04565b60405180910390fd5b6004600083815260200190815260200160002060009054906101000a900473ffffffffffffffffffffffffffffffffffffffff169050919050565b60006105f282610b8e565b90508073ffffffffffffffffffffffffffffffffffffffff168373ffffffffffffffffffffffffffffffffffffffff1603610662576040517f08c379a000000000000000000000000000000000000000000000000000000000815260040161065990612a96565b60405180910390fd5b8073ffffffffffffffffffffffffffffffffffffffff16610681611280565b73ffffffffffffffffffffffffffffffffffffffff1614806106b057506106af816106aa611280565b61100f565b5b6106ef576040517f08c379a00000000000000000000000000000000000000000000000000000000081526004016106e690612b28565b60405180910390fd5b6106f98383611288565b505050565b600073ffffffffffffffffffffffffffffffffffffffff163373ffffffffffffffffffffffffffffffffffffffff160361076d576040517f08c379a000000000000000000000000000000000000000000000000000000000815260040161076490612b94565b60405180910390fd5b600d5434146107b1576040517f08c379a00000000000000000000000000000000000000000000000000000000081526004016107a890612c00565b60405180910390fd5b6107bb600a611341565b60006107c7600a611357565b90506107d281611214565b15610812576040517f08c379a000000000000000000000000000000000000000000000000000000000815260040161080990612c6c565b60405180910390fd5b600b54811115610857576040517f08c379a000000000000000000000000000000000000000000000000000000000815260040161084e90612cd8565b60405180910390fd5b6108613382611365565b6108f581600c805461087290612961565b80601f016020809104026020016040519081016040528092919081815260200182805461089e90612961565b80156108eb5780601f106108c0576101008083540402835291602001916108eb565b820191906000526020600020905b8154815290600101906020018083116108ce57829003601f168201915b505050505061153e565b61092181610901610d84565b600e60009054906101000a90046bffffffffffffffffffffffff166115b2565b50565b61093561092f611280565b82611759565b610974576040517f08c379a000000000000000000000000000000000000000000000000000000000815260040161096b90612d6a565b60405180910390fd5b61097f838383611837565b505050565b6000806000600860008681526020019081526020016000206040518060400160405290816000820160009054906101000a900473ffffffffffffffffffffffffffffffffffffffff1673ffffffffffffffffffffffffffffffffffffffff1673ffffffffffffffffffffffffffffffffffffffff1681526020016000820160149054906101000a90046bffffffffffffffffffffffff166bffffffffffffffffffffffff166bffffffffffffffffffffffff16815250509050600073ffffffffffffffffffffffffffffffffffffffff16816000015173ffffffffffffffffffffffffffffffffffffffff1603610b195760076040518060400160405290816000820160009054906101000a900473ffffffffffffffffffffffffffffffffffffffff1673ffffffffffffffffffffffffffffffffffffffff1673ffffffffffffffffffffffffffffffffffffffff1681526020016000820160149054906101000a90046bffffffffffffffffffffffff166bffffffffffffffffffffffff166bffffffffffffffffffffffff168152505090505b6000610b23611a9d565b6bffffffffffffffffffffffff1682602001516bffffffffffffffffffffffff1686610b4f9190612db9565b610b599190612e42565b90508160000151819350935050509250929050565b610b8983838360405180602001604052806000815250610e56565b505050565b6000806002600084815260200190815260200160002060009054906101000a900473ffffffffffffffffffffffffffffffffffffffff169050600073ffffffffffffffffffffffffffffffffffffffff168173ffffffffffffffffffffffffffffffffffffffff1603610c36576040517f08c379a0000000000000000000000000000000000000000000000000000000008152600401610c2d90612ee5565b60405180910390fd5b80915050919050565b60008073ffffffffffffffffffffffffffffffffffffffff168273ffffffffffffffffffffffffffffffffffffffff1603610caf576040517f08c379a0000000000000000000000000000000000000000000000000000000008152600401610ca690612f77565b60405180910390fd5b600360008373ffffffffffffffffffffffffffffffffffffffff1673ffffffffffffffffffffffffffffffffffffffff168152602001908152602001600020549050919050565b610cfe611280565b73ffffffffffffffffffffffffffffffffffffffff16610d1c610d84565b73ffffffffffffffffffffffffffffffffffffffff1614610d72576040517f08c379a0000000000000000000000000000000000000000000000000000000008152600401610d6990612fe3565b60405180910390fd5b610d7c6000611aa7565b565b600d5481565b6000600960009054906101000a900473ffffffffffffffffffffffffffffffffffffffff16905090565b606060018054610dbd90612961565b80601f0160208091040260200160405190810160405280929190818152602001828054610de990612961565b8015610e365780601f10610e0b57610100808354040283529160200191610e36565b820191906000526020600020905b815481529060010190602001808311610e1957829003601f168201915b5050505050905090565b610e52610e4b611280565b8383611b6d565b5050565b610e67610e61611280565b83611759565b610ea6576040517f08c379a0000000000000000000000000000000000000000000000000000000008152600401610e9d90612d6a565b60405180910390fd5b610eb284848484611cd9565b50505050565b6060610ec382611214565b610f02576040517f08c379a0000000000000000000000000000000000000000000000000000000008152600401610ef990613075565b60405180910390fd5b6000600660008481526020019081526020016000208054610f2290612961565b80601f0160208091040260200160405190810160405280929190818152602001828054610f4e90612961565b8015610f9b5780601f10610f7057610100808354040283529160200191610f9b565b820191906000526020600020905b815481529060010190602001808311610f7e57829003601f168201915b505050505090506000610fac611d35565b90506000815103610fc1578192505050611004565b600082511115610ff6578082604051602001610fde9291906130d1565b60405160208183030381529060405292505050611004565b610fff84611d4c565b925050505b919050565b600b5481565b6000600560008473ffffffffffffffffffffffffffffffffffffffff1673ffffffffffffffffffffffffffffffffffffffff16815260200190815260200160002060008373ffffffffffffffffffffffffffffffffffffffff1673ffffffffffffffffffffffffffffffffffffffff16815260200190815260200160002060009054906101000a900460ff16905092915050565b6110ab611280565b73ffffffffffffffffffffffffffffffffffffffff166110c9610d84565b73ffffffffffffffffffffffffffffffffffffffff161461111f576040517f08c379a000000000000000000000000000000000000000000000000000000000815260040161111690612fe3565b60405180910390fd5b600073ffffffffffffffffffffffffffffffffffffffff168173ffffffffffffffffffffffffffffffffffffffff160361118e576040517f08c379a000000000000000000000000000000000000000000000000000000000815260040161118590613167565b60405180910390fd5b61119781611aa7565b50565b60007f2a55205a000000000000000000000000000000000000000000000000000000007bffffffffffffffffffffffffffffffffffffffffffffffffffffffff1916827bffffffffffffffffffffffffffffffffffffffffffffffffffffffff1916148061120d575061120c82611df3565b5b9050919050565b60008073ffffffffffffffffffffffffffffffffffffffff166002600084815260200190815260200160002060009054906101000a900473ffffffffffffffffffffffffffffffffffffffff1673ffffffffffffffffffffffffffffffffffffffff1614159050919050565b600033905090565b816004600083815260200190815260200160002060006101000a81548173ffffffffffffffffffffffffffffffffffffffff021916908373ffffffffffffffffffffffffffffffffffffffff160217905550808273ffffffffffffffffffffffffffffffffffffffff166112fb83610b8e565b73ffffffffffffffffffffffffffffffffffffffff167f8c5be1e5ebec7d5bd14f71427d1e84f3dd0314c0f7b2291e5b200ac8c7c3b92560405160405180910390a45050565b6001816000016000828254019250508190555050565b600081600001549050919050565b600073ffffffffffffffffffffffffffffffffffffffff168273ffffffffffffffffffffffffffffffffffffffff16036113d4576040517f08c379a00000000000000000000000000000000000000000000000000000000081526004016113cb906131d3565b60405180910390fd5b6113dd81611214565b1561141d576040517f08c379a00000000000000000000000000000000000000000000000000000000081526004016114149061323f565b60405180910390fd5b61142960008383611ed5565b6001600360008473ffffffffffffffffffffffffffffffffffffffff1673ffffffffffffffffffffffffffffffffffffffff1681526020019081526020016000206000828254611479919061325f565b92505081905550816002600083815260200190815260200160002060006101000a81548173ffffffffffffffffffffffffffffffffffffffff021916908373ffffffffffffffffffffffffffffffffffffffff160217905550808273ffffffffffffffffffffffffffffffffffffffff16600073ffffffffffffffffffffffffffffffffffffffff167fddf252ad1be2c89b69c2b068fc378daa952ba7f163c4a11628f55a4df523b3ef60405160405180910390a461153a60008383611ee5565b5050565b61154782611214565b611586576040517f08c379a000000000000000000000000000000000000000000000000000000000815260040161157d90613327565b60405180910390fd5b806006600084815260200190815260200160002090805190602001906115ad929190612263565b505050565b6115ba611a9d565b6bffffffffffffffffffffffff16816bffffffffffffffffffffffff161115611618576040517f08c379a000000000000000000000000000000000000000000000000000000000815260040161160f906133b9565b60405180910390fd5b600073ffffffffffffffffffffffffffffffffffffffff168273ffffffffffffffffffffffffffffffffffffffff1603611687576040517f08c379a000000000000000000000000000000000000000000000000000000000815260040161167e90613425565b60405180910390fd5b60405180604001604052808373ffffffffffffffffffffffffffffffffffffffff168152602001826bffffffffffffffffffffffff168152506008600085815260200190815260200160002060008201518160000160006101000a81548173ffffffffffffffffffffffffffffffffffffffff021916908373ffffffffffffffffffffffffffffffffffffffff16021790555060208201518160000160146101000a8154816bffffffffffffffffffffffff02191690836bffffffffffffffffffffffff160217905550905050505050565b600061176482611214565b6117a3576040517f08c379a000000000000000000000000000000000000000000000000000000000815260040161179a906134b7565b60405180910390fd5b60006117ae83610b8e565b90508073ffffffffffffffffffffffffffffffffffffffff168473ffffffffffffffffffffffffffffffffffffffff1614806117f057506117ef818561100f565b5b8061182e57508373ffffffffffffffffffffffffffffffffffffffff1661181684610562565b73ffffffffffffffffffffffffffffffffffffffff16145b91505092915050565b8273ffffffffffffffffffffffffffffffffffffffff1661185782610b8e565b73ffffffffffffffffffffffffffffffffffffffff16146118ad576040517f08c379a00000000000000000000000000000000000000000000000000000000081526004016118a490613549565b60405180910390fd5b600073ffffffffffffffffffffffffffffffffffffffff168273ffffffffffffffffffffffffffffffffffffffff160361191c576040517f08c379a0000000000000000000000000000000000000000000000000000000008152600401611913906135db565b60405180910390fd5b611927838383611ed5565b611932600082611288565b6001600360008573ffffffffffffffffffffffffffffffffffffffff1673ffffffffffffffffffffffffffffffffffffffff168152602001908152602001600020600082825461198291906135fb565b925050819055506001600360008473ffffffffffffffffffffffffffffffffffffffff1673ffffffffffffffffffffffffffffffffffffffff16815260200190815260200160002060008282546119d9919061325f565b92505081905550816002600083815260200190815260200160002060006101000a81548173ffffffffffffffffffffffffffffffffffffffff021916908373ffffffffffffffffffffffffffffffffffffffff160217905550808273ffffffffffffffffffffffffffffffffffffffff168473ffffffffffffffffffffffffffffffffffffffff167fddf252ad1be2c89b69c2b068fc378daa952ba7f163c4a11628f55a4df523b3ef60405160405180910390a4611a98838383611ee5565b505050565b6000612710905090565b6000600960009054906101000a900473ffffffffffffffffffffffffffffffffffffffff16905081600960006101000a81548173ffffffffffffffffffffffffffffffffffffffff021916908373ffffffffffffffffffffffffffffffffffffffff1602179055508173ffffffffffffffffffffffffffffffffffffffff168173ffffffffffffffffffffffffffffffffffffffff167f8be0079c531659141344cd1fd0a4f28419497f9722a3daafe3b4186f6b6457e060405160405180910390a35050565b8173ffffffffffffffffffffffffffffffffffffffff168373ffffffffffffffffffffffffffffffffffffffff1603611bdb576040517f08c379a0000000000000000000000000000000000000000000000000000000008152600401611bd29061367b565b60405180910390fd5b80600560008573ffffffffffffffffffffffffffffffffffffffff1673ffffffffffffffffffffffffffffffffffffffff16815260200190815260200160002060008473ffffffffffffffffffffffffffffffffffffffff1673ffffffffffffffffffffffffffffffffffffffff16815260200190815260200160002060006101000a81548160ff0219169083151502179055508173ffffffffffffffffffffffffffffffffffffffff168373ffffffffffffffffffffffffffffffffffffffff167f17307eab39ab6107e8899845ad3d59bd9653f200f220920489ca2b5937696c3183604051611ccc91906123ba565b60405180910390a3505050565b611ce4848484611837565b611cf084848484611eea565b611d2f576040517f08c379a0000000000000000000000000000000000000000000000000000000008152600401611d269061370d565b60405180910390fd5b50505050565b606060405180602001604052806000815250905090565b6060611d5782611214565b611d96576040517f08c379a0000000000000000000000000000000000000000000000000000000008152600401611d8d9061379f565b60405180910390fd5b6000611da0611d35565b90506000815111611dc05760405180602001604052806000815250611deb565b80611dca84612071565b604051602001611ddb9291906130d1565b6040516020818303038152906040525b915050919050565b60007f80ac58cd000000000000000000000000000000000000000000000000000000007bffffffffffffffffffffffffffffffffffffffffffffffffffffffff1916827bffffffffffffffffffffffffffffffffffffffffffffffffffffffff19161480611ebe57507f5b5e139f000000000000000000000000000000000000000000000000000000007bffffffffffffffffffffffffffffffffffffffffffffffffffffffff1916827bffffffffffffffffffffffffffffffffffffffffffffffffffffffff1916145b80611ece5750611ecd826121d1565b5b9050919050565b611ee083838361223b565b505050565b505050565b6000611f0b8473ffffffffffffffffffffffffffffffffffffffff16612240565b15612064578373ffffffffffffffffffffffffffffffffffffffff1663150b7a02611f34611280565b8786866040518563ffffffff1660e01b8152600401611f569493929190613814565b6020604051808303816000875af1925050508015611f9257506040513d601f19601f82011682018060405250810190611f8f9190613875565b60015b612014573d8060008114611fc2576040519150601f19603f3d011682016040523d82523d6000602084013e611fc7565b606091505b50600081510361200c576040517f08c379a00000000000000000000000000000000000000000000000000000000081526004016120039061370d565b60405180910390fd5b805181602001fd5b63150b7a0260e01b7bffffffffffffffffffffffffffffffffffffffffffffffffffffffff1916817bffffffffffffffffffffffffffffffffffffffffffffffffffffffff191614915050612069565b600190505b949350505050565b6060600082036120b8576040518060400160405280600181526020017f300000000000000000000000000000000000000000000000000000000000000081525090506121cc565b600082905060005b600082146120ea5780806120d3906138a2565b915050600a826120e39190612e42565b91506120c0565b60008167ffffffffffffffff81111561210657612105612744565b5b6040519080825280601f01601f1916602001820160405280156121385781602001600182028036833780820191505090505b5090505b600085146121c55760018261215191906135fb565b9150600a8561216091906138ea565b603061216c919061325f565b60f81b8183815181106121825761218161391b565b5b60200101907effffffffffffffffffffffffffffffffffffffffffffffffffffffffffffff1916908160001a905350600a856121be9190612e42565b945061213c565b8093505050505b919050565b60007f01ffc9a7000000000000000000000000000000000000000000000000000000007bffffffffffffffffffffffffffffffffffffffffffffffffffffffff1916827bffffffffffffffffffffffffffffffffffffffffffffffffffffffff1916149050919050565b505050565b6000808273ffffffffffffffffffffffffffffffffffffffff163b119050919050565b82805461226f90612961565b90600052602060002090601f01602090048101928261229157600085556122d8565b82601f106122aa57805160ff19168380011785556122d8565b828001600101855582156122d8579182015b828111156122d75782518255916020019190600101906122bc565b5b5090506122e591906122e9565b5090565b5b808211156123025760008160009055506001016122ea565b5090565b6000604051905090565b600080fd5b600080fd5b60007fffffffff0000000000000000000000000000000000000000000000000000000082169050919050565b61234f8161231a565b811461235a57600080fd5b50565b60008135905061236c81612346565b92915050565b60006020828403121561238857612387612310565b5b60006123968482850161235d565b91505092915050565b60008115159050919050565b6123b48161239f565b82525050565b60006020820190506123cf60008301846123ab565b92915050565b600081519050919050565b600082825260208201905092915050565b60005b8381101561240f5780820151818401526020810190506123f4565b8381111561241e576000848401525b50505050565b6000601f19601f8301169050919050565b6000612440826123d5565b61244a81856123e0565b935061245a8185602086016123f1565b61246381612424565b840191505092915050565b600060208201905081810360008301526124888184612435565b905092915050565b6000819050919050565b6124a381612490565b81146124ae57600080fd5b50565b6000813590506124c08161249a565b92915050565b6000602082840312156124dc576124db612310565b5b60006124ea848285016124b1565b91505092915050565b600073ffffffffffffffffffffffffffffffffffffffff82169050919050565b600061251e826124f3565b9050919050565b61252e81612513565b82525050565b60006020820190506125496000830184612525565b92915050565b61255881612513565b811461256357600080fd5b50565b6000813590506125758161254f565b92915050565b6000806040838503121561259257612591612310565b5b60006125a085828601612566565b92505060206125b1858286016124b1565b9150509250929050565b6000806000606084860312156125d4576125d3612310565b5b60006125e286828701612566565b93505060206125f386828701612566565b9250506040612604868287016124b1565b9150509250925092565b6000806040838503121561262557612624612310565b5b6000612633858286016124b1565b9250506020612644858286016124b1565b9150509250929050565b61265781612490565b82525050565b60006040820190506126726000830185612525565b61267f602083018461264e565b9392505050565b60006020828403121561269c5761269b612310565b5b60006126aa84828501612566565b91505092915050565b60006020820190506126c8600083018461264e565b92915050565b6126d78161239f565b81146126e257600080fd5b50565b6000813590506126f4816126ce565b92915050565b6000806040838503121561271157612710612310565b5b600061271f85828601612566565b9250506020612730858286016126e5565b9150509250929050565b600080fd5b600080fd5b7f4e487b7100000000000000000000000000000000000000000000000000000000600052604160045260246000fd5b61277c82612424565b810181811067ffffffffffffffff8211171561279b5761279a612744565b5b80604052505050565b60006127ae612306565b90506127ba8282612773565b919050565b600067ffffffffffffffff8211156127da576127d9612744565b5b6127e382612424565b9050602081019050919050565b82818337600083830152505050565b600061281261280d846127bf565b6127a4565b90508281526020810184848401111561282e5761282d61273f565b5b6128398482856127f0565b509392505050565b600082601f8301126128565761285561273a565b5b81356128668482602086016127ff565b91505092915050565b6000806000806080858703121561288957612888612310565b5b600061289787828801612566565b94505060206128a887828801612566565b93505060406128b9878288016124b1565b925050606085013567ffffffffffffffff8111156128da576128d9612315565b5b6128e687828801612841565b91505092959194509250565b6000806040838503121561290957612908612310565b5b600061291785828601612566565b925050602061292885828601612566565b9150509250929050565b7f4e487b7100000000000000000000000000000000000000000000000000000000600052602260045260246000fd5b6000600282049050600182168061297957607f821691505b60208210810361298c5761298b612932565b5b50919050565b7f4552433732313a20617070726f76656420717565727920666f72206e6f6e657860008201527f697374656e7420746f6b656e0000000000000000000000000000000000000000602082015250565b60006129ee602c836123e0565b91506129f982612992565b604082019050919050565b60006020820190508181036000830152612a1d816129e1565b9050919050565b7f4552433732313a20617070726f76616c20746f2063757272656e74206f776e6560008201527f7200000000000000000000000000000000000000000000000000000000000000602082015250565b6000612a806021836123e0565b9150612a8b82612a24565b604082019050919050565b60006020820190508181036000830152612aaf81612a73565b9050919050565b7f4552433732313a20617070726f76652063616c6c6572206973206e6f74206f7760008201527f6e6572206e6f7220617070726f76656420666f7220616c6c0000000000000000602082015250565b6000612b126038836123e0565b9150612b1d82612ab6565b604082019050919050565b60006020820190508181036000830152612b4181612b05565b9050919050565b7f496e76616c696420616464726573732830290000000000000000000000000000600082015250565b6000612b7e6012836123e0565b9150612b8982612b48565b602082019050919050565b60006020820190508181036000830152612bad81612b71565b9050919050565b7f7061796d656e74206e6f7420657175616c20746f20746f6b656e207072696365600082015250565b6000612bea6020836123e0565b9150612bf582612bb4565b602082019050919050565b60006020820190508181036000830152612c1981612bdd565b9050919050565b7f546f6b656e20616c7265616479206d696e746564000000000000000000000000600082015250565b6000612c566014836123e0565b9150612c6182612c20565b602082019050919050565b60006020820190508181036000830152612c8581612c49565b9050919050565b7f6d6178696d756d20537570706c79206c696d6974207265616368656400000000600082015250565b6000612cc2601c836123e0565b9150612ccd82612c8c565b602082019050919050565b60006020820190508181036000830152612cf181612cb5565b9050919050565b7f4552433732313a207472616e736665722063616c6c6572206973206e6f74206f60008201527f776e6572206e6f7220617070726f766564000000000000000000000000000000602082015250565b6000612d546031836123e0565b9150612d5f82612cf8565b604082019050919050565b60006020820190508181036000830152612d8381612d47565b9050919050565b7f4e487b7100000000000000000000000000000000000000000000000000000000600052601160045260246000fd5b6000612dc482612490565b9150612dcf83612490565b9250817fffffffffffffffffffffffffffffffffffffffffffffffffffffffffffffffff0483118215151615612e0857612e07612d8a565b5b828202905092915050565b7f4e487b7100000000000000000000000000000000000000000000000000000000600052601260045260246000fd5b6000612e4d82612490565b9150612e5883612490565b925082612e6857612e67612e13565b5b828204905092915050565b7f4552433732313a206f776e657220717565727920666f72206e6f6e657869737460008201527f656e7420746f6b656e0000000000000000000000000000000000000000000000602082015250565b6000612ecf6029836123e0565b9150612eda82612e73565b604082019050919050565b60006020820190508181036000830152612efe81612ec2565b9050919050565b7f4552433732313a2062616c616e636520717565727920666f7220746865207a6560008201527f726f206164647265737300000000000000000000000000000000000000000000602082015250565b6000612f61602a836123e0565b9150612f6c82612f05565b604082019050919050565b60006020820190508181036000830152612f9081612f54565b9050919050565b7f4f776e61626c653a2063616c6c6572206973206e6f7420746865206f776e6572600082015250565b6000612fcd6020836123e0565b9150612fd882612f97565b602082019050919050565b60006020820190508181036000830152612ffc81612fc0565b9050919050565b7f45524337323155524953746f726167653a2055524920717565727920666f722060008201527f6e6f6e6578697374656e7420746f6b656e000000000000000000000000000000602082015250565b600061305f6031836123e0565b915061306a82613003565b604082019050919050565b6000602082019050818103600083015261308e81613052565b9050919050565b600081905092915050565b60006130ab826123d5565b6130b58185613095565b93506130c58185602086016123f1565b80840191505092915050565b60006130dd82856130a0565b91506130e982846130a0565b91508190509392505050565b7f4f776e61626c653a206e6577206f776e657220697320746865207a65726f206160008201527f6464726573730000000000000000000000000000000000000000000000000000602082015250565b60006131516026836123e0565b915061315c826130f5565b604082019050919050565b6000602082019050818103600083015261318081613144565b9050919050565b7f4552433732313a206d696e7420746f20746865207a65726f2061646472657373600082015250565b60006131bd6020836123e0565b91506131c882613187565b602082019050919050565b600060208201905081810360008301526131ec816131b0565b9050919050565b7f4552433732313a20746f6b656e20616c7265616479206d696e74656400000000600082015250565b6000613229601c836123e0565b9150613234826131f3565b602082019050919050565b600060208201905081810360008301526132588161321c565b9050919050565b600061326a82612490565b915061327583612490565b9250827fffffffffffffffffffffffffffffffffffffffffffffffffffffffffffffffff038211156132aa576132a9612d8a565b5b828201905092915050565b7f45524337323155524953746f726167653a2055524920736574206f66206e6f6e60008201527f6578697374656e7420746f6b656e000000000000000000000000000000000000602082015250565b6000613311602e836123e0565b915061331c826132b5565b604082019050919050565b6000602082019050818103600083015261334081613304565b9050919050565b7f455243323938313a20726f79616c7479206665652077696c6c2065786365656460008201527f2073616c65507269636500000000000000000000000000000000000000000000602082015250565b60006133a3602a836123e0565b91506133ae82613347565b604082019050919050565b600060208201905081810360008301526133d281613396565b9050919050565b7f455243323938313a20496e76616c696420706172616d65746572730000000000600082015250565b600061340f601b836123e0565b915061341a826133d9565b602082019050919050565b6000602082019050818103600083015261343e81613402565b9050919050565b7f4552433732313a206f70657261746f7220717565727920666f72206e6f6e657860008201527f697374656e7420746f6b656e0000000000000000000000000000000000000000602082015250565b60006134a1602c836123e0565b91506134ac82613445565b604082019050919050565b600060208201905081810360008301526134d081613494565b9050919050565b7f4552433732313a207472616e736665722066726f6d20696e636f72726563742060008201527f6f776e6572000000000000000000000000000000000000000000000000000000602082015250565b60006135336025836123e0565b915061353e826134d7565b604082019050919050565b6000602082019050818103600083015261356281613526565b9050919050565b7f4552433732313a207472616e7366657220746f20746865207a65726f2061646460008201527f7265737300000000000000000000000000000000000000000000000000000000602082015250565b60006135c56024836123e0565b91506135d082613569565b604082019050919050565b600060208201905081810360008301526135f4816135b8565b9050919050565b600061360682612490565b915061361183612490565b92508282101561362457613623612d8a565b5b828203905092915050565b7f4552433732313a20617070726f766520746f2063616c6c657200000000000000600082015250565b60006136656019836123e0565b91506136708261362f565b602082019050919050565b6000602082019050818103600083015261369481613658565b9050919050565b7f4552433732313a207472616e7366657220746f206e6f6e20455243373231526560008201527f63656976657220696d706c656d656e7465720000000000000000000000000000602082015250565b60006136f76032836123e0565b91506137028261369b565b604082019050919050565b60006020820190508181036000830152613726816136ea565b9050919050565b7f4552433732314d657461646174613a2055524920717565727920666f72206e6f60008201527f6e6578697374656e7420746f6b656e0000000000000000000000000000000000602082015250565b6000613789602f836123e0565b91506137948261372d565b604082019050919050565b600060208201905081810360008301526137b88161377c565b9050919050565b600081519050919050565b600082825260208201905092915050565b60006137e6826137bf565b6137f081856137ca565b93506138008185602086016123f1565b61380981612424565b840191505092915050565b60006080820190506138296000830187612525565b6138366020830186612525565b613843604083018561264e565b818103606083015261385581846137db565b905095945050505050565b60008151905061386f81612346565b92915050565b60006020828403121561388b5761388a612310565b5b600061389984828501613860565b91505092915050565b60006138ad82612490565b91507fffffffffffffffffffffffffffffffffffffffffffffffffffffffffffffffff82036138df576138de612d8a565b5b600182019050919050565b60006138f582612490565b915061390083612490565b9250826139105761390f612e13565b5b828206905092915050565b7f4e487b7100000000000000000000000000000000000000000000000000000000600052603260045260246000fdfea2646970667358221220121b5328c5709aeb9e1399a9f2b86064bb22e1221ec373b36faf6f4c5893b1ae64736f6c634300080d0033",
  "immutableReferences": {},
  "source": "// SPDX-License-Identifier: MIT\npragma solidity >=0.4.22 <0.9.0;\n\n\nimport \"../node_modules/@openzeppelin/contracts/token/ERC721/extensions/ERC721URIStorage.sol\";\nimport \"../node_modules/@openzeppelin/contracts/token/common/ERC2981.sol\";\nimport \"../node_modules/@openzeppelin/contracts/utils/Counters.sol\";\nimport \"../node_modules/@openzeppelin/contracts/utils/math/SafeMath.sol\";\nimport \"../node_modules/@openzeppelin/contracts/access/Ownable.sol\";\n\n\ncontract RoyaltyToken721 is ERC721URIStorage,ERC2981, Ownable {\n    using SafeMath for uint ;\n    using Counters for Counters.Counter;\n\n    Counters.Counter private tokenIdCounter;\n\n    uint public maxSupply;\n    string private URI;\n    uint public tokenPrice;\n    uint96 internal royaltyRate;\n\n    constructor(uint _maxSupply, string memory _URI, uint _tokenPrice, uint96 _royaltyRate) ERC721(\"RoyalityToken721\", \"Royal21\"){\n\n        require(owner() != address(0), \"owner cannot be address(0)\" );\n        maxSupply = _maxSupply;\n        URI = _URI;\n        tokenPrice = _tokenPrice;\n        royaltyRate= _royaltyRate;\n    }\n\n    \n     ////@note;\n    function mintToken() external payable{\n        \n        require(msg.sender != address(0), \"Invalid address(0)\");    // canot mint to address 0\n        require(msg.value == tokenPrice, \"payment not equal to token price\");\n        \n        tokenIdCounter.increment();         //token id start from 1\n        uint tokenId = tokenIdCounter.current();  \n\n        require(!_exists(tokenId), \"Token already minted\");    //check if token already minted \n        require(tokenId <= maxSupply, \"maximum Supply limit reached\");  //maximum total supply cannot exceed the max-Supply limit\n\n        _mint(msg.sender, tokenId);          //mint token to given address\n\n        ///@dev setting up tokn uri\n        _setTokenURI(tokenId, URI);\n\n        ///@dev setting up royalty for creator\n\n         _setTokenRoyalty(tokenId, owner(), royaltyRate);\n    }\n\n\n    \n   \n\n\n\n    /// manually override parent contract function due to name clash \n    function _beforeTokenTransfer(\n        address from, \n        address to, \n        uint256 tokenId) internal override(ERC721){\n        super._beforeTokenTransfer(from, to , tokenId);\n    }\n\n    function supportsInterface(bytes4 interfaceId) public view override (ERC721,ERC2981)returns (bool){\n       return super.supportsInterface(interfaceId);\n    }\n\n\n\n}",
  "sourcePath": "/media/umar/2EB40689B406542D/Blockchain/MarketPlace/src/contracts/RoyaltyToken721.sol",
  "compiler": {
    "name": "solc",
    "version": "0.8.13+commit.abaa5c0e.Emscripten.clang"
  },
  "schemaVersion": "3.4.7",
  "updatedAt": "2022-06-03T05:18:26.617Z",
  "networkType": "ethereum",
  "devdoc": {
    "kind": "dev",
    "methods": {
      "approve(address,uint256)": {
        "details": "See {IERC721-approve}."
      },
      "balanceOf(address)": {
        "details": "See {IERC721-balanceOf}."
      },
      "getApproved(uint256)": {
        "details": "See {IERC721-getApproved}."
      },
      "isApprovedForAll(address,address)": {
        "details": "See {IERC721-isApprovedForAll}."
      },
      "name()": {
        "details": "See {IERC721Metadata-name}."
      },
      "owner()": {
        "details": "Returns the address of the current owner."
      },
      "ownerOf(uint256)": {
        "details": "See {IERC721-ownerOf}."
      },
      "renounceOwnership()": {
        "details": "Leaves the contract without owner. It will not be possible to call `onlyOwner` functions anymore. Can only be called by the current owner. NOTE: Renouncing ownership will leave the contract without an owner, thereby removing any functionality that is only available to the owner."
      },
      "royaltyInfo(uint256,uint256)": {
        "details": "Returns how much royalty is owed and to whom, based on a sale price that may be denominated in any unit of exchange. The royalty amount is denominated and should be paid in that same unit of exchange."
      },
      "safeTransferFrom(address,address,uint256)": {
        "details": "See {IERC721-safeTransferFrom}."
      },
      "safeTransferFrom(address,address,uint256,bytes)": {
        "details": "See {IERC721-safeTransferFrom}."
      },
      "setApprovalForAll(address,bool)": {
        "details": "See {IERC721-setApprovalForAll}."
      },
      "symbol()": {
        "details": "See {IERC721Metadata-symbol}."
      },
      "tokenURI(uint256)": {
        "details": "See {IERC721Metadata-tokenURI}."
      },
      "transferFrom(address,address,uint256)": {
        "details": "See {IERC721-transferFrom}."
      },
      "transferOwnership(address)": {
        "details": "Transfers ownership of the contract to a new account (`newOwner`). Can only be called by the current owner."
      }
    },
    "version": 1
  },
  "userdoc": {
    "kind": "user",
    "methods": {},
    "version": 1
  }
}