{
  "contractName": "RoyaltyToken721",
  "abi": [
    {
      "inputs": [
        {
          "internalType": "uint256",
          "name": "_maxSupply",
          "type": "uint256"
        },
        {
          "internalType": "string",
          "name": "_URI",
          "type": "string"
        },
        {
          "internalType": "uint256",
          "name": "_tokenPrice",
          "type": "uint256"
        }
      ],
      "stateMutability": "nonpayable",
      "type": "constructor"
    },
    {
      "anonymous": false,
      "inputs": [
        {
          "indexed": true,
          "internalType": "address",
          "name": "owner",
          "type": "address"
        },
        {
          "indexed": true,
          "internalType": "address",
          "name": "approved",
          "type": "address"
        },
        {
          "indexed": true,
          "internalType": "uint256",
          "name": "tokenId",
          "type": "uint256"
        }
      ],
      "name": "Approval",
      "type": "event"
    },
    {
      "anonymous": false,
      "inputs": [
        {
          "indexed": true,
          "internalType": "address",
          "name": "owner",
          "type": "address"
        },
        {
          "indexed": true,
          "internalType": "address",
          "name": "operator",
          "type": "address"
        },
        {
          "indexed": false,
          "internalType": "bool",
          "name": "approved",
          "type": "bool"
        }
      ],
      "name": "ApprovalForAll",
      "type": "event"
    },
    {
      "anonymous": false,
      "inputs": [
        {
          "indexed": true,
          "internalType": "address",
          "name": "previousOwner",
          "type": "address"
        },
        {
          "indexed": true,
          "internalType": "address",
          "name": "newOwner",
          "type": "address"
        }
      ],
      "name": "OwnershipTransferred",
      "type": "event"
    },
    {
      "anonymous": false,
      "inputs": [
        {
          "indexed": true,
          "internalType": "address",
          "name": "from",
          "type": "address"
        },
        {
          "indexed": true,
          "internalType": "address",
          "name": "to",
          "type": "address"
        },
        {
          "indexed": true,
          "internalType": "uint256",
          "name": "tokenId",
          "type": "uint256"
        }
      ],
      "name": "Transfer",
      "type": "event"
    },
    {
      "inputs": [
        {
          "internalType": "address",
          "name": "to",
          "type": "address"
        },
        {
          "internalType": "uint256",
          "name": "tokenId",
          "type": "uint256"
        }
      ],
      "name": "approve",
      "outputs": [],
      "stateMutability": "nonpayable",
      "type": "function"
    },
    {
      "inputs": [
        {
          "internalType": "address",
          "name": "owner",
          "type": "address"
        }
      ],
      "name": "balanceOf",
      "outputs": [
        {
          "internalType": "uint256",
          "name": "",
          "type": "uint256"
        }
      ],
      "stateMutability": "view",
      "type": "function",
      "constant": true
    },
    {
      "inputs": [
        {
          "internalType": "uint256",
          "name": "tokenId",
          "type": "uint256"
        }
      ],
      "name": "getApproved",
      "outputs": [
        {
          "internalType": "address",
          "name": "",
          "type": "address"
        }
      ],
      "stateMutability": "view",
      "type": "function",
      "constant": true
    },
    {
      "inputs": [
        {
          "internalType": "address",
          "name": "owner",
          "type": "address"
        },
        {
          "internalType": "address",
          "name": "operator",
          "type": "address"
        }
      ],
      "name": "isApprovedForAll",
      "outputs": [
        {
          "internalType": "bool",
          "name": "",
          "type": "bool"
        }
      ],
      "stateMutability": "view",
      "type": "function",
      "constant": true
    },
    {
      "inputs": [],
      "name": "maxSupply",
      "outputs": [
        {
          "internalType": "uint256",
          "name": "",
          "type": "uint256"
        }
      ],
      "stateMutability": "view",
      "type": "function",
      "constant": true
    },
    {
      "inputs": [],
      "name": "name",
      "outputs": [
        {
          "internalType": "string",
          "name": "",
          "type": "string"
        }
      ],
      "stateMutability": "view",
      "type": "function",
      "constant": true
    },
    {
      "inputs": [],
      "name": "owner",
      "outputs": [
        {
          "internalType": "address",
          "name": "",
          "type": "address"
        }
      ],
      "stateMutability": "view",
      "type": "function",
      "constant": true
    },
    {
      "inputs": [
        {
          "internalType": "uint256",
          "name": "tokenId",
          "type": "uint256"
        }
      ],
      "name": "ownerOf",
      "outputs": [
        {
          "internalType": "address",
          "name": "",
          "type": "address"
        }
      ],
      "stateMutability": "view",
      "type": "function",
      "constant": true
    },
    {
      "inputs": [],
      "name": "renounceOwnership",
      "outputs": [],
      "stateMutability": "nonpayable",
      "type": "function"
    },
    {
      "inputs": [
        {
          "internalType": "uint256",
          "name": "_tokenId",
          "type": "uint256"
        },
        {
          "internalType": "uint256",
          "name": "_salePrice",
          "type": "uint256"
        }
      ],
      "name": "royaltyInfo",
      "outputs": [
        {
          "internalType": "address",
          "name": "",
          "type": "address"
        },
        {
          "internalType": "uint256",
          "name": "",
          "type": "uint256"
        }
      ],
      "stateMutability": "view",
      "type": "function",
      "constant": true
    },
    {
      "inputs": [
        {
          "internalType": "address",
          "name": "from",
          "type": "address"
        },
        {
          "internalType": "address",
          "name": "to",
          "type": "address"
        },
        {
          "internalType": "uint256",
          "name": "tokenId",
          "type": "uint256"
        }
      ],
      "name": "safeTransferFrom",
      "outputs": [],
      "stateMutability": "nonpayable",
      "type": "function"
    },
    {
      "inputs": [
        {
          "internalType": "address",
          "name": "from",
          "type": "address"
        },
        {
          "internalType": "address",
          "name": "to",
          "type": "address"
        },
        {
          "internalType": "uint256",
          "name": "tokenId",
          "type": "uint256"
        },
        {
          "internalType": "bytes",
          "name": "_data",
          "type": "bytes"
        }
      ],
      "name": "safeTransferFrom",
      "outputs": [],
      "stateMutability": "nonpayable",
      "type": "function"
    },
    {
      "inputs": [
        {
          "internalType": "address",
          "name": "operator",
          "type": "address"
        },
        {
          "internalType": "bool",
          "name": "approved",
          "type": "bool"
        }
      ],
      "name": "setApprovalForAll",
      "outputs": [],
      "stateMutability": "nonpayable",
      "type": "function"
    },
    {
      "inputs": [],
      "name": "symbol",
      "outputs": [
        {
          "internalType": "string",
          "name": "",
          "type": "string"
        }
      ],
      "stateMutability": "view",
      "type": "function",
      "constant": true
    },
    {
      "inputs": [],
      "name": "tokenPrice",
      "outputs": [
        {
          "internalType": "uint256",
          "name": "",
          "type": "uint256"
        }
      ],
      "stateMutability": "view",
      "type": "function",
      "constant": true
    },
    {
      "inputs": [
        {
          "internalType": "uint256",
          "name": "tokenId",
          "type": "uint256"
        }
      ],
      "name": "tokenURI",
      "outputs": [
        {
          "internalType": "string",
          "name": "",
          "type": "string"
        }
      ],
      "stateMutability": "view",
      "type": "function",
      "constant": true
    },
    {
      "inputs": [
        {
          "internalType": "address",
          "name": "from",
          "type": "address"
        },
        {
          "internalType": "address",
          "name": "to",
          "type": "address"
        },
        {
          "internalType": "uint256",
          "name": "tokenId",
          "type": "uint256"
        }
      ],
      "name": "transferFrom",
      "outputs": [],
      "stateMutability": "nonpayable",
      "type": "function"
    },
    {
      "inputs": [
        {
          "internalType": "address",
          "name": "newOwner",
          "type": "address"
        }
      ],
      "name": "transferOwnership",
      "outputs": [],
      "stateMutability": "nonpayable",
      "type": "function"
    },
    {
      "inputs": [
        {
          "internalType": "uint256",
          "name": "_royaltyRate",
          "type": "uint256"
        }
      ],
      "name": "mintToken",
      "outputs": [],
      "stateMutability": "payable",
      "type": "function",
      "payable": true
    },
    {
      "inputs": [
        {
          "internalType": "bytes4",
          "name": "interfaceId",
          "type": "bytes4"
        }
      ],
      "name": "supportsInterface",
      "outputs": [
        {
          "internalType": "bool",
          "name": "",
          "type": "bool"
        }
      ],
      "stateMutability": "view",
      "type": "function",
      "constant": true
    }
  ],
  "bytecode": "0x60806040523480156200001157600080fd5b506040516200408338038062004083833981810160405281019062000037919062000528565b6040518060400160405280601081526020017f526f79616c697479546f6b656e373231000000000000000000000000000000008152506040518060400160405280600781526020017f526f79616c3231000000000000000000000000000000000000000000000000008152508160009080519060200190620000bb929190620002a0565b508060019080519060200190620000d4929190620002a0565b505050620000f7620000eb620001a860201b60201c565b620001b060201b60201c565b600073ffffffffffffffffffffffffffffffffffffffff166200011f6200027660201b60201c565b73ffffffffffffffffffffffffffffffffffffffff160362000178576040517f08c379a00000000000000000000000000000000000000000000000000000000081526004016200016f9062000604565b60405180910390fd5b82600b8190555081600c908051906020019062000197929190620002a0565b5080600d819055505050506200068a565b600033905090565b6000600960009054906101000a900473ffffffffffffffffffffffffffffffffffffffff16905081600960006101000a81548173ffffffffffffffffffffffffffffffffffffffff021916908373ffffffffffffffffffffffffffffffffffffffff1602179055508173ffffffffffffffffffffffffffffffffffffffff168173ffffffffffffffffffffffffffffffffffffffff167f8be0079c531659141344cd1fd0a4f28419497f9722a3daafe3b4186f6b6457e060405160405180910390a35050565b6000600960009054906101000a900473ffffffffffffffffffffffffffffffffffffffff16905090565b828054620002ae9062000655565b90600052602060002090601f016020900481019282620002d257600085556200031e565b82601f10620002ed57805160ff19168380011785556200031e565b828001600101855582156200031e579182015b828111156200031d57825182559160200191906001019062000300565b5b5090506200032d919062000331565b5090565b5b808211156200034c57600081600090555060010162000332565b5090565b6000604051905090565b600080fd5b600080fd5b6000819050919050565b620003798162000364565b81146200038557600080fd5b50565b60008151905062000399816200036e565b92915050565b600080fd5b600080fd5b6000601f19601f8301169050919050565b7f4e487b7100000000000000000000000000000000000000000000000000000000600052604160045260246000fd5b620003f482620003a9565b810181811067ffffffffffffffff82111715620004165762000415620003ba565b5b80604052505050565b60006200042b62000350565b9050620004398282620003e9565b919050565b600067ffffffffffffffff8211156200045c576200045b620003ba565b5b6200046782620003a9565b9050602081019050919050565b60005b838110156200049457808201518184015260208101905062000477565b83811115620004a4576000848401525b50505050565b6000620004c1620004bb846200043e565b6200041f565b905082815260208101848484011115620004e057620004df620003a4565b5b620004ed84828562000474565b509392505050565b600082601f8301126200050d576200050c6200039f565b5b81516200051f848260208601620004aa565b91505092915050565b6000806000606084860312156200054457620005436200035a565b5b6000620005548682870162000388565b935050602084015167ffffffffffffffff8111156200057857620005776200035f565b5b6200058686828701620004f5565b9250506040620005998682870162000388565b9150509250925092565b600082825260208201905092915050565b7f6f776e65722063616e6e6f742062652061646472657373283029000000000000600082015250565b6000620005ec601a83620005a3565b9150620005f982620005b4565b602082019050919050565b600060208201905081810360008301526200061f81620005dd565b9050919050565b7f4e487b7100000000000000000000000000000000000000000000000000000000600052602260045260246000fd5b600060028204905060018216806200066e57607f821691505b60208210810362000684576200068362000626565b5b50919050565b6139e9806200069a6000396000f3fe60806040526004361061011f5760003560e01c80637ff9b596116100a0578063c634d03211610064578063c634d032146103e6578063c87b56dd14610402578063d5abeb011461043f578063e985e9c51461046a578063f2fde38b146104a75761011f565b80637ff9b596146103135780638da5cb5b1461033e57806395d89b4114610369578063a22cb46514610394578063b88d4fde146103bd5761011f565b80632a55205a116100e75780632a55205a1461021b57806342842e0e146102595780636352211e1461028257806370a08231146102bf578063715018a6146102fc5761011f565b806301ffc9a71461012457806306fdde0314610161578063081812fc1461018c578063095ea7b3146101c957806323b872dd146101f2575b600080fd5b34801561013057600080fd5b5061014b6004803603810190610146919061237d565b6104d0565b60405161015891906123c5565b60405180910390f35b34801561016d57600080fd5b506101766104e2565b6040516101839190612479565b60405180910390f35b34801561019857600080fd5b506101b360048036038101906101ae91906124d1565b610574565b6040516101c0919061253f565b60405180910390f35b3480156101d557600080fd5b506101f060048036038101906101eb9190612586565b6105f9565b005b3480156101fe57600080fd5b50610219600480360381019061021491906125c6565b610710565b005b34801561022757600080fd5b50610242600480360381019061023d9190612619565b610770565b604051610250929190612668565b60405180910390f35b34801561026557600080fd5b50610280600480360381019061027b91906125c6565b61095a565b005b34801561028e57600080fd5b506102a960048036038101906102a491906124d1565b61097a565b6040516102b6919061253f565b60405180910390f35b3480156102cb57600080fd5b506102e660048036038101906102e19190612691565b610a2b565b6040516102f391906126be565b60405180910390f35b34801561030857600080fd5b50610311610ae2565b005b34801561031f57600080fd5b50610328610b6a565b60405161033591906126be565b60405180910390f35b34801561034a57600080fd5b50610353610b70565b604051610360919061253f565b60405180910390f35b34801561037557600080fd5b5061037e610b9a565b60405161038b9190612479565b60405180910390f35b3480156103a057600080fd5b506103bb60048036038101906103b69190612705565b610c2c565b005b3480156103c957600080fd5b506103e460048036038101906103df919061287a565b610c42565b005b61040060048036038101906103fb91906124d1565b610ca4565b005b34801561040e57600080fd5b50610429600480360381019061042491906124d1565b610ec3565b6040516104369190612479565b60405180910390f35b34801561044b57600080fd5b50610454611014565b60405161046191906126be565b60405180910390f35b34801561047657600080fd5b50610491600480360381019061048c91906128fd565b61101a565b60405161049e91906123c5565b60405180910390f35b3480156104b357600080fd5b506104ce60048036038101906104c99190612691565b6110ae565b005b60006104db826111a5565b9050919050565b6060600080546104f19061296c565b80601f016020809104026020016040519081016040528092919081815260200182805461051d9061296c565b801561056a5780601f1061053f5761010080835404028352916020019161056a565b820191906000526020600020905b81548152906001019060200180831161054d57829003601f168201915b5050505050905090565b600061057f8261121f565b6105be576040517f08c379a00000000000000000000000000000000000000000000000000000000081526004016105b590612a0f565b60405180910390fd5b6004600083815260200190815260200160002060009054906101000a900473ffffffffffffffffffffffffffffffffffffffff169050919050565b60006106048261097a565b90508073ffffffffffffffffffffffffffffffffffffffff168373ffffffffffffffffffffffffffffffffffffffff1603610674576040517f08c379a000000000000000000000000000000000000000000000000000000000815260040161066b90612aa1565b60405180910390fd5b8073ffffffffffffffffffffffffffffffffffffffff1661069361128b565b73ffffffffffffffffffffffffffffffffffffffff1614806106c257506106c1816106bc61128b565b61101a565b5b610701576040517f08c379a00000000000000000000000000000000000000000000000000000000081526004016106f890612b33565b60405180910390fd5b61070b8383611293565b505050565b61072161071b61128b565b8261134c565b610760576040517f08c379a000000000000000000000000000000000000000000000000000000000815260040161075790612bc5565b60405180910390fd5b61076b83838361142a565b505050565b6000806000600860008681526020019081526020016000206040518060400160405290816000820160009054906101000a900473ffffffffffffffffffffffffffffffffffffffff1673ffffffffffffffffffffffffffffffffffffffff1673ffffffffffffffffffffffffffffffffffffffff1681526020016000820160149054906101000a90046bffffffffffffffffffffffff166bffffffffffffffffffffffff166bffffffffffffffffffffffff16815250509050600073ffffffffffffffffffffffffffffffffffffffff16816000015173ffffffffffffffffffffffffffffffffffffffff16036109055760076040518060400160405290816000820160009054906101000a900473ffffffffffffffffffffffffffffffffffffffff1673ffffffffffffffffffffffffffffffffffffffff1673ffffffffffffffffffffffffffffffffffffffff1681526020016000820160149054906101000a90046bffffffffffffffffffffffff166bffffffffffffffffffffffff166bffffffffffffffffffffffff168152505090505b600061090f611690565b6bffffffffffffffffffffffff1682602001516bffffffffffffffffffffffff168661093b9190612c14565b6109459190612c9d565b90508160000151819350935050509250929050565b61097583838360405180602001604052806000815250610c42565b505050565b6000806002600084815260200190815260200160002060009054906101000a900473ffffffffffffffffffffffffffffffffffffffff169050600073ffffffffffffffffffffffffffffffffffffffff168173ffffffffffffffffffffffffffffffffffffffff1603610a22576040517f08c379a0000000000000000000000000000000000000000000000000000000008152600401610a1990612d40565b60405180910390fd5b80915050919050565b60008073ffffffffffffffffffffffffffffffffffffffff168273ffffffffffffffffffffffffffffffffffffffff1603610a9b576040517f08c379a0000000000000000000000000000000000000000000000000000000008152600401610a9290612dd2565b60405180910390fd5b600360008373ffffffffffffffffffffffffffffffffffffffff1673ffffffffffffffffffffffffffffffffffffffff168152602001908152602001600020549050919050565b610aea61128b565b73ffffffffffffffffffffffffffffffffffffffff16610b08610b70565b73ffffffffffffffffffffffffffffffffffffffff1614610b5e576040517f08c379a0000000000000000000000000000000000000000000000000000000008152600401610b5590612e3e565b60405180910390fd5b610b68600061169a565b565b600d5481565b6000600960009054906101000a900473ffffffffffffffffffffffffffffffffffffffff16905090565b606060018054610ba99061296c565b80601f0160208091040260200160405190810160405280929190818152602001828054610bd59061296c565b8015610c225780601f10610bf757610100808354040283529160200191610c22565b820191906000526020600020905b815481529060010190602001808311610c0557829003601f168201915b5050505050905090565b610c3e610c3761128b565b8383611760565b5050565b610c53610c4d61128b565b8361134c565b610c92576040517f08c379a0000000000000000000000000000000000000000000000000000000008152600401610c8990612bc5565b60405180910390fd5b610c9e848484846118cc565b50505050565b600073ffffffffffffffffffffffffffffffffffffffff163373ffffffffffffffffffffffffffffffffffffffff1603610d13576040517f08c379a0000000000000000000000000000000000000000000000000000000008152600401610d0a90612eaa565b60405180910390fd5b600d543414610d57576040517f08c379a0000000000000000000000000000000000000000000000000000000008152600401610d4e90612f16565b60405180910390fd5b610d61600a611928565b6000610d6d600a61193e565b9050610d788161121f565b15610db8576040517f08c379a0000000000000000000000000000000000000000000000000000000008152600401610daf90612f82565b60405180910390fd5b600b54811115610dfd576040517f08c379a0000000000000000000000000000000000000000000000000000000008152600401610df490612fee565b60405180910390fd5b610e07338261194c565b610e9b81600c8054610e189061296c565b80601f0160208091040260200160405190810160405280929190818152602001828054610e449061296c565b8015610e915780601f10610e6657610100808354040283529160200191610e91565b820191906000526020600020905b815481529060010190602001808311610e7457829003601f168201915b5050505050611b25565b6000606483610eaa9190613026565b9050610ebe82610eb8610b70565b83611b99565b505050565b6060610ece8261121f565b610f0d576040517f08c379a0000000000000000000000000000000000000000000000000000000008152600401610f04906130de565b60405180910390fd5b6000600660008481526020019081526020016000208054610f2d9061296c565b80601f0160208091040260200160405190810160405280929190818152602001828054610f599061296c565b8015610fa65780601f10610f7b57610100808354040283529160200191610fa6565b820191906000526020600020905b815481529060010190602001808311610f8957829003601f168201915b505050505090506000610fb7611d40565b90506000815103610fcc57819250505061100f565b600082511115611001578082604051602001610fe992919061313a565b6040516020818303038152906040529250505061100f565b61100a84611d57565b925050505b919050565b600b5481565b6000600560008473ffffffffffffffffffffffffffffffffffffffff1673ffffffffffffffffffffffffffffffffffffffff16815260200190815260200160002060008373ffffffffffffffffffffffffffffffffffffffff1673ffffffffffffffffffffffffffffffffffffffff16815260200190815260200160002060009054906101000a900460ff16905092915050565b6110b661128b565b73ffffffffffffffffffffffffffffffffffffffff166110d4610b70565b73ffffffffffffffffffffffffffffffffffffffff161461112a576040517f08c379a000000000000000000000000000000000000000000000000000000000815260040161112190612e3e565b60405180910390fd5b600073ffffffffffffffffffffffffffffffffffffffff168173ffffffffffffffffffffffffffffffffffffffff1603611199576040517f08c379a0000000000000000000000000000000000000000000000000000000008152600401611190906131d0565b60405180910390fd5b6111a28161169a565b50565b60007f2a55205a000000000000000000000000000000000000000000000000000000007bffffffffffffffffffffffffffffffffffffffffffffffffffffffff1916827bffffffffffffffffffffffffffffffffffffffffffffffffffffffff19161480611218575061121782611dfe565b5b9050919050565b60008073ffffffffffffffffffffffffffffffffffffffff166002600084815260200190815260200160002060009054906101000a900473ffffffffffffffffffffffffffffffffffffffff1673ffffffffffffffffffffffffffffffffffffffff1614159050919050565b600033905090565b816004600083815260200190815260200160002060006101000a81548173ffffffffffffffffffffffffffffffffffffffff021916908373ffffffffffffffffffffffffffffffffffffffff160217905550808273ffffffffffffffffffffffffffffffffffffffff166113068361097a565b73ffffffffffffffffffffffffffffffffffffffff167f8c5be1e5ebec7d5bd14f71427d1e84f3dd0314c0f7b2291e5b200ac8c7c3b92560405160405180910390a45050565b60006113578261121f565b611396576040517f08c379a000000000000000000000000000000000000000000000000000000000815260040161138d90613262565b60405180910390fd5b60006113a18361097a565b90508073ffffffffffffffffffffffffffffffffffffffff168473ffffffffffffffffffffffffffffffffffffffff1614806113e357506113e2818561101a565b5b8061142157508373ffffffffffffffffffffffffffffffffffffffff1661140984610574565b73ffffffffffffffffffffffffffffffffffffffff16145b91505092915050565b8273ffffffffffffffffffffffffffffffffffffffff1661144a8261097a565b73ffffffffffffffffffffffffffffffffffffffff16146114a0576040517f08c379a0000000000000000000000000000000000000000000000000000000008152600401611497906132f4565b60405180910390fd5b600073ffffffffffffffffffffffffffffffffffffffff168273ffffffffffffffffffffffffffffffffffffffff160361150f576040517f08c379a000000000000000000000000000000000000000000000000000000000815260040161150690613386565b60405180910390fd5b61151a838383611ee0565b611525600082611293565b6001600360008573ffffffffffffffffffffffffffffffffffffffff1673ffffffffffffffffffffffffffffffffffffffff168152602001908152602001600020600082825461157591906133a6565b925050819055506001600360008473ffffffffffffffffffffffffffffffffffffffff1673ffffffffffffffffffffffffffffffffffffffff16815260200190815260200160002060008282546115cc91906133da565b92505081905550816002600083815260200190815260200160002060006101000a81548173ffffffffffffffffffffffffffffffffffffffff021916908373ffffffffffffffffffffffffffffffffffffffff160217905550808273ffffffffffffffffffffffffffffffffffffffff168473ffffffffffffffffffffffffffffffffffffffff167fddf252ad1be2c89b69c2b068fc378daa952ba7f163c4a11628f55a4df523b3ef60405160405180910390a461168b838383611ef0565b505050565b6000612710905090565b6000600960009054906101000a900473ffffffffffffffffffffffffffffffffffffffff16905081600960006101000a81548173ffffffffffffffffffffffffffffffffffffffff021916908373ffffffffffffffffffffffffffffffffffffffff1602179055508173ffffffffffffffffffffffffffffffffffffffff168173ffffffffffffffffffffffffffffffffffffffff167f8be0079c531659141344cd1fd0a4f28419497f9722a3daafe3b4186f6b6457e060405160405180910390a35050565b8173ffffffffffffffffffffffffffffffffffffffff168373ffffffffffffffffffffffffffffffffffffffff16036117ce576040517f08c379a00000000000000000000000000000000000000000000000000000000081526004016117c59061347c565b60405180910390fd5b80600560008573ffffffffffffffffffffffffffffffffffffffff1673ffffffffffffffffffffffffffffffffffffffff16815260200190815260200160002060008473ffffffffffffffffffffffffffffffffffffffff1673ffffffffffffffffffffffffffffffffffffffff16815260200190815260200160002060006101000a81548160ff0219169083151502179055508173ffffffffffffffffffffffffffffffffffffffff168373ffffffffffffffffffffffffffffffffffffffff167f17307eab39ab6107e8899845ad3d59bd9653f200f220920489ca2b5937696c31836040516118bf91906123c5565b60405180910390a3505050565b6118d784848461142a565b6118e384848484611ef5565b611922576040517f08c379a00000000000000000000000000000000000000000000000000000000081526004016119199061350e565b60405180910390fd5b50505050565b6001816000016000828254019250508190555050565b600081600001549050919050565b600073ffffffffffffffffffffffffffffffffffffffff168273ffffffffffffffffffffffffffffffffffffffff16036119bb576040517f08c379a00000000000000000000000000000000000000000000000000000000081526004016119b29061357a565b60405180910390fd5b6119c48161121f565b15611a04576040517f08c379a00000000000000000000000000000000000000000000000000000000081526004016119fb906135e6565b60405180910390fd5b611a1060008383611ee0565b6001600360008473ffffffffffffffffffffffffffffffffffffffff1673ffffffffffffffffffffffffffffffffffffffff1681526020019081526020016000206000828254611a6091906133da565b92505081905550816002600083815260200190815260200160002060006101000a81548173ffffffffffffffffffffffffffffffffffffffff021916908373ffffffffffffffffffffffffffffffffffffffff160217905550808273ffffffffffffffffffffffffffffffffffffffff16600073ffffffffffffffffffffffffffffffffffffffff167fddf252ad1be2c89b69c2b068fc378daa952ba7f163c4a11628f55a4df523b3ef60405160405180910390a4611b2160008383611ef0565b5050565b611b2e8261121f565b611b6d576040517f08c379a0000000000000000000000000000000000000000000000000000000008152600401611b6490613678565b60405180910390fd5b80600660008481526020019081526020016000209080519060200190611b9492919061226e565b505050565b611ba1611690565b6bffffffffffffffffffffffff16816bffffffffffffffffffffffff161115611bff576040517f08c379a0000000000000000000000000000000000000000000000000000000008152600401611bf69061370a565b60405180910390fd5b600073ffffffffffffffffffffffffffffffffffffffff168273ffffffffffffffffffffffffffffffffffffffff1603611c6e576040517f08c379a0000000000000000000000000000000000000000000000000000000008152600401611c6590613776565b60405180910390fd5b60405180604001604052808373ffffffffffffffffffffffffffffffffffffffff168152602001826bffffffffffffffffffffffff168152506008600085815260200190815260200160002060008201518160000160006101000a81548173ffffffffffffffffffffffffffffffffffffffff021916908373ffffffffffffffffffffffffffffffffffffffff16021790555060208201518160000160146101000a8154816bffffffffffffffffffffffff02191690836bffffffffffffffffffffffff160217905550905050505050565b606060405180602001604052806000815250905090565b6060611d628261121f565b611da1576040517f08c379a0000000000000000000000000000000000000000000000000000000008152600401611d9890613808565b60405180910390fd5b6000611dab611d40565b90506000815111611dcb5760405180602001604052806000815250611df6565b80611dd58461207c565b604051602001611de692919061313a565b6040516020818303038152906040525b915050919050565b60007f80ac58cd000000000000000000000000000000000000000000000000000000007bffffffffffffffffffffffffffffffffffffffffffffffffffffffff1916827bffffffffffffffffffffffffffffffffffffffffffffffffffffffff19161480611ec957507f5b5e139f000000000000000000000000000000000000000000000000000000007bffffffffffffffffffffffffffffffffffffffffffffffffffffffff1916827bffffffffffffffffffffffffffffffffffffffffffffffffffffffff1916145b80611ed95750611ed8826121dc565b5b9050919050565b611eeb838383612246565b505050565b505050565b6000611f168473ffffffffffffffffffffffffffffffffffffffff1661224b565b1561206f578373ffffffffffffffffffffffffffffffffffffffff1663150b7a02611f3f61128b565b8786866040518563ffffffff1660e01b8152600401611f61949392919061387d565b6020604051808303816000875af1925050508015611f9d57506040513d601f19601f82011682018060405250810190611f9a91906138de565b60015b61201f573d8060008114611fcd576040519150601f19603f3d011682016040523d82523d6000602084013e611fd2565b606091505b506000815103612017576040517f08c379a000000000000000000000000000000000000000000000000000000000815260040161200e9061350e565b60405180910390fd5b805181602001fd5b63150b7a0260e01b7bffffffffffffffffffffffffffffffffffffffffffffffffffffffff1916817bffffffffffffffffffffffffffffffffffffffffffffffffffffffff191614915050612074565b600190505b949350505050565b6060600082036120c3576040518060400160405280600181526020017f300000000000000000000000000000000000000000000000000000000000000081525090506121d7565b600082905060005b600082146120f55780806120de9061390b565b915050600a826120ee9190612c9d565b91506120cb565b60008167ffffffffffffffff8111156121115761211061274f565b5b6040519080825280601f01601f1916602001820160405280156121435781602001600182028036833780820191505090505b5090505b600085146121d05760018261215c91906133a6565b9150600a8561216b9190613953565b603061217791906133da565b60f81b81838151811061218d5761218c613984565b5b60200101907effffffffffffffffffffffffffffffffffffffffffffffffffffffffffffff1916908160001a905350600a856121c99190612c9d565b9450612147565b8093505050505b919050565b60007f01ffc9a7000000000000000000000000000000000000000000000000000000007bffffffffffffffffffffffffffffffffffffffffffffffffffffffff1916827bffffffffffffffffffffffffffffffffffffffffffffffffffffffff1916149050919050565b505050565b6000808273ffffffffffffffffffffffffffffffffffffffff163b119050919050565b82805461227a9061296c565b90600052602060002090601f01602090048101928261229c57600085556122e3565b82601f106122b557805160ff19168380011785556122e3565b828001600101855582156122e3579182015b828111156122e25782518255916020019190600101906122c7565b5b5090506122f091906122f4565b5090565b5b8082111561230d5760008160009055506001016122f5565b5090565b6000604051905090565b600080fd5b600080fd5b60007fffffffff0000000000000000000000000000000000000000000000000000000082169050919050565b61235a81612325565b811461236557600080fd5b50565b60008135905061237781612351565b92915050565b6000602082840312156123935761239261231b565b5b60006123a184828501612368565b91505092915050565b60008115159050919050565b6123bf816123aa565b82525050565b60006020820190506123da60008301846123b6565b92915050565b600081519050919050565b600082825260208201905092915050565b60005b8381101561241a5780820151818401526020810190506123ff565b83811115612429576000848401525b50505050565b6000601f19601f8301169050919050565b600061244b826123e0565b61245581856123eb565b93506124658185602086016123fc565b61246e8161242f565b840191505092915050565b600060208201905081810360008301526124938184612440565b905092915050565b6000819050919050565b6124ae8161249b565b81146124b957600080fd5b50565b6000813590506124cb816124a5565b92915050565b6000602082840312156124e7576124e661231b565b5b60006124f5848285016124bc565b91505092915050565b600073ffffffffffffffffffffffffffffffffffffffff82169050919050565b6000612529826124fe565b9050919050565b6125398161251e565b82525050565b60006020820190506125546000830184612530565b92915050565b6125638161251e565b811461256e57600080fd5b50565b6000813590506125808161255a565b92915050565b6000806040838503121561259d5761259c61231b565b5b60006125ab85828601612571565b92505060206125bc858286016124bc565b9150509250929050565b6000806000606084860312156125df576125de61231b565b5b60006125ed86828701612571565b93505060206125fe86828701612571565b925050604061260f868287016124bc565b9150509250925092565b600080604083850312156126305761262f61231b565b5b600061263e858286016124bc565b925050602061264f858286016124bc565b9150509250929050565b6126628161249b565b82525050565b600060408201905061267d6000830185612530565b61268a6020830184612659565b9392505050565b6000602082840312156126a7576126a661231b565b5b60006126b584828501612571565b91505092915050565b60006020820190506126d36000830184612659565b92915050565b6126e2816123aa565b81146126ed57600080fd5b50565b6000813590506126ff816126d9565b92915050565b6000806040838503121561271c5761271b61231b565b5b600061272a85828601612571565b925050602061273b858286016126f0565b9150509250929050565b600080fd5b600080fd5b7f4e487b7100000000000000000000000000000000000000000000000000000000600052604160045260246000fd5b6127878261242f565b810181811067ffffffffffffffff821117156127a6576127a561274f565b5b80604052505050565b60006127b9612311565b90506127c5828261277e565b919050565b600067ffffffffffffffff8211156127e5576127e461274f565b5b6127ee8261242f565b9050602081019050919050565b82818337600083830152505050565b600061281d612818846127ca565b6127af565b9050828152602081018484840111156128395761283861274a565b5b6128448482856127fb565b509392505050565b600082601f83011261286157612860612745565b5b813561287184826020860161280a565b91505092915050565b600080600080608085870312156128945761289361231b565b5b60006128a287828801612571565b94505060206128b387828801612571565b93505060406128c4878288016124bc565b925050606085013567ffffffffffffffff8111156128e5576128e4612320565b5b6128f18782880161284c565b91505092959194509250565b600080604083850312156129145761291361231b565b5b600061292285828601612571565b925050602061293385828601612571565b9150509250929050565b7f4e487b7100000000000000000000000000000000000000000000000000000000600052602260045260246000fd5b6000600282049050600182168061298457607f821691505b6020821081036129975761299661293d565b5b50919050565b7f4552433732313a20617070726f76656420717565727920666f72206e6f6e657860008201527f697374656e7420746f6b656e0000000000000000000000000000000000000000602082015250565b60006129f9602c836123eb565b9150612a048261299d565b604082019050919050565b60006020820190508181036000830152612a28816129ec565b9050919050565b7f4552433732313a20617070726f76616c20746f2063757272656e74206f776e6560008201527f7200000000000000000000000000000000000000000000000000000000000000602082015250565b6000612a8b6021836123eb565b9150612a9682612a2f565b604082019050919050565b60006020820190508181036000830152612aba81612a7e565b9050919050565b7f4552433732313a20617070726f76652063616c6c6572206973206e6f74206f7760008201527f6e6572206e6f7220617070726f76656420666f7220616c6c0000000000000000602082015250565b6000612b1d6038836123eb565b9150612b2882612ac1565b604082019050919050565b60006020820190508181036000830152612b4c81612b10565b9050919050565b7f4552433732313a207472616e736665722063616c6c6572206973206e6f74206f60008201527f776e6572206e6f7220617070726f766564000000000000000000000000000000602082015250565b6000612baf6031836123eb565b9150612bba82612b53565b604082019050919050565b60006020820190508181036000830152612bde81612ba2565b9050919050565b7f4e487b7100000000000000000000000000000000000000000000000000000000600052601160045260246000fd5b6000612c1f8261249b565b9150612c2a8361249b565b9250817fffffffffffffffffffffffffffffffffffffffffffffffffffffffffffffffff0483118215151615612c6357612c62612be5565b5b828202905092915050565b7f4e487b7100000000000000000000000000000000000000000000000000000000600052601260045260246000fd5b6000612ca88261249b565b9150612cb38361249b565b925082612cc357612cc2612c6e565b5b828204905092915050565b7f4552433732313a206f776e657220717565727920666f72206e6f6e657869737460008201527f656e7420746f6b656e0000000000000000000000000000000000000000000000602082015250565b6000612d2a6029836123eb565b9150612d3582612cce565b604082019050919050565b60006020820190508181036000830152612d5981612d1d565b9050919050565b7f4552433732313a2062616c616e636520717565727920666f7220746865207a6560008201527f726f206164647265737300000000000000000000000000000000000000000000602082015250565b6000612dbc602a836123eb565b9150612dc782612d60565b604082019050919050565b60006020820190508181036000830152612deb81612daf565b9050919050565b7f4f776e61626c653a2063616c6c6572206973206e6f7420746865206f776e6572600082015250565b6000612e286020836123eb565b9150612e3382612df2565b602082019050919050565b60006020820190508181036000830152612e5781612e1b565b9050919050565b7f496e76616c696420616464726573732830290000000000000000000000000000600082015250565b6000612e946012836123eb565b9150612e9f82612e5e565b602082019050919050565b60006020820190508181036000830152612ec381612e87565b9050919050565b7f7061796d656e74206e6f7420657175616c20746f20746f6b656e207072696365600082015250565b6000612f006020836123eb565b9150612f0b82612eca565b602082019050919050565b60006020820190508181036000830152612f2f81612ef3565b9050919050565b7f546f6b656e20616c7265616479206d696e746564000000000000000000000000600082015250565b6000612f6c6014836123eb565b9150612f7782612f36565b602082019050919050565b60006020820190508181036000830152612f9b81612f5f565b9050919050565b7f6d6178696d756d20537570706c79206c696d6974207265616368656400000000600082015250565b6000612fd8601c836123eb565b9150612fe382612fa2565b602082019050919050565b6000602082019050818103600083015261300781612fcb565b9050919050565b60006bffffffffffffffffffffffff82169050919050565b60006130318261300e565b915061303c8361300e565b9250816bffffffffffffffffffffffff048311821515161561306157613060612be5565b5b828202905092915050565b7f45524337323155524953746f726167653a2055524920717565727920666f722060008201527f6e6f6e6578697374656e7420746f6b656e000000000000000000000000000000602082015250565b60006130c86031836123eb565b91506130d38261306c565b604082019050919050565b600060208201905081810360008301526130f7816130bb565b9050919050565b600081905092915050565b6000613114826123e0565b61311e81856130fe565b935061312e8185602086016123fc565b80840191505092915050565b60006131468285613109565b91506131528284613109565b91508190509392505050565b7f4f776e61626c653a206e6577206f776e657220697320746865207a65726f206160008201527f6464726573730000000000000000000000000000000000000000000000000000602082015250565b60006131ba6026836123eb565b91506131c58261315e565b604082019050919050565b600060208201905081810360008301526131e9816131ad565b9050919050565b7f4552433732313a206f70657261746f7220717565727920666f72206e6f6e657860008201527f697374656e7420746f6b656e0000000000000000000000000000000000000000602082015250565b600061324c602c836123eb565b9150613257826131f0565b604082019050919050565b6000602082019050818103600083015261327b8161323f565b9050919050565b7f4552433732313a207472616e736665722066726f6d20696e636f72726563742060008201527f6f776e6572000000000000000000000000000000000000000000000000000000602082015250565b60006132de6025836123eb565b91506132e982613282565b604082019050919050565b6000602082019050818103600083015261330d816132d1565b9050919050565b7f4552433732313a207472616e7366657220746f20746865207a65726f2061646460008201527f7265737300000000000000000000000000000000000000000000000000000000602082015250565b60006133706024836123eb565b915061337b82613314565b604082019050919050565b6000602082019050818103600083015261339f81613363565b9050919050565b60006133b18261249b565b91506133bc8361249b565b9250828210156133cf576133ce612be5565b5b828203905092915050565b60006133e58261249b565b91506133f08361249b565b9250827fffffffffffffffffffffffffffffffffffffffffffffffffffffffffffffffff0382111561342557613424612be5565b5b828201905092915050565b7f4552433732313a20617070726f766520746f2063616c6c657200000000000000600082015250565b60006134666019836123eb565b915061347182613430565b602082019050919050565b6000602082019050818103600083015261349581613459565b9050919050565b7f4552433732313a207472616e7366657220746f206e6f6e20455243373231526560008201527f63656976657220696d706c656d656e7465720000000000000000000000000000602082015250565b60006134f86032836123eb565b91506135038261349c565b604082019050919050565b60006020820190508181036000830152613527816134eb565b9050919050565b7f4552433732313a206d696e7420746f20746865207a65726f2061646472657373600082015250565b60006135646020836123eb565b915061356f8261352e565b602082019050919050565b6000602082019050818103600083015261359381613557565b9050919050565b7f4552433732313a20746f6b656e20616c7265616479206d696e74656400000000600082015250565b60006135d0601c836123eb565b91506135db8261359a565b602082019050919050565b600060208201905081810360008301526135ff816135c3565b9050919050565b7f45524337323155524953746f726167653a2055524920736574206f66206e6f6e60008201527f6578697374656e7420746f6b656e000000000000000000000000000000000000602082015250565b6000613662602e836123eb565b915061366d82613606565b604082019050919050565b6000602082019050818103600083015261369181613655565b9050919050565b7f455243323938313a20726f79616c7479206665652077696c6c2065786365656460008201527f2073616c65507269636500000000000000000000000000000000000000000000602082015250565b60006136f4602a836123eb565b91506136ff82613698565b604082019050919050565b60006020820190508181036000830152613723816136e7565b9050919050565b7f455243323938313a20496e76616c696420706172616d65746572730000000000600082015250565b6000613760601b836123eb565b915061376b8261372a565b602082019050919050565b6000602082019050818103600083015261378f81613753565b9050919050565b7f4552433732314d657461646174613a2055524920717565727920666f72206e6f60008201527f6e6578697374656e7420746f6b656e0000000000000000000000000000000000602082015250565b60006137f2602f836123eb565b91506137fd82613796565b604082019050919050565b60006020820190508181036000830152613821816137e5565b9050919050565b600081519050919050565b600082825260208201905092915050565b600061384f82613828565b6138598185613833565b93506138698185602086016123fc565b6138728161242f565b840191505092915050565b60006080820190506138926000830187612530565b61389f6020830186612530565b6138ac6040830185612659565b81810360608301526138be8184613844565b905095945050505050565b6000815190506138d881612351565b92915050565b6000602082840312156138f4576138f361231b565b5b6000613902848285016138c9565b91505092915050565b60006139168261249b565b91507fffffffffffffffffffffffffffffffffffffffffffffffffffffffffffffffff820361394857613947612be5565b5b600182019050919050565b600061395e8261249b565b91506139698361249b565b92508261397957613978612c6e565b5b828206905092915050565b7f4e487b7100000000000000000000000000000000000000000000000000000000600052603260045260246000fdfea2646970667358221220fdf3c606815340f44d04acf84ab84feb9b106892d4486c607001aa34c5b6ad9064736f6c634300080d0033",
  "immutableReferences": {},
  "source": "// SPDX-License-Identifier: MIT\npragma solidity >=0.4.22 <0.9.0;\n\n\nimport \"../node_modules/@openzeppelin/contracts/token/ERC721/extensions/ERC721URIStorage.sol\";\nimport \"../node_modules/@openzeppelin/contracts/token/common/ERC2981.sol\";\nimport \"../node_modules/@openzeppelin/contracts/utils/Counters.sol\";\nimport \"../node_modules/@openzeppelin/contracts/utils/math/SafeMath.sol\";\nimport \"../node_modules/@openzeppelin/contracts/access/Ownable.sol\";\n\n\ncontract RoyaltyToken721 is ERC721URIStorage,ERC2981, Ownable {\n    using SafeMath for uint ;\n    using Counters for Counters.Counter;\n\n    Counters.Counter private tokenIdCounter;\n\n    uint public maxSupply;\n    string private URI;\n    uint public tokenPrice;\n\n    constructor(uint _maxSupply, string memory _URI, uint _tokenPrice) ERC721(\"RoyalityToken721\", \"Royal21\"){\n\n        require(owner() != address(0), \"owner cannot be address(0)\" );\n        maxSupply = _maxSupply;\n        URI = _URI;\n        tokenPrice = _tokenPrice;\n    }\n     ////@note also possible to pass URI as argument;\n\n    function mintToken(uint _royaltyRate) external payable{\n        \n        require(msg.sender != address(0), \"Invalid address(0)\");    // canot mint to address 0\n        require(msg.value == tokenPrice, \"payment not equal to token price\");\n        \n        tokenIdCounter.increment();         //token id start from 1\n        uint tokenId = tokenIdCounter.current();  \n\n        require(!_exists(tokenId), \"Token already minted\");    //check if token already minted \n        require(tokenId <= maxSupply, \"maximum Supply limit reached\");  //maximum total supply cannot exceed the max-Supply limit\n\n        _mint(msg.sender, tokenId);          //mint token to given address\n\n        ///@dev setting up tokn uri\n        _setTokenURI(tokenId, URI);\n\n        ///@dev setting up royalty for creator\n        uint96 _royaltyFee = uint96(_royaltyRate) * 100;\n         _setTokenRoyalty(tokenId, owner(), _royaltyFee);\n    }\n\n\n    \n   \n\n\n\n    /// manually override parent contract function due to name clash \n    function _beforeTokenTransfer(\n        address from, \n        address to, \n        uint256 tokenId) internal override(ERC721){\n        super._beforeTokenTransfer(from, to , tokenId);\n    }\n\n    function supportsInterface(bytes4 interfaceId) public view override (ERC721,ERC2981)returns (bool){\n       return super.supportsInterface(interfaceId);\n    }\n\n\n\n}",
  "sourcePath": "/media/umar/2EB40689B406542D/Blockchain/MarketPlace/src/contracts/RoyaltyToken721.sol",
  "compiler": {
    "name": "solc",
    "version": "0.8.13+commit.abaa5c0e.Emscripten.clang"
  },
  "schemaVersion": "3.4.7",
  "updatedAt": "2022-06-02T04:46:27.277Z",
  "networkType": "ethereum",
  "devdoc": {
    "kind": "dev",
    "methods": {
      "approve(address,uint256)": {
        "details": "See {IERC721-approve}."
      },
      "balanceOf(address)": {
        "details": "See {IERC721-balanceOf}."
      },
      "getApproved(uint256)": {
        "details": "See {IERC721-getApproved}."
      },
      "isApprovedForAll(address,address)": {
        "details": "See {IERC721-isApprovedForAll}."
      },
      "name()": {
        "details": "See {IERC721Metadata-name}."
      },
      "owner()": {
        "details": "Returns the address of the current owner."
      },
      "ownerOf(uint256)": {
        "details": "See {IERC721-ownerOf}."
      },
      "renounceOwnership()": {
        "details": "Leaves the contract without owner. It will not be possible to call `onlyOwner` functions anymore. Can only be called by the current owner. NOTE: Renouncing ownership will leave the contract without an owner, thereby removing any functionality that is only available to the owner."
      },
      "royaltyInfo(uint256,uint256)": {
        "details": "Returns how much royalty is owed and to whom, based on a sale price that may be denominated in any unit of exchange. The royalty amount is denominated and should be paid in that same unit of exchange."
      },
      "safeTransferFrom(address,address,uint256)": {
        "details": "See {IERC721-safeTransferFrom}."
      },
      "safeTransferFrom(address,address,uint256,bytes)": {
        "details": "See {IERC721-safeTransferFrom}."
      },
      "setApprovalForAll(address,bool)": {
        "details": "See {IERC721-setApprovalForAll}."
      },
      "symbol()": {
        "details": "See {IERC721Metadata-symbol}."
      },
      "tokenURI(uint256)": {
        "details": "See {IERC721Metadata-tokenURI}."
      },
      "transferFrom(address,address,uint256)": {
        "details": "See {IERC721-transferFrom}."
      },
      "transferOwnership(address)": {
        "details": "Transfers ownership of the contract to a new account (`newOwner`). Can only be called by the current owner."
      }
    },
    "version": 1
  },
  "userdoc": {
    "kind": "user",
    "methods": {},
    "version": 1
  }
}